:020000040800F2
:100000000000022001350108473501084935010883
:100010004B3501084D3501084F350108000000003F
:100020000000000000000000000000005135010841
:1000300053350108000000005535010809C60008C5
:100040005B3501085D3501085F3501086135010840
:100050006335010865350108673501086935010810
:100060006B3501086D3501086F35010899DF00080F
:1000700073350108753501087735010879350108B0
:100080007B350108F1DF00087F3501088135010863
:10009000833501088535010887350108C91601082F
:1000A0008B3501088D3501088F3501089135010820
:1000B0001DF90008953501089735010825E000086D
:1000C0009B3501089D3501089F350108A1350108C0
:1000D000A3350108A53501081DC60008A93501088A
:1000E000AB350108AD350108AF350108B135010860
:1000F000B3350108B5350108B7350108B935010830
:10010000BB350108D9F20008BF350108C135010827
:10011000C3350108C5350108C7350108C9350108CF
:10012000CB350108CD350108CF350108B9F20008FB
:10013000D3350108D5350108D7350108D93501086F
:10014000DB350108DD350108DF35010845F600081B
:10015000E3350108E5350108E7350108E93501080F
:10016000EB350108ED350108EF350108F1350108DF
:10017000F3350108F5350108F7350108F9350108AF
:10018000FB350108FD35010810B5054C237833B95E
:10019000044B13B10448AFF300800123237010BD5A
:1001A0003801002000000000B87E0108084B10B59F
:1001B0001BB108490848AFF300800848036803B939
:1001C00010BD074B002BFBD0BDE81040184700BF07
:1001D000000000003C010020B87E0108380100202A
:1001E00000000000154B002B08BF134B9D46A3F5E4
:1001F000803A00218B460F461348144A121A13F016
:10020000B2FE0F4B002B00D098470E4B002B00D0B6
:1002100098470020002104000D000D48002802D05E
:100220000C48AFF3008013F0B7FD2000290000F068
:1002300013F813F0F3F900BF0000080000000220DB
:1002400000000000000000003801002010C4012060
:1002500000000000000000002DE98048D9B00EF039
:1002600057FFBD4B9A6802F00C02042A09F0D482B1
:10027000082A09F0B682B94BB94A1A60B64EB94F8E
:10028000B168B94CB94ADFF818C3B948B94DC1F3E0
:1002900003114FF0C808795C1F68CCF8008027FA7A
:1002A00001F18F09A4FB0774A409196004F1FF3E52
:1002B0000721F02400270523C2F804E085F8234035
:1002C0009760116003608DF86A70336C4FF0804462
:1002D00043F001033364238823F45C731B044FF061
:1002E00001081B0CD1222380E1622285A4F814802E
:1002F000A3899BB243EA0803A3811C220F2316A8FB
:100300008DF858208DF859308DF85A308DF85B8073
:100310000CF0FAFA2288984B92B242EA0802228044
:100320001A68B2F5E13F09F04F824FF4E1321A60EA
:10033000336B924D43EA08033363336B43EA08039C
:100340003363336C04F5003443F400333364236ABD
:1003500023F470632362236A43F4E0632362236A15
:1003600023F470432362236A022143F4E0432362AF
:100370000322204604238DF85C1016A98DF85D2019
:1003800016938DF85E708DF85F800CF069FA204648
:10039000082316A916930CF063FAAB896FEA43435E
:1003A0006FEA53439BB2AB812B8A23F440531B0467
:1003B0001B0C2B82AB899BB223F4B05323F00C03AC
:1003C00043F00C03AB81AB8A23F440731B041B0C7A
:1003D000AB8218A80CF0F8F9AA891A9B674812F4A6
:1003E000004F03EB8303664A03EB8303A2FB032363
:1003F00014BF5A0C9A0C634BA3FB02418489480931
:10040000642100FB11210201200409F1D3810901BB
:100410003231A3FB0113C3F3431343EA0201574BE9
:10042000594A89B21981998989B241F40051998157
:10043000136843F02003136000242623012518A825
:100440008DF860308DF861408DF862408DF8635012
:100450000CF05AFA474B4D4ADA6031238DF863505D
:100460008DF861408DF862408DF8603018A80CF06E
:100470004BFA9DF863303B2101228DF860108DF816
:100480006120002B49F05B82414B4FF00062C3F8C2
:100490008420314D3F4C2B6B3F4F43F00C032B63BB
:1004A000636A23F00F036362636A43F00C036362C1
:1004B000636A23F0F0036362636A43F0C00363621C
:1004C000636A23F470636362636A43F44063636244
:1004D000636A23F470436362636A43F44043636274
:1004E000636A23F470236362636A43F440236362A4
:1004F0003B6A23F470633B623B6A43F440633B62B4
:100500004FF4706202232046002618A94FF001081C
:1005100018928DF865308DF864308DF866608DF82E
:1005200067800CF09DF93846042318A918930CF045
:1005300097F920464FF4805318A918938DF86760F7
:100540000CF08EF96B6C154843F400636B642B6BF5
:1005500043F480032B6325E0003802407400002040
:100560000024F40064000020632D3E0510E000E04C
:100570001400002000ED00E0001F002000440040B7
:10058000C5B3A2911F85EB510C4400400006FA054B
:1005900000E100E000080240000C0240A45D0108F8
:1005A000780000200CF0EEF8434B444918689F880F
:1005B00012901A4653F8080F149052F8100F9C88A6
:1005C0009388ADF85C300A683D4BADF84C709A42A8
:1005D000ADF85440169049F024815523F0220221B1
:1005E00018A88DF861308DF8602012F0FBFC0346EE
:1005F000002809F0A981334B0D931B68002B09F0EB
:10060000D380314E11AD3368022B0CBF2F483048D8
:100610000CF0B8F82F4F3B68002B40F00783DFF851
:10062000C480DFF8C4B0DFF8C4901C469A4618A80E
:10063000C5F80080CDF848B0CDF860800BF09CFA8A
:10064000031E4FF0000212A9284651DB59F823601F
:100650000EB186F800A0129E0EB186F800A0129E80
:1006600049F823600CF078F90328064609F0398030
:10067000002809F08F80184B0A931B68174AD86826
:10068000174914F071FD731E122B09F27980DFE80F
:1006900013F04B48414837481E483F0336032D03AB
:1006A0002403F702EE023700E5021B0312030903DD
:1006B0000003DC02D3026D488C5D0108EC1B0020B6
:1006C000801A0600D4B701205CA50120DC5D01087A
:1006D000F45D01086C22002028010020645E0108FE
:1006E0006C5E0108245E0108242000207C2200208A
:1006F000BC4B0A931B68BC4ABC49D86814F034FD53
:100700000A9BBB481B682022DB68012114F08CFD8A
:10071000DFF8F4A2B74CDAF83030B74DB74EB84F27
:10072000DFF8E88243F00103CAF83030C0234FF00D
:100730000009204618A918934FF001038DF8643082
:100740008DF865908DF866908DF867900CF088F8BC
:10075000402323834FF080032383DAF8303043F0C3
:100760000403CAF830304FF4005428464FF0010318
:1007700018A98DF8643018948DF865908DF86690FE
:100780008DF867900CF06CF86C83DAF8303043F039
:1007900018034FF0030BCAF8303030464FF2B373F2
:1007A00018A918934FF680758DF864908DF86790AE
:1007B0008DF865B00CF054F8384618A918950CF06F
:1007C0004FF8DAF8303043F07803CAF830304CF2A2
:1007D00033733046189318A94FF002038DF8643034
:1007E0008DF865B08DF866908DF867900CF038F84C
:1007F000336A23F00F033362336A43F00C0333622E
:10080000336A23F0F0033362336A43F0C003336288
:10081000336A23F470233362336A43F44023336230
:10082000336A23F470033362336A43F44003336260
:10083000736A23F00F037362736A43F00C037362ED
:10084000736A23F0F0037362736A43F0C003736248
:10085000736A23F470637362736A43F44063736270
:10086000736A23F070637362736A43F04063736268
:10087000736A23F070437362736A43F04043736298
:10088000384618A918950BF0EBFF3B6A5D4D23F035
:1008900070433B623B6A43F040433B627B6A23F018
:1008A0000F037B627B6A43F00C037B627B6A23F05D
:1008B000F0037B627B6A43F0C0037B627B6A23F4B4
:1008C00070637B627B6A43F440637B627B6A23F4E0
:1008D00070437B627B6A43F440437B627B6A23F410
:1008E00070237B627B6A43F440237B627B6A23F440
:1008F00070037B627B6A43F440037B627B6A23F074
:1009000070637B627B6A43F040637B627B6A23F0A7
:1009100070437B627B6A43F040437B62304618A998
:1009200018940BF09DFF736A23F470037362736A6B
:1009300043F4400373623046802318A918930BF0E8
:100940008FFF336A23F070433362336A43F04043CE
:100950003362DAF838304FF0204443F001000F21C1
:100960000D2241F21003CAF8380018911A92CDF8FE
:100970006490CDF86C90CDF87090CDF87490CDF86F
:1009800078902360189F1E9B199E1A981B9A1C9999
:100990003B4343EA061343EA002343EA02431D9A1A
:1009A00043EA015343EA02626FF0704362602B60D6
:1009B00023684FF0C04543F0010323604FF001036B
:1009C0002B8005200BF000FEE22223232A80A8F8CA
:1009D00000304FF00203A8F80030E02404264FF066
:1009E000010315E028010020645E01086C5E010827
:1009F000D45F01080000024000080240000C0240E1
:100A000000100240040100A000380240000008600D
:100A1000A8F8006064202C80A8F800300BF0E2FDFC
:100A2000E62393222C80B021A8F800B01F202B8051
:100A3000DF27A8F80060B423A8F80020E8264FF0CC
:100A40000102A8F800404FF0080E29804FF0330C47
:100A5000A8F800901721A8F800901224A8F800B078
:100A60004FF0B60AA8F80000A8F800201820A8F84F
:100A70000070F022A8F80090AA4F2B80A8F800B0D0
:100A80002923A8F800604FF00206A8F80090A8F803
:100A900000C0A8F800E0A8F80090A8F800B0A8F8F6
:100AA0000090A5F800A0A8F80060A8F80040A8F8F9
:100AB0000090A8F80000A8F800B0A8F80090A8F8E6
:100AC00000102A80A8F800B02B803A68964C12F0EB
:100AD000010F0CBF73464B46910748BF43F002031A
:100AE000520748BF43F001034FF0C04699B2BE22FF
:100AF000362333800025218006203280FF21012209
:100B000020802180284622802180258040F21F31CC
:100B100025803A60338025800EF09AFB40F2DF1189
:100B200028460EF081FB2C232246294633804FF4C1
:100B300048744FF4F073013B11804FF00005FAD177
:100B4000013CF6D12146FF2010F04CFE774B784A4D
:100B500093E80300764B82F8415083E803000123B9
:100B60007449754882F88850C2F8844082F88940F8
:100B700082F8403012F0DEFF0546002800F00B81BD
:100B80006E4F2A464FF4807118A812F0DBFE002841
:100B900000F0FC80232118A814F010FF0446002860
:100BA00009F055850023037018A814F027FF0028CA
:100BB000E7D0431E18A90B44C01A1A78093AD2B2DA
:100BC00027FA02F1172A01F0010204D882F001018C
:100BD000002A49F046853D2118A814F0EFFE03468F
:100BE0000028CED000220270554918A85C1C14F0D1
:100BF000C7FE0028C5D0534918A814F0C1FE064608
:100C0000002809F07B85504918A814F0B9FE002887
:100C100049F054854D49204614F0B2FE002849F0B1
:100C20002785434A012382F84030AAE7484B4948C8
:100C30000A9314F06BFE6BE50A9B47481B6822225F
:100C4000DB68012114F0F0FA62E50A9B43481B6857
:100C50002A22DB68012114F0E7FA59E50A9B404893
:100C60001B681822DB68012114F0DEFA50E50A9BAC
:100C70003C481B682222DB68012114F0D5FA47E5C5
:100C80000A9B39481B682122DB68012114F0CCFA49
:100C90003EE50A9B35481B683B22DB68012114F0C6
:100CA000C3FA35E50A9B32481B684122DB68012103
:100CB00014F0BAFA2CE50A9B2E481B682422DB6844
:100CC000012114F0B1FA23E50A9B2B481B681D2271
:100CD000DB68012114F0A8FA1AE50A9B27481B6873
:100CE0002722DB68012114F09FFA11E50A9B2448B2
:100CF0001B683922DB68012114F096FA08E50A9B8B
:100D000020481B681C22DB68012114F08DFAFFE4E7
:100D10000A9B1D481B681A22DB68012114F084FA23
:100D2000F6E400BF9400002000000860586101084C
:100D300064A501206061010864610108130080005E
:100D400070610108786101087C610108886101080F
:100D500028010020285E010808610108DC60010804
:100D6000F85F0108B05F01088C5F0108A06001080E
:100D70005C6001083460010814600108645F0108C8
:100D8000285F0108085F0108EC5E01080CF08EFF87
:100D9000284612F0A9FCAF4BD3F8842012B90122E7
:100DA000C3F884208022AB49AB4814F02FFE11F029
:100DB000FFFE11F0A3FFA74BD3F88430DF0752D515
:100DC000A64CA748236B43F002032363002580232E
:100DD00018A918938DF864508DF867500BF040FDFA
:100DE000616CA04AA04B41F480416164D16821F458
:100DF0007041D160D16841F48051D160196821F00F
:100E000080011960596821F080015960196841F02A
:100E100080011960996821F080019960D96821F0FA
:100E20008001D960D2F80C3443F08003C2F80C344E
:100E300016A8012317228DF859308DF85A308DF8F5
:100E40005B308DF858200BF05FFD236B844843F036
:100E50000203236318A940238DF864508DF867506E
:100E600018930BF0FDFC7B4BD3F884309D0708F101
:100E7000D785784BD3F884305B0724D50024774B93
:100E8000199418941A6B794F794842F01402FF268E
:100E90001A6301253E833F2318A98DF864408DF81D
:100EA000654018938DF867500BF0DAFC384618A9A6
:100EB00018968DF864508DF866508DF867408DF85F
:100EC00065400BF0CDFC6B4B08936B4B02936B4B67
:100ED00009936B4B1B68002B40F0F882694B694A01
:100EE0001B68002B40F01782674B1B78002B40F0EB
:100EF0008A80664B1878002840F08580644A654BEC
:100F000011881B78644A624D1180624A002B62D0BE
:100F1000624B624C1B78002B5DD010708B0B604ACB
:100F2000207052F82320C1F30D03D35C584A762B6E
:100F300004BF4B1C2B805B4B10881B88013B9AB273
:100F4000584BB2F5804F1A800DD3B2F5B64F02D28E
:100F5000554901230B70930BC2F30D01504A52F80F
:100F60002320030A53544F4B1B88013B9AB24D4B2D
:100F7000B2F5804F1A800CD3B2F5B64F02D24A496F
:100F800001230B70930B4649C2F30D0251F8233035
:100F90009854464B1B78012B40F23484022B1AD113
:100FA000434B444A1B7816683D4C1902481C821377
:100FB0008B0B54F8225054F82340C0F30D023D48E7
:100FC00006F11303C1F30D010360AA5C635C03EB3C
:100FD00002232F4A13802E4B1A8840F262539A4202
:100FE00008F0A78740F2C2439A4208F06E87324B5E
:100FF0001B7803F0FF02002B00F014842F4B1B68BA
:10100000002B40F05D84224B254C19882C4B18682E
:101010008B0BC1F30D0254F823309C5C002875D073
:1010200043F6FE43994205F0B88243F6FF439942E6
:101030006CD1244B1B68002B05F0A782224B234A5E
:101040001B682149D25C0133802B0B6008BF002351
:10105000D2B23DE064A5012014BC0120003802405A
:101060000004024000380140003C014000080240FA
:101070000010024000400010B8BC01204065012073
:1010800058220020FC1B00200DBD012070BD012056
:1010900074BD01209CBC012072BD0120151F0020E1
:1010A00048A50120B4BC0120A500002010BC0120EF
:1010B000141F002078BD012018000020201F0020F0
:1010C00010BD01200C1F0020E41B0020641B002029
:1010D00008BF0B6072B60B4B0A491B68013B0B60E3
:1010E00062B6029B02999B79CA7143F001030D2AF3
:1010F0008B710BD1044B5B6803F5E1521C3220234A
:10110000137003E00C1F002048A50120FF2C09F2FA
:101110001186DFE814F0894DDD4D69469C4D3D4D4B
:101120005C2C3D2CA74F8E4F524F384F034FB94E7A
:10113000614E424E8B5059502F500C500351B950B4
:10114000542D352DEE53D6539A538053E4544254C4
:101150009954234E1652F8518D512E51B152685266
:10116000E152F32BBB319031E830A7307832303286
:1011700039301B30FE2FE02FB92F7F2F632FC42E65
:101180001D2EAC2D69344B341134D433B6336C334B
:101190001433F532B7358E358E358E358E358E3526
:1011A0008E35F7348E35CC34CC34CC34CC34CC348E
:1011B000CC345F35CC3426352635263526352635D4
:1011C0002635FE352635122C122C122C122C122C00
:1011D000122CCA3F122CAE3FAE3FAE3FAE3FAE3FE9
:1011E000AE3F803DAE3F653D653D653D653D653D3E
:1011F000653DCB3E653D733E733E733E733E733E2D
:10120000733E4B37733E223722372237223722373D
:101210002237DD412237333F333F333F333F333FC4
:10122000333F5B41333FF13CF13CF13CF13CF13C5D
:10123000F13CAB40F13C013E013E013E013E013E2E
:10124000013EFC3F013EB42CB42CB42CB42CB42C85
:10125000B42C153AB42CBE39BE39BE39BE39BE39AC
:10126000BE39C33BBE397439743974397439743931
:101270007439553C7439DB3ADB3ADB3ADB3ADB3A1A
:10128000DB3A263BDB3AB136B136B136B136B13650
:10129000B136E337B136AE378237583745398938FA
:1012A000EB38822BAB148514F2144E14810E1F0EF2
:1012B000B80D540D0D0DE70CBB0C840C650C030C24
:1012C000BB0B5D0B090BE30AB60A8C0A6F0A0D0A09
:1012D000EC098809F108BD088D086408F907990729
:1012E0001007D7062928F027DD27B3279D273B279E
:1012F0000717BD160529DF28B3288928BB295929D6
:10130000CA29AD15192BF32A602BAF2AA71645164B
:10131000D92AE615B7040024C249C348146012F064
:1013200009FC0746002805F02B818DF83D408DF81B
:101330003E408DF83F4011F0E1FCBC49384611F0C9
:10134000B9FBBB49384611F0B5FBBA49384611F034
:10135000B1FBB949384611F0ADFBB849384611F038
:10136000A9FBB749384611F0A5FBB649384611F03C
:10137000BBFBB549384611F0B7FBB449384611F00C
:1013800099FB0DF13F01384611F094FB0DF13D0141
:10139000384611F08FFB9DF83D30FF2B05F0EA80B9
:1013A00003F0200303F0FF02002B45F0D780154621
:1013B0009DF83D30A64AA749C3F34203384613704F
:1013C00011F078FBA449384611F074FBA349384664
:1013D00011F070FBA249384611F06CFBA149384668
:1013E00011F068FBA049384611F064FB9F4938466C
:1013F00011F060FB9E49384611F05CFB9D49384670
:1014000011F058FB9C49384611F054FB9B49384673
:1014100011F050FB9A49384611F04CFB9949384677
:1014200011F048FB9849384611F044FB0DF13E019C
:10143000384611F03FFB9DF83E30002B05F08A80C6
:10144000924A012313709249384611F033FB0DF193
:101450003E01384611F02EFB7A4A9DF83E30148842
:101460008C4A03F003031370002C00F0F383D5B90A
:101470004FF4804401250DF13E01384611F01AFB6E
:10148000B4F5B64F38BF84489DF83E2038BF05708C
:10149000A30B8248C4F30D0150F823300134B4F596
:1014A000803F5A54E7D1674B7D4A1B8813807D4BA0
:1014B00000241C707C4B1C707C4B1C707C4B384691
:1014C0001C6012F011F97B4B1C700DE57A4B7A4AC7
:1014D0001B787A490133DBB20020102B13700860AF
:1014E00000F0A7835A4B1978754B1B788B422AD092
:1014F000744B33F8114000942F2340F247221021FF
:1015000008200DF0B9FE40F2AF1327223021082049
:1015100000940DF0B1FE40F2AF1340F247223021AB
:101520004FF40A7000940DF0A7FE40F2CF1340F282
:10153000472200944FF4D87108200DF09DFE444BD3
:101540005F4A1B7813705C4B1B780C9323B1524B92
:101550001B78002B3FF4C2AC4FF480430B930B9BE2
:101560009B1003F038010B9BC3F302225B110A436B
:1015700003F0C00342EA0301CB085A014B0003F118
:10158000300BBDF82C30049337230793282302F542
:10159000B04205933823069203934B4BBDF8146079
:1015A0001B68002B00F0F580049B099AC3F30D0320
:1015B00012F803A0454B09931946069BC3F30D028D
:1015C000434B8A5C1B7843B1424B04990B44A3F50F
:1015D00080431B78534500F0E6803E4B04990B4452
:1015E000A3F58043150683F800A000F1EA80C2F35A
:1015F000C20802F00709540607D508F1080209F1EC
:1016000008035FFA82F85FFA83F9BAF1000F00F07D
:101610008380BAF1FF0F00F0DE8080250BF1010717
:1016200067E000BFC4610108241F0020BFBC012087
:10163000BEBC0120B9BC0120B8BC0120BDBC01204A
:10164000BCBC012074BD0120B4BC0120141F0020CB
:10165000B6BC0120BBBC0120BABC0120A1BC01204A
:10166000A0BC0120A3BC0120A2BC0120A5BC01207C
:10167000A4BC0120A7BC0120A6BC0120C3BC012042
:10168000C2BC0120C1BC0120C0BC01209CBC012007
:101690001C1F002010BC0120A500002048A501202F
:1016A00072BD01200CBD01200DBD012070BD0120C7
:1016B00078BD0120151F0020E81B002058220020C3
:1016C00010000020E862010844A5012040650120C7
:1016D000F01B00205C020020414C34F819400094BB
:1016E0000DF0CAFDB31C9EB2039B9E424FEA550506
:1016F0001DD01AEA050F3B4606F101025946304655
:10170000EAD1374B33F818300093721C3B465946E8
:1017100030460DF0B1FDE5E7314B33F8183000935A
:10172000079A05980BF1010359460DF0A5FD039B9F
:101730000499069A059810339BB20393079B1030C7
:101740000131013289B292B21033B0F50A7F0590AF
:101750000491069207937FF420AF0B9B2033B3F5DF
:10176000B04F0B937FF4FBAE1E4B1F4A19681F4B03
:101770001F48002914BF114619464FF4407212F059
:10178000E7FB1C4901220A701B4A00231370FFF774
:10179000A5BB049B089AC3F30D0312F803A0174BD3
:1017A0000893194609E7124B06990B44A3F5B04379
:1017B0001B7893427FF411AF0C9B002BB7D1170617
:1017C000B5D50F4B1B78002B3FF411AFC2F3C20904
:1017D00002F007080FE7024B33F819309FE700BF0C
:1017E000E862010844A50120407D01200058001056
:1017F000001C0020F01B0020A5000020004000106D
:10180000601B00208D4B8D491B6803F10D020A609F
:101810008B4A382313808B4B1B7803F0FF02002B7D
:101820007FF4ECAB884B104619680FF0DBFF0D9B83
:101830001B680BB10FF0AEFFDFF80C92DFF840A28F
:101840004FF0000810F02EF87628024621D05A2AD0
:1018500008F0F08248F2EB82B2F5B97F08F0F78227
:1018600040F275139A4209D1B8F1000F06D0764BB9
:1018700008F1FF38404619680FF0B4FF734BD3F8F6
:1018800084309B07DED5002401200DF04DFA002C9A
:10189000D8D06D4BFF2019680FF0A4FF0D9B6C4949
:1018A0001A6800230B600AB10FF074FF0CF036FACF
:1018B000644A01231370674B1B68002B3FF4A3ABF2
:1018C0006549664812F036F90446002808F0DC82C3
:1018D000634B029A1B78D07921465D0013F028FBF8
:1018E000029B2146987913F023FB029B21465878EE
:1018F00013F01EFB029B2146187813F019FB029B84
:101900002146587913F014FB029B2146187913F0F5
:101910000FFB2146002013F00BFB2146002013F0A3
:1019200007FB504B2046198811F034F94E4B2146E5
:10193000187813F0FDFA2146002013F0F9FA214639
:1019400005F0FE0013F0F4FA029B2146D87813F05C
:10195000EFFA029B2146987813F0EAFA434B2146AE
:10196000587813F0E5FA414B2146187813F0E0FA65
:101970003E4B2146D87813F0DBFA3C4B2146987851
:1019800013F0D6FA394B2146587913F0D1FA374B78
:101990002146187913F0CCFA344B2146D87913F04C
:1019A000C7FA324B2146987913F0C2FA029B2146BE
:1019B000D87A13F0BDFA029B2146987A13F0B8FA50
:1019C000029B2146587A13F0B3FA029B2146187AFB
:1019D00013F0AEFA264B2146187813F0A9FA254BDE
:1019E0002146187813F0A4FA234B2146187813F0F7
:1019F0009FFA3621204611F0CDF8114B2046198868
:101A000011F0C8F8002501260AE0022B08F04182F7
:101A100013F08EFA342E08F02782731C9EB2013523
:101A200021460020ABB2002DEFD1144B1B68B3F55B
:101A3000804F0CBF0346042308F032BA78BD012062
:101A400074BD0120180000205802002064A5012068
:101A5000E0B70120201F002080620108580100200B
:101A6000B6BC0120B4BC0120141F0020A0BC012082
:101A70009CBC01201C1F002010BC012060A501207F
:101A8000F41B00207F4B80491B8808887F4A013B5C
:101A900099B2431C7B48126801807C480B32B1F537
:101AA000804F026098B20DD3B1F5B64F02D2784A9A
:101AB000012313708B0B774AC1F30D0152F82320D9
:101AC000030A53546F4B1B88013B9AB26D4BB2F51E
:101AD000804F1A800CD3B2F5B64F02D26C49012365
:101AE0000B70930B6B49C2F30D0251F823309854DD
:101AF000654A38231380684B1B7813B9674B1B78F2
:101B000053B1674B664A1B78002B52D062490023C1
:101B10000B70624913700B70624B5C4A1B68126851
:101B20005A4913F0030F40F29F2318BF4FF4287354
:101B30009A42FFF4CEA95C4804685C48D0F884005F
:101B4000D31A40070B6004F10A0542D4574BD3F86F
:101B50008430990702D500200DF0E6F80D9B1B6834
:101B60006BB1534B196800292FD1524B514A1B6856
:101B70000133642B136002D111600DF05DFF4B4BFC
:101B8000D3F88C30C3B14C4B1D60464B46491A68A4
:101B9000494B1B680B60531C424A642B136011466F
:101BA0007FF497A900220A60444A01231370FFF7CB
:101BB00090B901231370AFE73F4B1B689D42E4D9F6
:101BC0003D4B1B689D42F7D8DFE701200DF08EFFEB
:101BD000D5E73B4B3A4C1B68F3B1012BB6D1394BDF
:101BE0001B69DBB203F0200203F03F0102F0FF03A8
:101BF0000AB9354A1370354B1A68184661F01F034D
:101C000033498B54531C082B03602D4A04BF002317
:101C100003600023136099E72C4B2E481B680121B9
:101C200001FA03F3DB43DAB2FF234383028321602B
:101C30008CE7294B10702949294A1B7809781278BA
:101C4000254CB3FA83F35B098A4223707FF450ACCE
:101C50000C9081E418A9384610F046FFBDF86030BA
:101C60000949172B38460CBF0226032610F03CFF0B
:101C7000BDF86030023B9BB2ADF86030002B5FD006
:101C8000184D43E0B4BC012074BD012078BD012093
:101C9000A500002048A501200DBD012070BD012038
:101CA0000CBD0120682200207022002064A50120C4
:101CB00008B801207422002054010020151F0020C4
:101CC000782200200010024018000020181F002079
:101CD0003825002000080240601B0020B6BC01200F
:101CE0001000002060A501209DF83E30012B44F239
:101CF0006D84022E00F0CB80043B012B40F2CB80A0
:101D0000621CBDF8603094B2A34219D90DF13E01B6
:101D1000384610F0CFFE002CE6D0022CF0D1B64BA6
:101D20001B68B3F5004FEBD19DF83E20FD217F20CD
:101D300010F056FE621CBDF8603094B2A342E5D8A4
:101D40000023DFF8E8A28DF840308DF842304FF6DE
:101D5000FF7B18A9384610F0C7FE0DF14201384646
:101D600010F0A8FEBDF860305B4504BF4FF480431F
:101D7000ADF86030A04B1B680CBF4FF000094FF06E
:101D80000109B3F5804F9DF8423050D0033B9B4A88
:101D900052F82380BDF8603023B3002634460DE0AE
:101DA0009DF83E50ED2D2BD0731C08F806509EB2C6
:101DB000621CBDF8603094B2A34213D90DF13E010C
:101DC000384610F077FEB9F1000FE9D19DF83E30AA
:101DD00008F80630731C9EB2621CBDF8603094B2E5
:101DE000A342EBD87B68013B002B7B6029DB3A6880
:101DF000531C3B6013781846394612F051FFA8E790
:101E00000DF13E01384610F055FE9DF83E20631C52
:101E1000ED2A99B21FD008F80650731C9AB29DF8AB
:101E20003E3008F80230B31C0C469EB2C0E7052BCA
:101E300045D0082B40D0042B0CBFD0464FF00008F3
:101E4000A8E70A9B3946186812F084FB0346013064
:101E50003FF429ABCFE710A9384610F02BFE0DF167
:101E60003E01384610F026FE9DF84020E31C9CB24F
:101E7000002A9DD000219DF83E3008F806309DF8DC
:101E800040200131731C91429EB2F4DB90E7033B8A
:101E9000012B3FF635AF584B1B68B3F5804F7FF4ED
:101EA0002FAF57498022574813F0B0FD10F080FE45
:101EB00028680BF069FF23E7DDF820806AE7DFF888
:101EC000708167E7504B514C1D88514B1968029B3C
:101ED000D8796B1C9BB29A0B073154F822204A4CDC
:101EE00023804B4CC3F30D032160D35C494A184057
:101EF000029BD8719379002800F09C8003F0BF0307
:101F00000406937140F1998063F07F039371029B03
:101F1000029E9979404B3F4C185C01F0FC0242F064
:101F20001003B371002855D042F01403A371364A50
:101F3000AB1C1380DFE5394B1B78002B3CD0344BB6
:101F4000029A1B68117A3248527A0F33036042EAD0
:101F50000120334B1B88013B9AB2314BB2F5804FC5
:101F60001A800DD3B2F5B64F02D22E4901230B7061
:101F7000930BC2F30D01254A52F82320030A535450
:101F8000274B1B88013B9AB2254BB2F5804F1A8034
:101F90000CD3B2F5B64F02D2224901230B70930B3A
:101FA0001A49C2F30D0251F823309854164B164AC1
:101FB0001B88013313809EE51B4B1B7883B1144BA8
:101FC000029A1B68917A1248D27A0F33036042EA70
:101FD0000120BEE721F0070343F01003A371A6E739
:101FE0000B4B029A1B681179094852790B33036035
:101FF00042EA0120ADE700BF60A50120C8640108E6
:102000005861010814BC012074BD012048A50120BD
:1020100078BD0120B8BC0120086301080DBD012076
:10202000B4BC0120A500002070BD0120008000107C
:1020300000C0001043F040039371029B029A9B7909
:1020400003F07F03937162E7A44BA5481C88029BB1
:102050009D79631C9BB29A0BA11C50F822009F4AE9
:102060001380C3F30D0289B28B0B805C9C4A52F83B
:1020700023209A4B1980C1F30D036D07D35C974958
:1020800000EB03239EB237D4964B974A1B88106807
:10209000013BE11C9AB200F1110388B291490A8018
:1020A0009149B2F5804F0B600DD3B2F5B64F02D215
:1020B0008E4901230B70930BC2F30D01884A52F82D
:1020C0002320030A5354874B1B88013B9AB2854B4C
:1020D000B2F5804F1A800CD3B2F5B64F02D28349C5
:1020E00001230B70930B7E49C2F30D0251F823308C
:1020F00098547A4B1E80FEE47B4BE21C1B680A80DE
:10210000794A0A331360F6E4794B93F80080B8F10A
:10211000000F42D0744B029A1B68557A92F808E07F
:10212000714A173313606F4B6D481A88531C9F1305
:10213000C3F30D0C6A4B910B53F8273050F8210074
:1021400013F80C60C2F30D03B2F5804F0393C45C27
:1021500007D3B2F5B64F02D2644901230B70039B3B
:10216000C55443F6FE739A420BDD45F6FE239A42B0
:1021700002DC5E4A01231370594B53F8273003F8F1
:102180000CE0B8F1000F15D0029B5C721E72534B2D
:10219000524A1B8801331380ADE4564B1B7883B140
:1021A000514B029A1B68D57A92F80AE04E4A1733CF
:1021B0001360B8E74F4B1B786BB1029BDC729E72C9
:1021C000E5E7494B029A1B68557992F804E0464AC4
:1021D00013331360A7E7029B5C711E71D7E73F4B77
:1021E0001C88414B1E68029B9D79631C9AB2A31CFC
:1021F00098B2910B3A4B53F82110384B1A8006F1E4
:102200000A03394EC2F30D023360895C344A830BF2
:102210006F0752F82320314B1880C0F30D03D35CB5
:102220002E4A01EB03239BB248BFE31C138062E4F8
:102230002F4B1B78002B00F09A802A4B1C882A4BCE
:102240001D68631C98B2A10B05F10E03244D820B8F
:1022500055F82150224951F82260234A1360C4F3F3
:102260000D03C0F30D01EA5C1E4B1880735C0298ED
:1022700042EA03231BB2C3F307214372194B0172D5
:10228000A21C1A80154B154A1B880133138032E4B7
:10229000029B9B795B0700F19480124B1C88124BC8
:1022A0001D68631C98B2820B05F10B03A10B0C4D4A
:1022B00055F8211055F822500B4A1360C4F30D0352
:1022C000C0F30D02C95C074B1880AB5C41EA0323E5
:1022D00002490B80034BA21C1A800CE474BD012040
:1022E00048A50120B4BC012078BD0120A500002034
:1022F0000DBD012070BD0120854B86491B880888D3
:10230000854A013B99B2431C81481268018082488A
:102310000B32B1F5804F026098B20DD3B1F5B64FD4
:1023200002D27E4A012313708B0B7D4AC1F30D014B
:1023300052F82320030A5354754B1B88013B9AB271
:10234000734BB2F5804F1A800CD3B2F5B64F02D260
:10235000724901230B70930B7149C2F30D0251F8BE
:10236000233098546B4A18231380FFF7C4BB6D4B7E
:102370001B78002B31D0664B1C88674B1D68631C93
:1023800098B2A10B05F10E03654D820B55F8215053
:10239000634951F82260604A1360C4F30D03C0F32F
:1023A0000D01EA5C5A4B1880735C029842EA0323E1
:1023B0001BB2C3F30721C372554B8172A21C1A8052
:1023C00060E7554B54491A68524B05321B880A6026
:1023D000504A01331380FFF78EBB4D4B1C884E4B88
:1023E0001D68631C98B2A10B05F10A034C4D820BCA
:1023F00055F821504A4951F82260474A1360C4F306
:102400000D03C0F30D01EA5C414B1880735C029828
:1024100042EA03231BB2C3F3072143713C4B017112
:10242000A21C1A802EE73B4B3D4EB3F800E03A4B1E
:102430003D4F1868029B9C79DD790EF101039BB238
:102440009A0BC3F30D0156F82220324E3380C31D80
:1024500031480360505C05F00F0200F00F03D11A01
:1024600004F001032A1AC91AD31A9EB2CB064CBF34
:1024700044F0100324F01003BB7180EA05031C062E
:102480003FD585EA060318063BD5029B029A9B7945
:1024900043F004039371244A029BDE719379F105A2
:1024A0004CBF43F0010323F001039371029B029A96
:1024B0009B79184916F0FF0F14BF23F0400343F037
:1024C00040039371029B9B793206029A4CBF63F0E2
:1024D0007F0303F07F039371029B0EF102029B794D
:1024E0000A80029A43F002039371FFF704BB094B81
:1024F00008491B885A1C0A800C4A01231370FFF7F5
:1025000000BB029B029A9B7923F004039371C2E7FC
:10251000B4BC012074BD012078BD0120A5000020BD
:1025200048A5012070BD0120B8BC01200DBD0120CF
:10253000A14BA2481C88029B9D79631C9BB29A0BFD
:10254000A11C50F822009C4A1380C3F30D0289B2EB
:102550008B0B805C994A52F82320974B1980C1F36A
:102560000D039549D35CEA0700EB03239EB238D5EF
:10257000934B944A1B881068013BE11C9AB200F10E
:10258000110388B28E490A808E49B2F5804F0B60E4
:102590000DD3B2F5B64F02D28B4901230B70930BCA
:1025A000C2F30D01854A52F82320030A5354844B89
:1025B0001B88013B9AB2824BB2F5804F1A800CD334
:1025C000B2F5B64F02D2804901230B70930B7B49C1
:1025D000C2F30D0251F823309854774B1E80FFF759
:1025E0008ABA784BE21C1B680A80764A0A33136069
:1025F000FFF781BA704B714D1C88724B1968029BB2
:10260000D879631C9BB29A0B0B3155F822206A4D86
:102610002B806C4DC3F30D032960D15C0BF012FCD1
:10262000029AD071644AA31C1380FFF764BA624B0C
:102630001C88644B1E68029B9D79631C9AB2A31C84
:1026400098B2910B5D4B53F821105B4B1A8006F149
:102650000A035C4EC2F30D023360895C574A830B58
:1026600052F82320544B1880C0F30D03D35C524A18
:1026700001EB0323E9079BB258BFE31C1380FFF76C
:102680003ABA504B029C19684B4B1A88029B187837
:102690004E4B1B7823700B1D4A490B6046496378EB
:1026A00001320A80494A1070484851784370837853
:1026B0004648A2788270C27844486170E178C1705F
:1026C00001794248A370237921714049E270037176
:1026D0006279437963714A71FFF70DBA029B9B7966
:1026E000D8075CD5364B1C88364B1D68631C98B2E6
:1026F000820B05F10B03A10B304D55F8211055F855
:102700002250304A1360C4F30D03C0F30D02C95CBC
:102710002B4B1880AB5C41EA032327490B80284BE5
:10272000A21C1A80FFF7E7B9254B23491B880888AC
:10273000244A013B99B2431C214812680180214878
:102740000B32B1F5804F026098B20DD3B1F5B64FA0
:1027500002D21D4A012313708B0B184AC1F30D01DD
:1027600052F82320030A5354154B1B88013B9AB29D
:10277000134BB2F5804F1A800CD3B2F5B64F02D28C
:10278000114901230B70930B0C49C2F30D0251F850
:1027900023309854084A10231380FFF7ACB9094B33
:1027A00008491A68044B05321B880A60024A013343
:1027B0001380FFF7A0B900BF74BD012048A5012018
:1027C000B4BC012078BD0120A5000020A0BC0120E0
:1027D000A84BA94F1E88A94BA9481D68029BDC790C
:1027E000731C9BB29A0BC3F30D0157F82220A14F23
:1027F0003B80EB1DA14D2B60515C04F00F0201F0FA
:102800000F03D31A13F0100F837914BF43F0100392
:1028100023F01003837181EA0403621A190695B24A
:1028200075D584EA02031B0671D5029B02999B7938
:1028300043F004038B71029B8E49DA71904A9379BD
:10284000EF054CBF43F0010323F001039371029B9A
:10285000029A9B7915F0FF0F14BF23F0400343F059
:1028600040039371029B029A9B792C064CBF63F044
:102870007F0303F07F039371029BB21C9B790A8054
:10288000029A43F002039371FFF735B9029B7B482C
:102890009978DA787B4B00681B8842EA0122013B79
:1028A000784914B29AB20A80744900F10B03B2F568
:1028B000804FA0B20B600DD3B2F5B64F02D2724971
:1028C00001230B70930BC2F30D016B4A52F82320C6
:1028D000030A53546B4B1B88013B9AB2694BB2F508
:1028E000804F1A800CD3B2F5B64F02D2664901234D
:1028F0000B70930B6049C2F30D0251F823309C54C6
:102900005C4B5C4A1B8801331380FFF7F4B8029BD1
:1029100002999B7923F004038B718CE7554B564841
:102920001C88029B9D79631C9BB29A0BA11C50F8DA
:102930002200504A1380C3F30D0289B2805C4E4AD4
:102940008B0B52F823204B4B1980C1F30D034949DF
:10295000D35C00EB0323E8079EB238D4494B474AC7
:102960001B881068013BE11C9AB200F1110388B288
:1029700044490A804149B2F5804F0B600DD3B2F54E
:10298000B64F02D2404901230B70930BC2F30D01E5
:10299000394A52F82320030A53543A4B1B88013B0F
:1029A0009AB2384BB2F5804F1A800CD3B2F5B64FBD
:1029B00002D2354901230B70930B2F49C2F30D024C
:1029C00051F8233098542B4B1E80FFF794B82B4BB3
:1029D000E21C1B680A80294A0A331360FFF78BB890
:1029E000244B254C1B88254A01339BB2990B106858
:1029F00054F821101F4C029A2380204CD2790B30BE
:102A0000C3F30D032060C95C029B18780FF0E8FF48
:102A1000184B184A1B8801331380FFF76CB8154B0D
:102A20001C88164B1E68029B9D79631C9AB2A31CDE
:102A300098B2910B104B53F821100E4B1A8006F1EF
:102A40000A030E4EC2F30D023360895C0A4A830BFF
:102A5000ED0752F82320074B1880C0F30D03D35C19
:102A6000044A01EB03239BB248BFE31C1380FFF72A
:102A700042B800BF74BD012048A5012078BD0120E7
:102A8000B8BC0120B4BC0120A5000020AB4B1D88C0
:102A9000AB4B1C68AB4B1F886B1C98B2A90B04F1A5
:102AA0000A03A94C820B54F82140A74951F822602F
:102AB000A34A1360C5F30D03C0F30D01E25C9F4B05
:102AC000029C1880735C42EA03231BB2C3F3072005
:102AD000E3709A4BA070A91C19809A4B7A1C1A803B
:102AE000FFF709B8029B9B79DF075CD4934B1C88E6
:102AF000934B1D68631C98B2820B05F10B03A10B6D
:102B0000914D55F8211055F822508D4A1360C4F3A9
:102B10000D03C0F30D02C95C884B1880AB5C41EA21
:102B2000032388490B80854BA21C1A80FEF7E3BF64
:102B3000824B84491B880888814A013B99B2431C17
:102B40007E48126801807E480B32B1F5804F0260EA
:102B500098B20DD3B1F5B64F02D27C4A012313705F
:102B60008B0B794AC1F30D0152F82320030A535409
:102B7000724B1B88013B9AB2704BB2F5804F1A80A2
:102B80000CD3B2F5B64F02D2704901230B70930BF0
:102B90006D49C2F30D0251F823309854694A082355
:102BA0001380FEF7A8BF664B65491A68654B05326E
:102BB0001B880A60634A01331380FEF79CBF614B98
:102BC00061481F885E4B624E1B680393029B9C7991
:102BD000DD797B1C9BB29A0BC3F30D0150F82220C8
:102BE00058480380039B564807330360505C05F048
:102BF0000F0304F001010B4400F00F021A444319C3
:102C00001944D3064CBF44F0100324F01003B371F1
:102C100080EA0503DB0940F08A8085EA01031C068F
:102C200040F18580029B029A9B7943F004039371E3
:102C3000474A029BD9719379C8054CBF43F0010301
:102C400023F001039371029B029A9B7911F0FF0F0D
:102C500014BF23F0400343F040039371029B9B7920
:102C60000A06029A37494CBF63F07F0303F07F03E3
:102C70009371029BBA1C9B790A80029A23F002038B
:102C80009371FEF738BF2F4B1C882D4B1D682B4BC3
:102C90001E88631C9AB2A31C98B2910B2A4B53F85E
:102CA0002110284B1A8005F11103254DC2F30D02A6
:102CB0002B608D5C244A830B52F82310214B188023
:102CC000C0F30D03721ECB5C05EB0323E11C92B233
:102CD0009CB21A4BB2F5804F88B21A800DD3B2F570
:102CE000B64F02D2194901230B70930BC2F30D01A9
:102CF000154A52F82320030A5354104B1B88013BFA
:102D00009AB20E4BB2F5804F1A800CD3B2F5B64F83
:102D100002D20E4901230B70930B0B49C2F30D0233
:102D200051F823309854074B1C80FEF7E4BE029BF9
:102D3000029A9B7923F00403937179E7B4BC0120D4
:102D400078BD012074BD012048A50120A500002008
:102D5000B8BC0120884B89481C88029B9D79631C64
:102D60009BB29A0BA11C50F82200834A1380C3F334
:102D70000D0289B28B0B805C804A52F823207E4B77
:102D80001980C1F30D037C49D35C6A0600EB032371
:102D90009EB238D57A4B7B4A1B881068013BE11CF8
:102DA0009AB200F1110388B275490A807549B2F5EB
:102DB000804F0B600DD3B2F5B64F02D2724901239A
:102DC0000B70930BC2F30D016C4A52F82320030AD7
:102DD00053546B4B1B88013B9AB2694BB2F5804F41
:102DE0001A800CD3B2F5B64F02D2674901230B709B
:102DF000930B6249C2F30D0251F8233098545E4B95
:102E00001E80FEF778BE5F4BE21C1B680A805D4A9D
:102E10000A331360FEF76FBE5C4B1D781DB95C4B27
:102E20001B78002B59D0544B54481A88531C99B224
:102E3000931C9AB28B0B940B50F823004E4B1980C5
:102E4000C1F30D034D49C0564B4B51F824101A8065
:102E5000C2F30D03CB5C03F0F80203F00706382A37
:102E600000F24584DFE812F0000443044304430405
:102E70004304430443044304FE0343044304430460
:102E80004304430443044304FC0343044304430452
:102E90004304430443044304FA0343044304430444
:102EA0004304430443044304F80343044304430436
:102EB0004304430443044304F60343044304430428
:102EC0004304430443044304F4034304430443041A
:102ED00043044304430443049600274B27481B88BC
:102EE00001339BB29A0BC3F30D0150F82220224804
:102EF0000380535C03F0F80203F00701382A00F264
:102F00003886DFE812F03006360636063606360614
:102F10003606360636064E033606360636063606BC
:102F2000360636063606FC023606360636063606FF
:102F30003606360636063C013606360636063606B0
:102F4000360636063606EF003606360636063606EE
:102F5000360636063606BB01360636063606360611
:102F6000360636063606A600360636063606360617
:102F7000360636063606840074BD012048A50120B9
:102F8000B4BC012078BD0120A50000200DBD0120AA
:102F900070BD01200621A84B1B78002B50D0029B4E
:102FA0001A7A5B7AA54943EA022303440C68A44ACF
:102FB00099B28B0BC1F30D0052F8232004F11703D3
:102FC0009E4C2360125C029B9B79D00702984CBFF9
:102FD00043F0010323F00103062E83714FEA5200F0
:102FE0001DD0029B9855029B9B7998B1029A23F0C1
:102FF00040039371029B02999A79924B02F06D0201
:103000001B888A718F4A01331380FEF774BD0E4608
:103010000020C0E7029A43F040039371EAE7B1F55C
:10302000804FE0D3B1F5B64F02D2874A0123137027
:103030008B0BC1F30D02824951F823309854D2E72B
:10304000824B1C78002C00F06181029B9A7ADB7A1B
:10305000A8E70E460020784B1B78002B00F0A981D2
:10306000029B1A7A5B7A754943EA022303440C688F
:10307000734A99B28B0BC1F30D0052F8232004F16F
:1030800017036E4C2360125C029B02989B79150615
:103090004CBF43F0010323F001038371530043F05D
:1030A0000100062E84B200F07281029B9855029BAB
:1030B00002989A79664902F0BF032406837154BFCF
:1030C00002F03F0363F07F038B71029B02999A79B0
:1030D0005C4B22F012021B888A715A4A013313801A
:1030E000FEF709BD0E460020534B1B78002B00F065
:1030F000B180029B1A7A5B7A504943EA0223034467
:103100000C684F4A99B28B0BC1F30D0052F8232083
:1031100004F11703494C2360125C029B02989B79CF
:1031200015064CBF43F0010323F00103062E837103
:103130004FEA42006ED0029B9855029B029A9B79FF
:10314000029910F0FE0F14BF23F0400343F0400338
:103150009371029B029A9B7904064CBF63F07F0334
:1031600003F07F039371029B9A79364B22F012028F
:103170001B888A71334A01331380FEF7BCBC0E46AC
:1031800000202D4B1B78002B00F06881029B1A7ADF
:103190005B7A2A4943EA022303440C68284A99B21D
:1031A0008B0BC1F30D0052F8232004F11703234CBD
:1031B0002360125C029B9879C40746BF530843F012
:1031C00080045408D307029A4CBF40F0010320F05A
:1031D0000103062E937100F02F81029B9C55029BE8
:1031E0009B79002C3FD00299194A03F0BF032706B0
:1031F0008B713CD563F07F039371029B02999A799E
:10320000104B22F012021B888A710E4A0133138080
:10321000FEF771BCB1F5804F8FD3B1F5B64F02D236
:10322000094A012313708B0BC1F30D02044951F8B5
:103230002330985481E700BF0DBD012078BD0120E7
:1032400048A5012074BD0120A500002070BD01200B
:10325000B8BC0120994B1C78002C00F00681029B21
:103260009A7ADB7A48E7029A43F040039371029B13
:10327000029A9B7903F07F039371BEE70E4600200C
:103280008F4B1B78002B7BD0029B1A7A5B7A8D497F
:1032900043EA022303440C688B4A99B28B0BC1F3B7
:1032A0000D0052F8232004F11703864C2360125CB2
:1032B000029B9B79D00702984CBF43F0010323F097
:1032C00001038371130646BF530843F08000500882
:1032D000062E44D0029B9855029B9B7908B3029915
:1032E0007A4A03F0BF0307068B711ED563F07F0394
:1032F0009371029B02999A79754B22F012021B88F6
:103300008A71734A01331380FEF7F5BB062913D087
:103310006C4B029A1B686B48525C08332146036071
:1033200051E6029A43F040039371029B029A9B7903
:1033300003F07F039371DCE7029B62491A795B79A2
:103340000C6843EA02218B0B5F4A52F8232004F1F8
:103350000F035C4CC1F30D002360125C33E6B1F542
:10336000804FB9D3B1F5B64F02D25A4A0123137038
:103370008B0BC1F30D02544951F823309854ABE73D
:103380004E4B1C78E4B1029B9A7ADB7A7FE7B1F569
:10339000804FFFF48CAEB1F5B64F02D24D4A0123F7
:1033A00013708B0BC1F30D02474951F82330985429
:1033B0007DE6424B1C7874B1029B9A7ADB7A52E626
:1033C000062913D03F4B029A1B683E48525C0833D3
:1033D000214603606CE706291BD03A4B029A1B6812
:1033E0003848525C0833214603604DE6029B35495C
:1033F0001A795B790C6843EA02218B0B324A52F846
:10340000232004F10F032F4CC1F30D002360125C45
:103410004EE7029B2B491A795B790C6843EA02213B
:103420008B0B294A52F8232004F10F03254CC1F3DA
:103430000D002360125C27E6B1F5804FFFF4CFAE9C
:10344000B1F5B64F02D2234A012313708B0BC1F39F
:103450000D021D4951F823309C54C0E6174B1C78CF
:1034600074B1029B9A7ADB7A93E6062913D0154B46
:10347000029A1B681348525C0833214603604CE6ED
:10348000062929D00F4B029A1B680E48525C08335C
:10349000214603608EE6029B0A491A795B790C6823
:1034A00043EA02218B0B084A52F8232004F10F0350
:1034B000044CC1F30D002360125C2EE670BD0120A8
:1034C0000DBD012078BD012048A50120B8BC012018
:1034D00074BD0120A5000020029BAB491A795B79DD
:1034E0000C6843EA02218B0BA84A52F8232004F10E
:1034F0000F03A54CC1F30D002360125C5AE60E4683
:103500000020A34B1B78002B00F04183029B1A7A0A
:103510005B7A9D4943EA022303440D6899B2880B04
:103520009A4B53F8202005F11703974DC1F30D0472
:103530002B60125D029B9B7903F0010343EA420278
:10354000062E95B276D0029B9A55029B029A9B79E1
:103550000299EF054CBF43F0010323F0010393717F
:10356000029B029A9B7915F0FF0F14BF23F04003D2
:1035700043F040039371029B029A9B792D064CBF46
:1035800063F07F0303F07F039371029B9A79814B71
:1035900022F012021B888A717E4A01331380FEF7E3
:1035A000AABA0E4600207A4B1B78002B00F01C8331
:1035B000029B1A7A5B7A744943EA022303440C683B
:1035C000724A99B28B0BC1F30D0052F8232004F11B
:1035D00017036D4C2360125C029BD0079B7940F16E
:1035E000FD82520842F08000029A43F00103937179
:1035F000062E00F00083029B9855029B9B790028C1
:1036000000F0CC820299644A03F0BF038B7101067B
:1036100040F1C88263F07F039371029B02999A790B
:103620005C4B22F012021B888A715A4A01331380C4
:10363000FEF761BAB1F5804F87D3B1F5B64F02D22C
:10364000564901230B70514B53F820301A557CE733
:10365000062100E5062113E6062145E5062190E551
:1036600006214EE706219EE7002D00F09981029B7E
:103670001A7A5B7A444943EA0223034498B20C68FD
:10368000424A830BC0F30D0152F8232004F11703C3
:103690003D4C2360525C029B150600F177819B79BB
:1036A000520002F0FE01029A23F001039371062EEC
:1036B00000F05A81029B9955029B9B79002957D0B3
:1036C0000298354A03F0BF030C06837154D563F0AA
:1036D0007F039371029B02999A792E4B22F012027A
:1036E0001B888A712B4A01331380FEF704BA062126
:1036F00003F0C002802AC3F3C20779D0C02A4FD09A
:10370000402A7EF4F8A9224B1B78002B00F0988009
:10371000029B1A7A5B7A1C4943EA022303449BB258
:103720000C6819489A0BC3F30D01184B53F822206B
:1037300004F114030360525C42FA07F313F0010F23
:10374000029B029A9B7914BF23F0440343F0440385
:103750009371029B0F4A9B79118823F0020343F077
:1037600010024B1C02998A710A4A1380FEF7C3B9F2
:10377000029A43F040039371029B029A9B7903F0F3
:103780007F039371A6E700BF78BD012048A5012003
:103790000DBD012074BD0120B8BC0120A500002092
:1037A000994B1B78002B6CD0029B1A7A5B7A974955
:1037B00043EA022303440D6899B2880B944B53F8F3
:1037C000202005F11703914DC1F30D042B60125D0C
:1037D000012505FA07F31343062E1AB244D0029BC3
:1037E0009A558C4B8B4A1B8801331380FEF783B9A3
:1037F000854B1B78002B4BD0029B1A7A5B7A83494E
:1038000043EA022303440D6899B2880B804B53F8B6
:10381000202005F117037D4DC1F30D042B60125DCF
:10382000012505FA07F3062E22EA03020FD0029BB8
:103830009A55784B774A1B8801331380FEF75BB9A2
:10384000754B1B785BB3029B9A7ADB7A63E7B1F521
:10385000804FEED3B1F5B64F3CBF704B1D706C4B33
:1038600053F820301A55E4E7B1F5804FB9D3B1F5DC
:10387000B64F3CBF694B1D70654B53F820301A554D
:10388000AFE7654B1B78A3B1029B9A7ADB7A8EE790
:10389000614B1B78F3B1029B9A7ADB7AAFE706297A
:1038A0002AD05A4B029A1B68525C584908330B6065
:1038B00042E70629029B32D05A5C544B1968012317
:1038C000BB401A4301F108035049062E12B20B60A7
:1038D00085D186E7062934D04C4B1868029B595C89
:1038E000012303FA07F221EA0202484900F1080322
:1038F000062E0B609BD19CE7029B44491A795B79A9
:10390000086843EA02239A0BC3F30D01404B53F8B6
:10391000222000F10C033D480360525C0CE71A7949
:103920003A495B790D6843EA0221880B384B53F81A
:10393000202005F10F03354DC1F30D042B60125DFE
:1039400046E7029B31491A795B790D6843EA022107
:10395000880B2F4B53F8202005F10F032B4DC1F39B
:103960000D042B60125D5BE7B0F5804FFFF4A4AE51
:10397000B0F5B64F02D2294A01231370830BC0F36E
:103980000D02234850F82330995495E69979530055
:1039900043F0010241F00103D1B2029A937186E62D
:1039A0001D4B1B78002B00F0CB80029B9A7ADB7AB0
:1039B00060E6184B1C88154B1E68029B9D79631CA2
:1039C0009AB2A31C98B2910B114B53F82110114BD2
:1039D0001A8006F10A030D4EC2F30D023360895CB2
:1039E0000B4A830B6F0652F823200A4B1880C0F352
:1039F0000D03D35C074A01EB03239BB258BFE31CC2
:103A00001380FEF778B800BF0DBD012078BD0120FE
:103A100048A5012074BD012070BD0120A500002033
:103A2000029B9B795B065CD58B4B1C888B4B1D687E
:103A3000631C98B2820B05F10B03A10B884D55F85E
:103A4000211055F82250854A1360C4F30D03C0F3CA
:103A50000D02C95C804B1880AB5C41EA03238149AD
:103A60000B807D4BA21C1A80FEF745B87A4B7D492E
:103A70001B880888794A013B99B2431C7648126832
:103A8000018076480B32B1F5804F026098B20DD3B9
:103A9000B1F5B64F02D2744A012313708B0B704AF2
:103AA000C1F30D0152F82320030A53546A4B1B88BB
:103AB000013B9AB2684BB2F5804F1A800CD3B2F535
:103AC000B64F02D2684901230B70930B6449C2F3CD
:103AD0000D0251F823309854624A00231380FEF7F8
:103AE0000AB85E4B5D491A685E4B05321B880A6056
:103AF0005C4A01331380FDF7FEBF574B1C88574BC0
:103B00001D68631C98B2820B05F10A03A10B544D8A
:103B100055F8211055F82250504A1360C4F30D0394
:103B2000C0F30D02C95C4C4B1880AB5C41EA032327
:103B30004C490B80484BA21C1A80FDF7DCBF0E4697
:103B4000029B46491A795B790C6843EA0220830B91
:103B5000434A52F8232004F10F03404CC0F30D01F7
:103B60002360525C97E5414B187828B10E4600203F
:103B70001BE70E460020BBE50629E0D0374B029A32
:103B80001B68364C525C083323600E4683E5374B86
:103B90001B7873B1029B9A7ADB7ABAE4029A43F0FB
:103BA00040039371029B029A9B7903F07F03937108
:103BB00033E50629029B30D0029A9B79525C274953
:103BC000096803F0010343EA420201F108032349B3
:103BD000062E95B20B607FF4B6ACB6E45008029A9C
:103BE00023F00103937103E5204B1C783CB3029B47
:103BF0009A7ADB7ADFE4B1F5804FFFF4FEACB1F5E1
:103C0000B64F02D2184A012313708B0BC1F30D0279
:103C1000134951F823309854EFE41A790F495B792E
:103C20000D6843EA0221880B0D4B53F8202005F163
:103C30000F030A4DC1F30D042B60125D7AE40629CF
:103C400002F07484054B029A1B680448525C0833E6
:103C500021460360C0E400BFB4BC012078BD012050
:103C600048A5012074BD0120A500002070BD0120E1
:103C7000A44BA54D1C88A54B1968029BD879631CE1
:103C80009BB29A0B073155F822209E4D2B809F4DF9
:103C9000C3F30D032960D35C9D4A1843029BD8717E
:103CA0009379002802F01F8503F0BF03010693718A
:103CB00042F11C8563F07F039371029B029D997909
:103CC000944B1A5C924801F0EC03AB71002A02F0AD
:103CD000058543F0040383718A4AA31C1380FDF712
:103CE0000ABF884B884F1E88884B89481D68029BF5
:103CF000DC79731C9BB29A0BC3F30D0157F8222099
:103D0000804F3B80EB1D814D2B60515C04F00F0216
:103D100001F00F03D31A13F0100F837914BF43F08F
:103D2000100323F01003837181EA0403621A190659
:103D300095B240F1A68084EA02031B0640F1A180FF
:103D4000029B029A9B7943F004039371029B029AAF
:103D50009B796C49EF054CBF43F0010323F001034D
:103D60009371029B029A9B7915F0FF0F14BF23F009
:103D7000400343F040039371029B029A9B792C0607
:103D80004CBF63F07F0303F07F039371029BB21C6F
:103D90009B790A80029A43F002039371FDF7ABBE50
:103DA000584B59481C88029B9D79631C9BB29A0B07
:103DB000A11C50F82200534A1380C3F30D0289B2AC
:103DC000805C514A8B0B52F823204E4B1980C1F373
:103DD0000D034C49D35C00EB032328069EB238D573
:103DE0004D4B4A4A1B881068013BE11C9AB200F116
:103DF000110388B248490A804449B2F5804F0B60EC
:103E00000DD3B2F5B64F02D2444901230B70930B88
:103E1000C2F30D013C4A52F82320030A53543E4B8F
:103E20001B88013B9AB23C4BB2F5804F1A800CD3F1
:103E3000B2F5B64F02D2394901230B70930B3249C8
:103E4000C2F30D0251F8233098542E4B1E80FDF71B
:103E500052BE2E4BE21C1B680A802C4A0A331360A8
:103E6000FDF749BE294B274A1B68284912880433AD
:103E70000B60244901320A80294A01231370FDF79F
:103E80003ABE029B029A9B7923F0040393715DE78B
:103E90001C4B1D4D1C881D4B1968029BD879631C57
:103EA0009BB29A0B073155F82220164D2B80174DE7
:103EB000C3F30D032960D35C154A5840029BD871A7
:103EC0009379002802F0578003F0BF030106937135
:103ED00042F1548063F07F039371029B029D9979B4
:103EE0000C4B1A5C0A4801F0EC03AB71002A00F09D
:103EF000A98043F004038371024AA31C1380FDF7D9
:103F0000FABD00BF74BD012048A5012078BD012085
:103F1000B8BC012008630108B4BC0120A500002042
:103F20009CBC0120834B84481F887B1C9BB29A0B4E
:103F3000C3F30D0150F822207E480380525CA2F1A9
:103F400040037B2B01F2FE87DFE813F0D30FA20FB3
:103F5000450FE00E950E730E660E380E0F0EEC0D2B
:103F60008F0D560D950E340D270D1D0D310C1D0CAA
:103F70007C0CCA0B950E730E020D5F0C9C0B880B0C
:103F80001B0BE20A950E730ED50ACB0A860A720A3B
:103F9000300ACF09950E730E4E050405C604B2040F
:103FA0002304E403950E730ECC0368032403120369
:103FB000B7026802950E730E3C02FC0F1302F1016A
:103FC00096019109950E730E8409FC0FFC0FFC0FEE
:103FD000FC0FFC0FFC0FFC0FFC0FFC0FFC0FFC0F89
:103FE000FC0FFC0FFC0FFC0FFC0FFC0FFC0FFC0F79
:103FF000FC0FFC0FFC0FFC0FFC0FFC0FFC0FFC0F69
:10400000FC0FFC0FFC0FFC0FFC0FFC0F2607CC066F
:104010003509FE08FC0FFC0FFC0FFC0FCE057405E4
:1040200071083A08FC0FFC0FFC0FFC0F73063406F6
:10403000AC077E07FC0FFC0FFC0FFC0F3D01FE00E0
:10404000A300800021F01703837155E7029B1A79C2
:104050005B7943EA0224A30B3749384D51F82330EA
:104060000299C4F30D0249789A5C029B18780EF00D
:10407000B7FC029B1B78621E013B94B2029ADBB232
:104080001370002B30D02E4B2D4A1B681533136054
:10409000E1E7029B1A795B79012743EA0225B5F52E
:1040A000804F4FEA9533C5F30D060DD3B5F5B64FE6
:1040B0003CBF244A1770029A517810781E4A52F871
:1040C000234009F0BFFEA055029B1C4C1B786A1EC2
:1040D000013B95B2029ADBB21370C3B1184B184A78
:1040E0001B6815331360DAE7154BAA791968114B71
:1040F0006C711B88200A42F042022871AA71104894
:104100000C4A1031013301601380FDF7F4BC0C4BF5
:10411000A2791968074B65711B88280A42F0420290
:104120002071A2710648034A1031013301601380E7
:10413000FDF7E1BC74BD012048A50120B8BC0120F9
:1041400078BD0120A5000020029B029A9B7915787A
:10415000547810795179029ED27923F04003B371DB
:1041600044EA052541EA002197B202F00F068B0BC5
:10417000A248C1F30D0250F823309A5C02F00F03FD
:10418000F41ABB1A9AB2029B681E9B7985B2E006AC
:1041900002984CBF43F0100323F010038371029B7D
:1041A00097489B790139140689B240F1CC86029A6E
:1041B00063F07F039371934B002D3FD01B68914AAE
:1041C00015331360D3E7029B02995C781D789A78C7
:1041D000DB780879497944EA052C43EA0222CCEBE2
:1041E000020341EA002E9EB274464FF00108A30B71
:1041F0008249C4F30D0051F82310B2F5804F04F149
:10420000FF33085C02F1FF374FEA92359CB2C2F3EC
:104210000D0109D3B2F5B64F3CBF7B4B83F800804C
:10422000764B53F825305854BAB2964200F0A9861E
:10423000744B74491B6815330B60D8E71A68029BEE
:1042400059710B0A02990B716E4B0D7010324D7043
:104250001A60029B029A9B7923F004039371029BDC
:1042600002999A79694B42F002021B888A71674A67
:1042700001331380FDF73FBC6549029B0E8802990C
:104280001A7988795F495B790968039143EA0225C5
:1042900000F00101C6F30B030B44C5F30B029C189D
:1042A000AA19039B1144574A0F331360E404544A7C
:1042B0004CBF40F0100320F01003937185EA060311
:1042C000DB0B4FD185EA01031B044BD5029B029AFD
:1042D0009B7943F004039371029A0B0A1371517195
:1042E000474A9379CD034CBF43F0010323F0010308
:1042F00093718BB2002B2ED0029B029A9B7923F0F4
:1043000040039371029B029A9B790C044CBF63F0AB
:104310007F0303F07F039371029B3C499B79BA1C96
:104320000A80029A23F002039371FDF7E4BB354B38
:10433000029A1B6802990298324CD2794978007827
:104340000C3323600EF04CFB304B304A1B8801339A
:104350001380FDF7D0BB029B029A9B7943F0400388
:104360009371CFE7029B029A9B7923F00403937128
:10437000B2E7244B029A1B6851781078214A0C331B
:10438000136009F05FFD029B1D4AD871937950B309
:1043900003F0BF030506937128D563F07F03937183
:1043A000029B029C99791B4B1A5C154801F0FD0396
:1043B000A371A2B143F004038371144ABB1C1380A0
:1043C000FDF799BB0F4B11491A68BB1C0B800D49B7
:1043D00008320A60104A01231370FDF78CBB21F0EC
:1043E00006038371E9E743F040039371029B029A4D
:1043F0009B7903F07F039371D2E700BF48A50120AA
:10440000B8BC012078BD0120A500002074BD0120AA
:10441000B4BC01200863010810BC0120BB1C9AB287
:10442000FB1C99B2A848930B8C0B50F82300A74BA8
:104430001A80C2F30D03A44A52F82440C25CA34B75
:104440001980C1F30D03A249E35C086802EB032362
:1044500099B29F4A00F11403B1F5804F136027D33E
:10446000B1F5B64F02D29B4A0123137096488B0BCD
:10447000C1F30D0250F8233097480088985445F650
:10448000FE23994202DC934A012313704A1C92498D
:10449000931308888C49C2F30D0251F82310030AC4
:1044A0008B548A4B894A1B8801331380FDF723BB49
:1044B00043F6FF739942F4D1E5E78749029B0E88E2
:1044C00002991A795B798879814943EA022509685A
:1044D0000391C5F30B02C6F30B03D31A00F00101DD
:1044E0005C1AAA1B039B511A794A0F331360E40428
:1044F0007A4A4CBF40F0100320F01003937186EA13
:1045000005031B0475D585EA01031C0471D5029BC4
:10451000029A9B7943F004039371029A0B0A137178
:1045200051716E4A9379C8034CBF43F0010323F0E5
:10453000010393718BB2002B54D0029B029A9B799A
:1045400023F040039371029B9B790A04029A5F490E
:104550004CBF63F07F0303F07F039371029BBA1C8F
:104560009B790A80029A43F002039371FDF7C3BA64
:10457000574B029A1B68564C517810780C33002226
:1045800023600EF02DFA514B504A1B8801331380E3
:10459000FDF7B1BA4E4B029A1B68517810784C4A1D
:1045A0004E4C0C33136009F04DFCA379024658B30E
:1045B00003F0BF030506A37129D563F07F03A37140
:1045C000029B029C9979464B44489A5C01F0FD039A
:1045D000A371AAB143F0040383713C4ABB1C13804E
:1045E000FDF789BA029B029A9B7943F040039371CD
:1045F000A9E7029B029A9B7923F0040393718CE74D
:1046000021F006038371E8E743F04003A371029BA6
:1046100002999B7903F07F038B71D1E7029B02998A
:104620001A79C8795B792A490F6843EA02218B0B12
:10463000254AC1F30D0552F82340665D00F00F03D3
:10464000234843EA0612B1F5804F07F11203D2B2B4
:10465000036006D3B1F5B64F02D21E4901230B7099
:104660006255029B1D4ADB7923F00F0343EA1613C0
:1046700058B2029BC1B2D9719379002946D143F057
:1046800040039371029B029A9B790028B4BF63F0A8
:104690007F0303F07F039371114B5B5C002B2ED0E3
:1046A000029B029A9B7943F004039371029B029947
:1046B0009A79064B22F012021B888A71034A013351
:1046C0001380FDF718BA00BF48A5012074BD012072
:1046D00078BD0120A5000020B4BC0120B8BC012099
:1046E00008630108934B94491A68BB1C0B809149DD
:1046F00008320A60914A00231370FDF7FCB9029B4F
:10470000029A9B7923F004039371CFE723F04003CF
:104710009371B7E7BB1C9AB2FB1C99B28848884DCD
:10472000930B8C0B50F82300834B1A80C2F30D03BC
:10473000834AC05C804B52F824401980C1F30D03BA
:10474000804AE35C127800EB032398B2002A70D011
:10475000784A411C1768820B8B13C1F30D0455F87E
:104760002210744A55F8236007F114031360C0F354
:104770000D03325DCB5C029903EB02239BB21A0A54
:104780004B720A726C4B6C4A1B8801331380FDF725
:10479000B2B9684B02991A68029B897918795B79DA
:1047A000644D694C43EA00200F3201F001032A6096
:1047B00003EB400503054CBF41F0100321F010034B
:1047C000A37180EA050313F4004F029B029A9B79C0
:1047D00014BF43F0040323F004039371029A2B0ADD
:1047E00013715571584A9379E9034CBF43F00103A3
:1047F00023F001039371ABB2002B38D0029B029AD5
:104800009B7923F040039371029B4B499B792A04C7
:10481000029A4CBF63F07F0303F07F039371029B06
:10482000BA1C9B790A80029A23F002039371FDF768
:1048300062B9464B1B78411C03B33E4A1768820B92
:104840008B13C1F30D0455F822103A4A55F8236032
:1048500007F114031360C0F30D03325DCB5C0299C2
:1048600003EB02239BB21A0ACB728A728AE7029B7D
:10487000029A9B7943F040039371C5E72D4A17686C
:10488000820B8B13C1F30D0455F82210294A55F8F9
:10489000236007F110031360C0F30D03325DCB5C9E
:1048A000029903EB02239BB21A0A4B710A7169E762
:1048B000204B029A1B68029902981E4C5279497843
:1048C00000780C3323600EF08BF81B4B1A4A1B88C0
:1048D00001331380FDF70FB9164B029A1B6851780C
:1048E0001078144A0C33136009F0ACFA029B164A94
:1048F00058719379002800F0888003F0BF03010607
:10490000937140F1858063F07F039371029B029C59
:1049100099790F4B1A5C0C4801F0FD03A371002A32
:104920006FD043F004038371034ABB1C1380FDF76F
:10493000E2B800BF78BD012074BD012010BC012089
:1049400048A501200DBD0120B8BC012070BD01208B
:1049500008630108029B90481A795B7907680299FD
:1049600043EA0220830B8D4AC97952F82340C0F3F1
:104970000D0501F00F01665D320942EA0112864918
:1049800007F11203B0F5804F0B6006D3B0F5B64FB8
:1049900002D2834901230B706255029B8149DB7966
:1049A00006F00F0223F00F031A43029BDA718B7992
:1049B000002A3BD143F040038B717B4B9B5C002B67
:1049C0002DD0029B029A9B7943F004039371029BC2
:1049D00002999A79754B22F012021B888A71734AE8
:1049E00001331380FDF787B86B4B70491A68BB1C05
:1049F0000B80694908320A606D4A00231370FDF785
:104A00007AB821F0060383718EE743F04003937177
:104A1000029B029A9B7903F07F03937176E7029BD6
:104A2000029A9B7923F004039371D0E723F04003AB
:104A30008B71C2E7029B58491A795B790868029921
:104A400043EA0225AB0B554ACC7952F823200E7865
:104A500000F110035048C5F30D010360535C029A46
:104A60005078E21A03F00F0104F00F0394B24D4A9C
:104A70005B1A13F0100F937914BF43F0100323F067
:104A800010039371029B9B792206029A4CBF63F03C
:104A90007F0303F07F0340EA062193716B1E0298A7
:104AA0009BB24A1E91B21A0A02713E4A43710B0A26
:104AB000037041709379002940F0C48323F004030C
:104AC0009371029B9B79002C61D1029A43F04003C1
:104AD0009371029B35499B79BA1C0A80029A43F074
:104AE00002039371FDF707B8029B2B491A795B7992
:104AF0000F68029943EA0225AB0B284A8E7852F8D8
:104B00002300029BC9781A7807F11003224F3B60FB
:104B1000029BC5F30D0441EA06215B78005DB1F507
:104B2000804F43EA02240CD3B1F5B64F02D21C4A9F
:104B3000012313708B0B194EC1F30D0256F823306D
:104B400098546A1E631E013994B2029A89B298B2CF
:104B5000D1700B0A02995070220A0A71114A8B70A7
:104B6000030A0B704C719379002840F06F8323F097
:104B700004039371029B02999A790C4B22F0120262
:104B80001B888A71094A01331380FCF7B4BF029A6B
:104B900023F0400393719CE778BD012048A50120D4
:104BA000A5000020B8BC01200863010874BD0120E5
:104BB00010BC0120029B029A9B79157854781079D9
:104BC0005179029ED27923F04003B37144EA05255E
:104BD00041EA002197B202F00F068B0BAC48C1F3FB
:104BE0000D0250F823309A5C02F00F03F41ABB1A3E
:104BF0009AB2029B681E9B7985B2E00602984CBF70
:104C000043F0100323F010038371029BA1489B79AA
:104C10000131140689B240F15182029A63F07F0398
:104C200093719D4B002D3FD01B689B4A1533136039
:104C3000D3E7029B02995C781D789A78DB78087933
:104C4000497944EA052C43EA02220CEB020341EACB
:104C5000002E9EB274464FF00108A30B8C49C4F39A
:104C60000D0051F82310B2F5804F04F10103085CE8
:104C700002F101074FEA92359CB2C2F30D0109D34C
:104C8000B2F5B64F3CBF854B83F80080804B53F89C
:104C900025305854BAB2964200F02D827E4B7E49A0
:104CA0001B6815330B60D8E71A68029B59710B0A11
:104CB00002990B71784B0D7010324D701A60029B87
:104CC000029A9B7923F004039371029B02999A79CB
:104CD000734B42F002021B888A71714A01331380C0
:104CE000FCF709BF029B6C491A795B790868029945
:104CF00043EA0225AB0B664ACC7952F823200E78A2
:104D000000F110036448C5F30D010360535C029A7F
:104D10005078E21A03F00F0104F00F0394B25D4AD9
:104D20005B1A13F0100F937914BF43F0100323F0B4
:104D300010039371029B029A9B7940EA0621200698
:104D40004CBF63F07F0303F07F0393716B1C0298E9
:104D50009BB24A1E91B21A0A02714E4A43710B0A63
:104D6000037041709379002940F0B78223F0040367
:104D70009371029B9B79002C61D1029A43F040030E
:104D80009371029B46499B79BA1C0A80029A43F0B0
:104D900002039371FCF7AFBE029B3F491A795B791E
:104DA0000F68029943EA0225AB0B394A8E7852F814
:104DB0002300029BC9781A7807F11003364F3B6035
:104DC000029BC5F30D0441EA06215B78005DB1F555
:104DD000804F43EA02240CD3B1F5B64F02D22F4ADA
:104DE000012313708B0B2A4EC1F30D0256F82330AA
:104DF00098546A1C631E013194B2029A89B298B227
:104E0000D1700B0A02995070220A0A71214A8B70E4
:104E1000030A0B704C719379002840F0628223F0F2
:104E200004039371029B02999A791D4B22F012029E
:104E30001B888A711A4A01331380FCF75CBE029A00
:104E400023F0400393719CE7029B1A795B7943EA54
:104E50000224A30B0E490F4D51F823300299C4F3DD
:104E60000D0249789A5C029B18780DF0B9FD029BFF
:104E70001B78621C013B94B2029ADBB21370002BC8
:104E80003BD0054B044A1B6815331360E1E700BFB4
:104E900048A50120B8BC012078BD0120A500002054
:104EA00074BD0120029B1A795B79012743EA022530
:104EB000B5F5804F4FEA9533C5F30D060DD3B5F523
:104EC000B64F3CBF9B4A1770029A517810789A4AA5
:104ED00052F8234008F0B6FFA055029B974C1B7870
:104EE0006A1C013B95B2029ADBB21370C3B1944BBA
:104EF000934A1B6815331360DAE7914BAA79196856
:104F0000904B6C711B88200A42F042022871AA71F2
:104F10008B488C4A1031013301601380FCF7EBBDE4
:104F2000874BA2791968874B65711B88280A42F064
:104F300042022071A2718248824A1031013301601D
:104F40001380FCF7D8BD03F07F04029B9C71002AFC
:104F50007FF431A97A4B41711A6845700B0A0371CD
:104F6000774B02F11001196044F040022B0A827164
:104F70000370002D3FF46DA944F044038371FFF7E3
:104F80006EB96F4A02981468029A029D91796D4A2F
:104F9000C670CCEB0E0312889BB2300A21F01601CA
:104FA0006B71A8701B0A6648A97166492B71103491
:104FB0000023013204600A802B706B70FCF79BBDEC
:104FC000029B5F491A795B790C68029943EA0225D2
:104FD000AB0B594A497852F8232004F11003584C7E
:104FE000C5F30D002360029B125C1878534C0DF042
:104FF000F7FC029B029A1B78013BDBB21370002B7B
:1050000053D1A37943F04003A371029A0298917996
:105010004C4A6B1E9BB2128843711B0A0371494BA9
:1050200041F00201013281711A80FCF764BD029ADD
:10503000434B117952791B6842EA0125404A1033EB
:10504000B5F5804F136011D3B5F5B64F02D2394A8A
:1050500001231370029AAB0B51781078364A52F83C
:10506000234008F0EFFEC5F30D03E054029B3348E4
:1050700019786B1E9AB24B1ED9B2029B5A71130A51
:10508000029A137111708379A1B943F040038371BF
:10509000029B02999A792B4B42F002021B888A717B
:1050A000284A01331380FCF726BDA37923F040037F
:1050B000A371AAE723F040038371E9E703F07F04BB
:1050C000029B9C71002A7FF4ACAD1D4B41711A68A4
:1050D00045700B0A03711A4B02F11001196044F07C
:1050E00040022B0A82710370002D3FF4E8AD44F0BA
:1050F00044038371E9E5124A02981468029A029DFA
:105100009179104AC6700CEB0E0312889BB2300ADC
:1051100021F016016B71A8701B0A0948A971094991
:105120002B7110340023013204600A802B706B70E5
:10513000FCF7E1BCA500002048A50120B8BC012077
:1051400078BD012074BD0120029B91491A795B79D9
:105150000C68029943EA0225AB0B8E4A497852F853
:10516000232004F110038A4CC5F30D002360029B39
:10517000125C1878884C0DF033FC029B029A1B7865
:10518000013BDBB21370002B53D1A37943F04003F2
:10519000A371029A02989179804A6B1C9BB2128883
:1051A00043711B0A03717D4B41F002010132817191
:1051B0001A80FCF7A0BC029A754B117952791B68D2
:1051C00042EA0125724A1033B5F5804F136011D3BE
:1051D000B5F5B64F02D2724A01231370029AAB0B97
:1051E000517810786B4A52F8234008F02BFEC5F333
:1051F0000D03E054029B684819786B1C9AB24B1E51
:10520000D9B2029B5A71130A029A137111708379F1
:10521000A1B943F040038371029B02999A795F4BD5
:1052200042F002021B888A715C4A01331380FCF74A
:1052300062BCA37923F04003A371AAE723F04003E3
:105240008371E9E743F0040393713AE443F0040304
:1052500093718FE44E4B51491A68BB1C0B804C492B
:1052600008320A604F4A02231370FCF744BCBB1C8F
:1052700047489AB204684748930BF91C50F823003A
:10528000464B1A8004F11403414CC2F30D02236013
:1052900089B2805C3F4A3F4C8B0B3E1D52F8232065
:1052A0003E4B1980C1F30D03D35C00EB032399B28D
:1052B000481C8B0B821354F8225054F82340C0F33F
:1052C0000D02C1F30D03AA5CE35C344903EB022336
:1052D000354A0E801380FCF70EBC43F00403937133
:1052E00047E543F0040393719CE5BB1C28489AB240
:1052F000FB1C99B205682748930B50F82340274BB5
:105300001A8005F11403224D880B2B60214BC2F348
:105310000D0253F82000214BA45C1980029AC1F3BE
:105320000D031179C25C029B5B7904EB022243EA14
:10533000012390B21CB2B0F5804FA5B223D3B0F5D3
:10534000B64F02D2164A01231370830B114AC0F3E1
:105350000D0152F8232045F6FE239842545402DCF6
:105360000F4A01231370431C9A13C3F30D01094B19
:1053700053F822202B0A5354084B084A1B88013348
:105380001380FCF7B8BB43F6FF739842F4D1E7E70C
:1053900078BD012048A50120B8BC012074BD0120C2
:1053A000A500002010BC0120B4BC0120029AA54B2E
:1053B00092791B68A34CA44942F300000F33C50443
:1053C00023604CBF42F0100322F010038B71029B4C
:1053D000029A9B7923F0040393719B4B9A4A0293A0
:1053E000C4034FEA10235071137165D5937943F0CC
:1053F0000103937183B2002B57D0029B029A9B79D1
:1054000023F040039371029B029A9B798F49000419
:105410004CBF63F07F0303F07F039371029BBA1CC0
:105420009B790A80029A43F002039371FCF763BBF5
:10543000844B029A1B6802990298824C127949782F
:1054400000780C3323600DF0CBFA804B7F4A1B8829
:1054500001331380FCF74FBB7A4B029A1B685178DB
:105460001078784A0C33136008F0ECFC029B764A03
:105470001871937958B303F0BF030106937129D5CE
:1054800063F07F039371029B029C9979704B1A5CC5
:105490006D4801F0FD03A371AAB143F004038371C9
:1054A0006A4ABB1C1380FCF726BB029B029A9B79BD
:1054B00043F040039371A6E7029B029A9B7923F085
:1054C0000103937196E721F006038371E8E743F047
:1054D00040039371029B029A9B7903F07F039371BF
:1054E000D1E7584B59491B68BA1C0A80554A093301
:1054F0001360FCF700BB534B54491A68BB1C0B806C
:10550000504908320A60534A02231370FCF7F3BA79
:10551000BB1C4C489AB204684F48930BF91C50F8D6
:1055200023004A4B1A8004F11403464CC2F30D02C7
:10553000236089B2805C484A474C8B0B3E1D52F871
:105540002320424B1980C1F30D03D35C00EB0323EE
:1055500099B2481C8B0B821354F8225054F8234004
:10556000C0F30D02C1F30D03AA5CE35C374903EB02
:1055700002239BB20E8002991A0ACB708A70FCF744
:10558000BABA029B2F4D1C7959799A780298DB7828
:105590002D688079039543EA022641EA0425C5F384
:1055A0000B02C6F30B03134400F001015C18AA19A7
:1055B000039B1144234A0F331360E304224A4CBF78
:1055C00040F0100320F01003937185EA0603DB0B13
:1055D00040F0318185EA01031D0440F12C81029BDA
:1055E000029A9B7943F004039371029A0B0A137198
:1055F0005171154A9379CC034CBF43F0010323F05A
:10560000010393718BB2002B00F00E81029B029A72
:105610009B7923F040039371029B029A9B790804C3
:105620004CBF63F07F0303F07F039371029B074934
:105630009B79BA1C0A80029A23F002039371FCF74B
:105640005ABA00BF78BD0120B8BC012074BD01204A
:105650000863010810BC012048A50120A94B029A4B
:105660001B6802990298A74CD278497800780C33CD
:1056700023600DF0B5F9A44BA34A1B8801331380B6
:10568000FCF739BA9F4B029A1B68517810789D4AF3
:105690000C33136008F0D6FB029B9C4AD8709379B8
:1056A000002800F04B8103F0BF030106937140F125
:1056B000488163F07F039371029B029C9979944B1C
:1056C0001A5C924801F0FD03A371002A00F01681D4
:1056D00043F0040383718C4ABB1C1380FCF70BBAA4
:1056E000BB1C88489AB2FB1C99B205688948930B89
:1056F00050F82340844B1A8005F11403814D880B28
:105700002B60844BC2F30D0253F820007E4BA45C47
:105710001980029AC1F30D039178C25C029BDB7879
:1057200004EB022243EA012390B21CB2B0F5804F91
:10573000A5B223D3B0F5B64F02D2774A0123137036
:10574000830B744AC0F30D0152F8232045F6FE2363
:105750009842545402DC704A01231370431C9A137C
:10576000C3F30D016B4B53F822202B0A5354664BA5
:10577000654A1B8801331380FCF7BDB943F6FF73FC
:105780009842F4D1E7E75F4B029A1B6802990298AE
:105790005C4C9278497800780C3323600DF020F946
:1057A000594B594A1B8801331380FCF7A4B9554B58
:1057B000029A1B6851781078524A0C33136008F033
:1057C00041FB029B514A98709379002800F0D180E8
:1057D00003F0BF030506937140F1CE8063F07F03B1
:1057E0009371029B029C9979494B1A5C474801F0DE
:1057F000FD03A371002A00F0B88043F00403837115
:10580000414ABB1C1380FCF776B93E4B029A1968DB
:10581000424B1B78D37101F109033B49BA1C0A8042
:10582000384A1360FCF767B9029B029A9B7943F0F0
:1058300040039371F0E6029B029A9B7923F00403E4
:105840009371D2E6029B2F4D1C7959799A78029870
:10585000DB782D688079039543EA022641EA042526
:10586000C5F30B02C6F30B03D31A00F001015C1A57
:10587000AA1B039B511A234A0F331360E404234AE3
:105880004CBF40F0100320F01003937186EA05032B
:105890001B044CD585EA01031D0448D5029B029ADE
:1058A0009B7943F004039371029A0B0A13715171AF
:1058B000164A9379CC034CBF43F0010323F0010354
:1058C00093718BB263B3029B029A9B7923F04003DE
:1058D0009371029B029A9B7908044CBF63F07F038B
:1058E00003F07F039371029B07499B79BA1C0A80DE
:1058F000029A43F002039371FCF7FDB821F006030E
:105900008371E8E678BD012074BD0120B8BC012098
:105910000863010848A50120A5000020141F0020ED
:10592000029B029A9B7943F040039371D1E7029B5B
:10593000029A9B7923F004039371B5E743F0400387
:105940009371029B029A9B7903F07F039371B3E6F4
:10595000A94BAA491A68BB1C0B80A74908320A60E8
:10596000A74A01231370FCF7C6B821F00603837120
:1059700046E743F040039371029B029A9B7903F040
:105980007F0393712DE79C4B9C491B68BA1C0A80CE
:10599000994A09331360FCF7AEB8974B97491A68D8
:1059A000BB1C0B80944908320A60954A002313708F
:1059B000FCF7A1B8934B1C888F4B1D68631C98B2F1
:1059C000820B05F10E03A10B8F4D55F8211055F8F0
:1059D0002250894A1360C4F30D03C0F30D02C95C61
:1059E000884B1880AB5C41EA032384490B80854BCC
:1059F000A21C1A80FCF77FB8BB1C7F489AB20468CF
:105A00008148930BF91C50F823007C4B1A8004F159
:105A10001403794CC2F30D02236089B2805C7A4A88
:105A2000794C8B0B3E1D52F82320744B1980C1F327
:105A30000D03D35C00EB032399B2481C8B0B82133C
:105A400054F8225054F82340C0F30D02C1F30D0363
:105A5000AA5CE35C694903EB02230E809BB20299C6
:105A60001A0A4B700A70FCF746B8029B624D1C790B
:105A700059791A7802985B782D688079039543EA02
:105A8000022641EA0425C5F30B02C6F30B031344B7
:105A900000F001015C18AA19039B1144564A0F3308
:105AA0001360E304594A4CBF40F0100320F0100388
:105AB000937185EA0603DB0B50D185EA01031C04D0
:105AC0004CD5029B029A9B7943F004039371029A8E
:105AD0000B0A137151714D4A9379C8034CBF43F0BF
