:020000040800F2
:1000000000000220353701087B3701087D370108E1
:100010007F3701088137010883370108000000009D
:10002000000000000000000000000000853701080B
:1000300087370108000000008937010851C800080F
:100040008F37010891370108933701089537010868
:1000500097370108993701089B3701089D37010838
:100060009F370108A1370108A337010855FA000896
:10007000A7370108A9370108AB370108AD370108D8
:10008000AF370108ADFA0008B3370108B5370108EA
:10009000B7370108B9370108BB37010881190108D2
:1000A000BF370108C1370108C3370108C537010848
:1000B000C1F10008C9370108CB370108E1FA00088F
:1000C000CF370108D1370108D3370108D5370108E8
:1000D000D7370108D937010865C80008DD3701089E
:1000E000DF370108E1370108E3370108E537010888
:1000F000E7370108E9370108EB370108ED37010858
:10010000EF37010859E00008F3370108F537010817
:10011000F7370108F9370108FB370108FD370108F7
:10012000FF370108013801080338010839E00008E9
:1001300007380108093801080B3801080D38010893
:100140000F380108113801081338010839E4000894
:1001500017380108193801081B3801081D38010833
:100160001F38010821380108233801082538010803
:1001700027380108293801082B3801082D380108D3
:100180002F3801083138010810B5054C237833B9F0
:10019000044B13B10448AFF300800123237010BD5A
:1001A0003801002000000000E8800108084B10B56D
:1001B0001BB108490848AFF300800848036803B939
:1001C00010BD074B002BFBD0BDE81040184700BF07
:1001D000000000003C010020E880010834010020FC
:1001E00000000000154B002B08BF134B9D46A3F5E4
:1001F000803A00218B460F461348144A121A13F016
:10020000CAFF0F4B002B00D098470E4B002B00D09D
:1002100098470020002104000D000D48002802D05E
:100220000C48AFF3008013F0D1FE2000290000F04D
:1002300013F813F00DFB00BF0000080000000220BF
:100240000000000000000000380100200CC4012064
:1002500000000000000000002DE98048D3B00DF040
:100260005FFEBD4B9A6802F00C02042A0AF08A83F2
:10027000082A0AF06C83B94BB94A1A60B64EB94FD6
:10028000B168B94CB94ADFF818C3B948B94DC1F3E0
:1002900003114FF0C808795C1F68CCF8008027FA7A
:1002A00001F18F09A4FB0774A409196004F1FF3E52
:1002B0000721F02400270523C2F804E085F8234035
:1002C0009760116003608DF85270336C4FF080447A
:1002D00043F001033364238823F45C731B044FF061
:1002E00001081B0CD1222380E1622285A4F814802E
:1002F000A3899BB243EA0803A3811C220F2310A801
:100300008DF840208DF841308DF842308DF84380D3
:100310000CF01EFC2288984B92B242EA080222801E
:100320001A68B2F5E13F0AF005834FF4E1321A6032
:10033000336B924D43EA08033363336B43EA08039C
:100340003363336C04F5003443F400333364236ABD
:1003500023F470632362236A43F4E0632362236A15
:1003600023F470432362236A022143F4E0432362AF
:100370000322204604238DF8441010A98DF845204F
:1003800010938DF846708DF847800CF08DFB204659
:10039000082310A910930CF087FBAB896FEA434345
:1003A0006FEA53439BB2AB812B8A23F440531B0467
:1003B0001B0C2B82AB899BB223F4B05323F00C03AC
:1003C00043F00C03AB81AB8A23F440731B041B0C7A
:1003D000AB8212A80CF01CFBAA89149B674812F48C
:1003E000004F03EB8303664A03EB8303A2FB032363
:1003F00014BF5A0C9A0C634BA3FB02418489480931
:10040000642100FB1121020120040AF18982090103
:100410003231A3FB0113C3F3431343EA0201574BE9
:10042000594A89B21981998989B241F40051998157
:10043000136843F02003136000242623012512A82B
:100440008DF848308DF849408DF84A408DF84B5072
:100450000CF07EFB474B4D4ADA6031238DF84B5050
:100460008DF849408DF84A408DF8483012A80CF0BC
:100470006FFB9DF84B303B2101228DF848108DF821
:100480004920002B4AF01181414B4FF00062C3F824
:100490008420314D3F4C2B6B3F4F43F00C032B63BB
:1004A000636A23F00F036362636A43F00C036362C1
:1004B000636A23F0F0036362636A43F0C00363621C
:1004C000636A23F470636362636A43F44063636244
:1004D000636A23F470436362636A43F44043636274
:1004E000636A23F470236362636A43F440236362A4
:1004F0003B6A23F470633B623B6A43F440633B62B4
:100500004FF4706202232046002612A94FF0010822
:1005100012928DF84D308DF84C308DF84E608DF87C
:100520004F800CF0C1FA3846042312A912930CF044
:10053000BBFA20464FF4805312A912938DF84F60F6
:100540000CF0B2FA6B6C154843F400636B642B6BD0
:1005500043F480032B6325E0003802407000002044
:100560000024F40060000020632D3E0510E000E050
:100570001400002000ED00E02C2100200044004089
:10058000C5B3A2911F85EB510C4400400006FA054B
:1005900000E100E000080240000C0240D45F0108C6
:1005A000740000200CF012FA434B444918689F88ED
:1005B0000C901A4653F8080F0E9052F8100F9C88B2
:1005C0009388ADF844300A683D4BADF834709A42D8
:1005D000ADF83C40109049F0DA875523F022022113
:1005E00012A88DF849308DF8482012F03DFE0346E0
:1005F00000280AF0CC81334B07931B68002B09F0CD
:10060000C087314E0BAD3368022B0CBF2F483048EA
:100610000CF0DCF92F4F3B68002B40F0FE82DFF836
:10062000C490DFF8C4B0DFF8C4801C469A4612A814
:10063000C5F80090CDF830B0CDF848900BF0C0FB75
:10064000031E4FF000020CA9284651DB58F8236026
:100650000EB186F800A00C9E0EB186F800A00C9E8C
:1006600048F823600CF09CFA032806460AF007813C
:1006700000280AF0FA80184B05931B68174AD868BF
:10068000174914F089FE731E122B0AF2E480DFE88A
:1006900013F03D510F510551494D36032D032403ED
:1006A0001B03EE02E5023700DC021203090300031C
:1006B000F702D302CA02D850BC5F01081806002016
:1006C000801A060008B80120A0A501200C600108CE
:1006D000246001081C060020240100209460010809
:1006E0009C6001085460010860030020382100204C
:1006F000BD4B05931B68BD4ABD49D86814F04CFE3C
:10070000059BBC481B682022DB68012114F0A4FE75
:10071000DFF8FCA2B84CDAF83030DFF8F882B74DD9
:10072000B74EB84F43F001034FF00009CAF830301C
:100730004FF0010B2046C02312A912938DF84CB044
:100740008DF84D908DF84E908DF84F900CF0ACF9DF
:10075000402323834FF080032383DAF8303043F0C3
:100760000403CAF830304FF40054404612A98DF803
:100770004CB012948DF84D908DF84E908DF84F90AE
:100780000CF092F9A04BA8F81A40C3F80090DAF8E0
:10079000303043F01803CAF830304FF2B3732846B4
:1007A00012A912934FF003038DF84D304FF6807865
:1007B0008DF84C908DF84F900CF076F9304612A9D8
:1007C000CDF848800CF070F9DAF8303043F0780357
:1007D000CAF830304CF233734FF0030228461293BC
:1007E00012A94FF002038DF84D208DF84C308DF892
:1007F0004E908DF84F900CF057F92B6A23F00F03B1
:100800002B622B6A43F00C032B622B6A23F0F0035C
:100810002B622B6A43F0C0032B622B6A23F47023F4
:100820002B622B6A43F440232B622B6A23F4700360
:100830002B622B6A43F440032B626B6A23F00F0395
:100840006B626B6A43F00C036B626B6A23F0F0031C
:100850006B626B6A43F0C0036B626B6A23F4706374
:100860006B626B6A43F440636B626B6A23F0706384
:100870006B626B6A43F040636B626B6A23F0704398
:100880006B626B6A43F040436B62304612A9CDF84D
:1008900048800CF009F9336A23F070433362336AFD
:1008A00043F040433362736A23F00F037362736A49
:1008B00043F00C037362736A23F0F0037362736A8C
:1008C00043F0C0037362736A23F470637362736AE4
:1008D00043F440637362736A23F470437362736A10
:1008E00043F440437362736A23F470237362736A40
:1008F00043F440237362736A23F470037362736A70
:1009000043F440037362736A23F070637362736A23
:1009100043F040637362736A23F070437362736AD7
:1009200043F040437362284612A912940CF0BCF8BD
:100930006B6A364E23F470036B626B6A43F44003B8
:100940006B622846802312A912930CF0ADF82B6A33
:1009500023F070432B622B6A43F040432B62DAF89A
:1009600038304FF0204143EA0B040F200D2241F2B2
:100970001003CAF8384012901492CDF84C90CDF87C
:100980005490CDF85890CDF85C90CDF860900B6005
:10099000129B0393039A189B139D149C1698134360
:1009A00043EA0513159A43EA042343EA0243179ADC
:1009B00043EA005343EA02626FF070434A603360D7
:1009C0000B684FF0C04443EA0B030B6014200BF09C
:1009D0001FFFA4F800B00A200BF01AFFCB232380DE
:1009E00039224FF02C0317E0240100209460010805
:1009F0009C6001080462010800000240000C0240F3
:100A0000001002400000086074250020040100A0CE
:100A100000380240000802403A804FF0C10B3B8092
:100A20003421CF2030254FF0E80E85264FF0780C8A
:100A3000EA234FF00202A7F800904FF0ED0A398048
:100A40004FF0F7083A80122120808122A7F8009009
:100A50006420A7F800B03D80A4F800E03E80A7F82D
:100A60000090A7F800C023804FF0200C4FF0030344
:100A7000A7F800904FF0230EA7F800901026A4F8D6
:100A800000A0C52538803B803E20398086233A80EF
:100A90002821A4F80080C722A7F800C04FF0C00C9E
:100AA000A4F800C04FF0B60AA7F800E04FF008081D
:100AB000A4F800B03E804FF0180B2580F226388055
:100AC000B125398022803B800EF0F0FE55224FF098
:100AD000820C4FF0270E3A23112123800A203A80FE
:100AE0002580A7F80090A7F800B0A4F800A0A7F808
:100AF0000080A7F800C0A7F800E02680A7F80090C3
:100B000021800BF085FE292323804846EF210EF03B
:100B100003FF484640F23F110EF0EAFE4FF02C036F
:100B20002380394648464FF4A073F022013A0880EA
:100B30004FF00004FAD1013BF7D1754A754D92E8A8
:100B40000300744A85F8414082E80300012272499B
:100B50007248C5F8843085F8893085F8884085F872
:100B6000402013F001F90546002800F006816C4F83
:100B70002A464FF4807112A812F0FEFF002800F000
:100B8000F780232112A815F031F8044600280AF056
:100B9000B0820023037012A815F048F80028E7D0AF
:100BA000431E12A90B44C01A1A78093AD2B227FA86
:100BB00002F1172A01F0010204D882F00101002A93
:100BC0004AF0A1823D2112A815F010F80346002832
:100BD000CED000220270534912A85C1C14F0E8FF2A
:100BE0000028C5D0504912A814F0E2FF064600289C
:100BF0000AF090824D4912A814F0DAFF002849F05B
:100C0000A0844B49204614F0D3FF002849F08D847E
:100C1000404A012382F84030AAE7464B46480593F4
:100C200014F08CFF74E5059B44481B682222DB68A6
:100C3000012114F011FC6BE5059B41481B682A2239
:100C4000DB68012114F008FC62E5059B3D481B6848
:100C50001822DB68012114F0FFFB59E5059B3A4897
:100C60001B682222DB68012114F0F6FB50E5059B8E
:100C700036481B682122DB68012114F0EDFB47E5B3
:100C8000059B33481B683B22DB68012114F0E4FB21
:100C90003EE5059B2F481B684122DB68012114F0CB
:100CA000DBFB35E5059B2C481B682422DB68012112
:100CB00014F0D2FB2CE5059B28481B681D22DB683D
:100CC000012114F0C9FB23E5059B25481B68272259
:100CD000DB68012114F0C0FB1AE5059B21481B6865
:100CE0003922DB68012114F0B7FB11E5059B1E4892
:100CF0001B681C22DB68012114F0AEFB08E5059B94
:100D00001A481B681A22DB68012114F0A5FBFFE4D6
:100D100088630108B0A5012090630108946301086D
:100D200013008000A0630108A8630108AC630108F8
:100D3000B8630108240100205860010838630108E5
:100D40000C63010828620108E0610108BC61010828
:100D5000D06201088C6201086462010844620108E3
:100D60009461010858610108386101081C6101089B
:100D70000DF052FF284612F0D1FDB04BD3F884207D
:100D800012B90122C3F884208022AC49AC4814F087
:100D900055FF12F04FF812F0F3F8A84BD3F8843057
:100DA000DD0752D5A74CA848236B43F00203236309
:100DB0000025802312A912938DF84C508DF84F50C6
:100DC0000BF072FE616CA14AA14B41F48041616459
:100DD000D16821F47041D160D16841F48051D16073
:100DE000196821F080011960596821F0800159606B
:100DF000196841F080011960996821F080019960BB
:100E0000D96821F08001D960D2F80C3443F0800316
:100E1000C2F80C3410A8012317228DF841308DF848
:100E200042308DF843308DF840200BF091FE236B5B
:100E3000854843F00203236312A940238DF84C50E8
:100E40008DF84F5012930BF02FFE7C4BD3F884306B
:100E50009C0709F17F81794BD3F884305C0724D556
:100E60000024784B139412941A6B7A4F7A4842F00C
:100E70001402FF261A6301253E833F2312A98DF831
:100E80004C408DF84D4012938DF84F500BF00CFEF6
:100E9000384612A912968DF84C508DF84E508DF8A8
:100EA0004F408DF84D400BF0FFFD6C4B0493DFF885
:100EB00004B26B4B03936B4B6A491B68002B40F0E9
:100EC000CF82694B684A1B68002B40F0DA83674B7E
:100ED0001B78002B40F08A80654B1878002840F082
:100EE0008580644A644B11881B78644A614D118087
:100EF000614A002B62D0624B614C1B78002B5DD0A5
:100F000010708B0B5F4A207052F82320C1F30D0341
:100F1000D35C584A762B04BF4B1C2B805A4B10884D
:100F20001B88013B9AB2584BB2F5804F1A800DD303
:100F3000B2F5B64F02D2554901230B70930BC2F3A1
:100F40000D01504A52F82320030A53544E4B1B887C
:100F5000013B9AB24C4BB2F5804F1A800CD3B2F5DC
:100F6000B64F02D2494901230B70930B4549C2F396
:100F70000D0251F823309854454B1B78012B40F259
:100F8000C081022B1AD1434B434A1B7816683D4C53
:100F90001902481C82138B0B54F8225054F823403A
:100FA000C0F30D023C4806F11303C1F30D010360C9
:100FB000AA5C635C03EB02232E4A13802D4B1A8834
:100FC00040F262539A420AF09A8140F2C2439A4236
:100FD0000AF0AA80314B1B7803F0FF02002B0AF0C5
:100FE000F3802F4B1B68002B49F05186214B254C79
:100FF00019882C4B18688B0BC1F30D0254F8233061
:101000009C5C002878D043F6FE43994209F05A834D
:1010100043F6FF4399426FD1234B1B68002B09F025
:101020004983224B224A1B682049D25C0133802B22
:101030000B6008BF0023D2B23EE000BFB0A5012084
:101040000CBD01200038024000040240003801407D
:10105000003C014000080240001002400040001027
:10106000786501206022002028210020F8BC0120A2
:101070008DBD012008BD012035BC01202EBC012002
:101080005802002090A5012048BC012091000020BA
:1010900034BC01204821002090BD012078000020B0
:1010A00058210020FCBC0120402100201406002013
:1010B00094050020ACBC012008BF0B6072B60C4B3D
:1010C0000B491B68013B0B6062B69BF806308BF83E
:1010D000072043F001030D2A8BF806300CD1054B95
:1010E0005B6803F5E1521C322023137004E000BF5B
:1010F0004021002090A50120FF2C09F29583DFE814
:1011000014F02B4B5D4B064169441E44C643A74374
:1011100032431743D942BE4298424D42F541C7413E
:10112000994179414E412A4127467545C345564567
:101130000D45F544B7448F442E47E3468B466C4635
:101140007F475447AF47A540F63BAC3B4F3B223B64
:10115000AD3A8F3ADF3990391A39D0387338473879
:1011600028380A38E337A937153F843EDB3D683D10
:10117000013DE33CA73C6C3C0540BA3F623F433F26
:101180004C402340234023402340234023407A37D0
:1011900023404F374F374F374F374F374F37303662
:1011A0004F3705360536053605360536053694368D
:1011B000053640354035403540354035403586357B
:1011C00040356B356B356B356B356B356B35823236
:1011D0006B3566326632663266326632663251335B
:1011E0006632EA32EA32EA32EA32EA32EA32DD32B0
:1011F000EA32B432B432B432B432B432B432DA3461
:10120000B432AB33AB33AB33AB33AB33AB33273469
:10121000AB33E731E731E731E731E731E73124310B
:10122000E731E92FE92FE92FE92FE92FE92F833063
:10123000E92FF32EF32EF32EF32EF32EF32E2D2E75
:10124000F32ED52DD52DD52DD52DD52DD52D6A2FD8
:10125000D52D7B2D7B2D7B2D7B2D7B2D7B2DEC2C84
:101260007B2DFE2BFE2BFE2BFE2BFE2BFE2B592C5B
:10127000FE2B832B832B832B832B832B832BDD2A2A
:10128000832BAC2A7F2A552A2728B92770271227B3
:10129000CB26952673264926A3213421D9207420F4
:1012A0002D20FC1FCF1FA51F861F241FDB1E6D1EB8
:1012B000261E001ECD1DA31D861D141D031D9E1C74
:1012C000051CD01B9E1B741B051BA31A221AE919AF
:1012D00087194F193B191119F51893180708BF07FB
:1012E000780752072507FB06D90677062706F1057A
:1012F00097055F0546051D050F05AF049F044304D0
:101300000F01054B04491B6803F10D020A60034AF3
:10131000382313805EE600BF90BD012008BD012088
:10132000A74BA8491B880888A74A013B99B2431CD0
:10133000A34812680180A4480B32B1F5804F0260C7
:1013400098B20DD3B1F5B64F02D2A04A0123137063
:101350008B0B9F4AC1F30D0152F82320030A53540B
:10136000974B1B88013B9AB2954BB2F5804F1A8080
:101370000CD3B2F5B64F02D2944901230B70930BF4
:101380009349C2F30D0251F8233098548D4A382303
:101390001380904B1B7813B98F4B1B785BB18F4B2D
:1013A0008E4A1B78002B00F048828A4900230B707C
:1013B000894913700B708A4B834A1B6812688249F3
:1013C00013F0030F40F29F2318BF4FF428739A4283
:1013D000FFF471AD834804688348D0F88400D31AC1
:1013E0000B60410704F10A0500F138827E4BD3F807
:1013F00084309A0702D500200CF07CFB079B1B6809
:1014000073B17A4B1968002940F02482784B784AEE
:101410001B680133642B136002D111600DF05EFF75
:10142000714BD3F88C30002B00F00A82714B1D6099
:101430006B4B6C491A686F4B1B680B60531C684AF6
:10144000642B136011467FF436AD00220A606A4AAD
:101450006A4901231370694B1B68002B3FF431ADBF
:10146000674B67481B780133DBB20022102B0370F7
:101470000A6007D1634B02701B78624AB3FA83F3A8
:101480005B091370604B1B682BB1604B1A78604B83
:101490001B789A4228D05E4B5E4A1B78002132F8B6
:1014A0001340009408460F2340F23F120CF072FBE9
:1014B000CF231F221021002000940CF06BFBCF23C0
:1014C00040F23F1210214FF4907000940CF062FB38
:1014D000DF2340F23F120094D02100200CF05AFB91
:1014E0004B4B4A4A1B781370454B1B7823B1374B43
:1014F0001B78002B3FF4E5AC4FF480430693069B2A
:10150000BDF818809B1003F03801069BC3F302223C
:101510005B1103F0C0030A431A43D3085B0103F5D0
:10152000B04902F1100A20273B4B1B68002B09F041
:10153000E480039AC8F30D03D65C384B03931A4634
:101540003149C9F30D030968D25C39B1344B4344C6
:10155000A3F580431B78B34209F0D880304B434455
:10156000A3F5804311061E7009F1E080C2F3C205A5
:1015700002F00704530605D505F1080204F108033B
:10158000D5B2DCB2514650460EF0C6F9F91D3846C8
:101590000EF0AEF94FF0C0422C23138080210822B8
:1015A0001C4B20480E4214BF33F8143033F815306A
:1015B0000380531E9AB24908002AF1D134E000BFDB
:1015C00048BC012008BD012090BD012091000020F1
:1015D00090A50120F8BC01208DBD0120A8BC0120F0
:1015E0007022002074220020B0A5012018B801202C
:1015F0007C2200205401002058020020602200209C
:10160000782200205C220020A4A5012010000020E8
:101610004ABC01201865010860250020786501207A
:101620002409002000000860083708F1010209F1D0
:101630000103B7F5907F1FFA82F81FFA83F97FF450
:1016400073AF069B2033B3F5B04F06937FF457AFCB
:101650009B4B9C4A19689C4B9C48002914BF11461F
:1016600019464FF4407212F08BFD994901220A602D
:10167000984A00231370984B974A1B68002B3FF43D
:1016800026AC002495499648146012F06DFB07467D
:1016900000280AF035838DF825408DF826408DF816
:1016A000274011F06DFC8F49384611F045FB8E49FB
:1016B000384611F041FB8D49384611F03DFB8C490D
:1016C000384611F039FB8B49384611F035FB8A4911
:1016D000384611F031FB8949384611F047FB8849FB
:1016E000384611F043FB8749384611F025FB0DF1D0
:1016F0002701384611F020FB0DF12501384611F085
:101700001BFB9DF82530FF2B0AF0E38203F020033A
:1017100003F0FF02002B4AF0048315469DF82530A4
:10172000794A7A49C3F342033846137011F004FB37
:101730007749384611F000FB7649384611F0FCFA3B
:101740007549384611F0F8FA7449384611F0F4FA40
:101750007349384611F0F0FA7249384611F0ECFA44
:101760007149384611F0E8FA7049384611F0E4FA48
:101770006F49384611F0E0FA6E49384611F0DCFA4C
:101780006D49384611F0D8FA6C49384611F0D4FA50
:101790006B49384611F0D0FA0DF12601384611F0A8
:1017A000CBFA9DF82630002B0AF01C82654A0123F3
:1017B00013706549384611F0BFFA0DF1260138461D
:1017C00011F0BAFA4D4A9DF8263014885F4A03F0AA
:1017D00003031370002C09F07E83D5B94FF48044C5
:1017E00001250DF12601384611F0A6FAB4F5B64FE1
:1017F00038BF38489DF8262038BF0570A30B5448E1
:10180000C4F30D0150F823300134B4F5803F5A542D
:10181000E7D13A4B4F4A1B8813804F4B00241C7072
:101820004E4B1C704E4B1C704E4B38461C6012F0D9
:1018300075F84D4B1C70FFF74ABB01231370BAE5D6
:101840004A4B1B689D427FF6F3AD484B1B689D4297
:10185000F6D8EDE501200DF09BFDE1E5444B444C4D
:101860001B68FBB1012B7FF4C1AD424B1B69DBB29E
:1018700003F0200203F03F0102F0FF030AB93E4AE1
:1018800013703E4B1A68184661F01F033C498B5495
:10189000531C082B0360364A04BF00230360002357
:1018A0001360A3E5354B37481B68012101FA03F3A8
:1018B000DB43DAB2FF2343830283216096E500BF56
:1018C00060250020787D01200058001020060020AF
:1018D000A4A501209100002028210020F463010824
:1018E0005C210020B3BC0120B2BC0120ADBC0120B2
:1018F000ACBC0120B1BC0120B0BC012008BD01205E
:1019000048BC0120482100204ABC0120AFBC012076
:10191000AEBC01203DBC01203CBC01203FBC0120ED
:101920003EBC012041BC012040BC012043BC012041
:1019300042BC0120B7BC0120B6BC0120B5BC0120CF
:10194000B4BC012035BC01205421002034BC01204E
:1019500090A501202EBC0120A8BC0120F8BC0120CC
:101960008DBD012090BD01205802002054010020AF
:101970003C2100200010024078000020502100206F
:101980005825002000080240A04BA14F1E88A14B03
:101990009BF807401D68A048731C9BB29A0BC3F3C9
:1019A0000D0157F82220994F3B80EB1D994D2B607C
:1019B000515C04F00F0201F00F03D31A13F0100F63
:1019C000837914BF43F0100323F01003837181EA7D
:1019D0000403621A1B0695B23BD584EA02031F0674
:1019E00037D59BF8063043F004038BF806309BF89C
:1019F00006308649EC054CBF43F0010323F0010398
:101A00008BF806309BF8063015F0FF0F14BF23F05B
:101A1000400343F040038BF806309BF8063028065D
:101A20004CBF63F07F0303F07F038BF806309BF815
:101A30000630B21C43F002030A808BF80630A8E49B
:101A4000724B72491B885A1C0A80744A0123137016
:101A5000A5E49BF8063023F004038BF80630C6E7B4
:101A60006A4B6B481C889BF80650631C9BB29A0B10
:101A7000A11C50F82200654A1380C3F30D0289B2FD
:101A80008B0B805C624A52F82320604B1980C1F3B3
:101A90000D035E49D35C2A0600EB03239EB237D5C3
:101AA0005F4B5C4A1B881068013BE11C9AB200F155
:101AB000110388B25A490A805649B2F5804F0B602B
:101AC0000DD3B2F5B64F02D2564901230B70930BDA
:101AD000C2F30D014E4A52F82320030A5354504BCF
:101AE0001B88013B9AB24E4BB2F5804F1A800CD343
:101AF000B2F5B64F02D24B4901230B70930B444908
:101B0000C2F30D0251F823309854404B1E8040E43C
:101B1000404BE21C1B680A803E4A0A33136038E4DB
:101B20003C4B3A4A1B683B49128804330B603749E7
:101B300001320A803C4A012313702AE4334B9BF89C
:101B400006501C88334B1E68631C9AB2A31C98B2C3
:101B5000910B2F4B53F821102C4B1A8006F10A03DE
:101B60002C4EC2F30D023360895C294A830B52F874
:101B70002320264B1880C0F30D03D35C234A01EBCE
:101B8000032329069BB258BFE31C138001E4274BB3
:101B90001B78002B00F087801E4B9BF808101A68FA
:101BA0009BF809300A3243EA01231A490A601C4AA9
:101BB0001380164B154A1B8801331380FFF7E9BBCE
:101BC0009BF80630180679D5154B1C88114B1D68FB
:101BD000631C98B2820B05F10B03A10B0C4D55F859
:101BE000211055F822500B4A1360C4F30D03C0F3C3
:101BF0000D02C95C0A4B1880AB5C41EA0323034920
:101C00000B80074BA21C1A80FFF7C3BB08BD012045
:101C100090A5012090BD0120ACBC01208DBD01200C
:101C200048BC01209100002035BC0120F8BC0120F7
:101C3000A84BA9491B880888A84A013B99B2431CB4
:101C4000A44812680180A5480B32B1F5804F0260AC
:101C500098B20DD3B1F5B64F02D2A14A0123137049
:101C60008B0BA04AC1F30D0152F82320030A5354F1
:101C7000984B1B88013B9AB2964BB2F5804F1A8065
:101C80000CD3B2F5B64F02D2954901230B70930BDA
:101C90009449C2F30D0251F8233098548E4A3023F0
:101CA0001380FFF776BB904B1B789BB18B4B9BF857
:101CB0000A101A689BF80B300A3274E7874B874981
:101CC0001A68854B05321B880A60834A01331380EA
:101CD000FFF75FBB814B9BF804101A689BF8053037
:101CE000063260E77C4B7F4D1C887C4B9BF80700DD
:101CF0001968631C9BB29A0B073155F82220764D68
:101D00002B80764DC3F30D032960D35C774A1843CB
:101D10008BF807009379002860D003F0BF03050615
:101D200093715ED563F07F039371714B9BF806103E
:101D30001A5C6E4801F0EC038BF80630002A49D09B
:101D400043F004038371644AA31C1380FFF721BB93
:101D5000604B9BF807101B889BF806205F4842EAFF
:101D60000122013B5B49006814B29AB20A805B49C8
:101D700000F10B03B2F5804FA0B20B600DD3B2F5AA
:101D8000B64F02D2564901230B70930BC2F30D01DB
:101D9000544A52F82320030A53544E4B1B88013BEC
:101DA0009AB24C4BB2F5804F1A800CD3B2F5B64FB5
:101DB00002D24B4901230B70930B4A49C2F30D0227
:101DC00051F823309C54444B434A1B880133138001
:101DD000FFF7DFBA21F017038371B4E743F0400344
:101DE00093719BF8063003F07F038BF806309CE775
:101DF000394B3C481C889BF80650631C9BB29A0BDD
:101E0000A11C50F82200344A1380C3F30D0289B29A
:101E10008B0B805C334A52F823202F4B1980C1F37F
:101E20000D032F06D35C2C4900EB03239EB238D45C
:101E3000284B2A4A1B881068013BE11C9AB200F12A
:101E4000110388B223490A802449B2F5804F0B6000
:101E50000DD3B2F5B64F02D2214901230B70930B7B
:101E6000C2F30D011F4A52F82320030A5354194BA1
:101E70001B88013B9AB2174BB2F5804F1A800CD3E6
:101E8000B2F5B64F02D2164901230B70930B1549D8
:101E9000C2F30D0251F8233098540F4B1E80FFF708
:101EA00078BA0E4BE21C1B680A800C4A0A33136096
:101EB000FFF76FBA094B084A1B68084912880433B8
:101EC0000B60054901320A800A4A00231370FFF7AC
:101ED00060BA00BF48BC012008BD012090BD0120B0
:101EE0009100002090A501208DBD0120ACBC0120F7
:101EF0003865010835BC01207E4B9BF806501C88D4
:101F00007D4B1E68631C9AB2A31C98B2910B7B4B4D
:101F100053F82110774B1A8006F10A03764EC2F36C
:101F20000D023360895C754A830B52F82320714B94
:101F30001880C0F30D03D35C6E4A01EB032329061E
:101F40009BB248BFE31C1380FFF723BA6C4B1D887C
:101F5000694B1C68674B1F886B1C98B2A90B04F176
:101F60000A03664C820B54F82140644951F8226000
:101F7000614A1360C5F30D03C0F30D01E25C604BD1
:101F80001880735C42EA03231BB2C3F307208BF86B
:101F900006305B4B8BF80700A91C1980554B7A1C47
:101FA0001A80FFF7F6B99BF8063018065CD4544B3C
:101FB0001C88514B1D68631C98B2820B05F10B0302
:101FC000A10B4E4D55F8211055F822504A4A136086
:101FD000C4F30D03C0F30D02C95C494B1880AB5C20
:101FE00041EA032343490B80454BA21C1A80FFF7AB
:101FF000D0B9434B3F491B8808883F4A013B99B2FF
:10200000431C3F48126801803B480B32B1F5804FBA
:10201000026098B20DD3B1F5B64F02D2394A01230E
:1020200013708B0B354AC1F30D0152F82320030ABC
:102030005354334B1B88013B9AB2314BB2F5804F5E
:102040001A800CD3B2F5B64F02D22E4901230B7081
:10205000930B2A49C2F30D0251F823309854254AB4
:1020600028231380FFF795B9234B23491A68214B86
:1020700005321B880A601F4A01331380FFF789B9B4
:102080001C4B1E4D1C881C4B9BF807001968631CD9
:102090009BB29A0B073155F82220164D2B80164D16
:1020A000C3F30D032960D35C174A58408BF807002F
:1020B0009379002802F0AD8003F0BF030506937109
:1020C00042F1AA8063F07F039371104B9BF80610D6
:1020D0001A5C0D4801F0EC038BF80630002A00F082
:1020E000A78043F004038371024AA31C1380FFF707
:1020F00050B900BF08BD012090BD012090A501206E
:1021000048BC012091000020ACBC012038650108CA
:10211000854B86481F887B1C9BB29A0BC3F30D012D
:1021200050F8222080480380525CA2F140037B2BB0
:1021300002F25680DFE813F02A10F90F990F340FDE
:10214000E90EC70EBA0E8D0E620E3F0EDF0DA50D05
:10215000E90E830D760D6C0D260D050DA20C4F0CAE
:10216000E90EC70E200B030BD70AC30A600A260A22
:10217000E90EC70E0B0A010AF80BE40B9E0B3B0B92
:10218000E90EC70E77062A06FC05E8054C080C0880
:10219000E90EC70EF4079F075A073607D7068806C9
:1021A000E90EC70E990954106F094D09F108C109CC
:1021B000E90EC70EB40954105410541054105410A2
:1021C00054105410541054105410541054105410EF
:1021D00054105410541054105410541054105410DF
:1021E00054105410541054105410541054105410CF
:1021F000541054105410541080052105CF04950438
:102200005410541054105410680309030004C603FA
:102210005410541054105410AA025D02C801A401B5
:10222000541054105410541045010201A4008000B1
:1022300021F01703837157E79BF804209BF80530C2
:1022400043EA0224A30B39499BF8000051F82330DC
:102250009BF80110364DC4F30D029A5C10F002FD9C
:102260009BF80030013B621EDBB294B28BF8003069
:10227000002B33D02F4B2F4A1B6815331360E1E737
:102280009BF804209BF80530012743EA0225B5F5A9
:10229000804F4FEA9533C5F30D060FD3B5F5B64F12
:1022A00038BF254A9BF8011038BF17701F4A9BF8AA
:1022B000000052F823400CF073FDA0559BF800304D
:1022C0001B4C013B6A1EDBB295B28BF80030C3B1E8
:1022D000184B184A1B6815331360D8E7154BAA79B9
:1022E0001968114B6C711B88200A42F04202287158
:1022F000AA7110480C4A1031013301601380FFF7B6
:1023000048B80C4BA2791968074B65711B88280ADD
:1023100042F042022071A2710648034A1031013393
:1023200001601380FFF735B808BD012090A501209A
:10233000ACBC012090BD0120910000209BF806302C
:102340009BF807209BF800509BF801409BF8040085
:102350009BF8051023F040038BF8063044EA05256E
:1023600041EA002197B202F00F068B0BC248C1F37D
:102370000D0250F823309A5C02F00F03F41ABB1AD6
:10238000681E9AB29BF8063085B2E0064CBF43F057
:10239000100323F0100301398BF80630140689B2BC
:1023A000B6489BF8063040F1E38063F07F038BF87A
:1023B0000630B34B002D43D01B68B14A1533136070
:1023C000D3E79BF801409BF803309BF800509BF843
:1023D00002209BF804009BF8051044EA052C43EA10
:1023E0000222CCEB020341EA002E9EB274464FF06B
:1023F0000108A30BA049C4F30D0051F82310B2F556
:10240000804F04F1FF33085C02F1FF374FEA923549
:102410009CB2C2F30D0109D3B2F5B64F3CBF994B44
:1024200083F80080944B53F825305854BAB2964242
:1024300000F0BB80924B92491B6815330B60D8E7C4
:102440001A688BF805100B0A8BF804308C4B8BF84C
:10245000005010328BF801501A609BF8063023F0C0
:1024600004038BF806309BF80620874B42F00202EB
:102470001B888BF80620844A01331380FEF789BF3E
:102480009BF804209BF8053043EA0224A30B7A4909
:102490009BF8000051F823309BF80110774DC4F3EE
:1024A0000D029A5C10F0DEFB9BF80030013B621CD1
:1024B000DBB294B28BF80030002B33D0704B704AF3
:1024C0001B6815331360E1E79BF804209BF8053087
:1024D000012743EA0225B5F5804F4FEA9533C5F34E
:1024E0000D060FD3B5F5B64F38BF664A9BF80110FD
:1024F00038BF1770604A9BF8000052F823400CF078
:102500004FFCA0559BF800305C4C013B6A1CDBB2D1
:1025100095B28BF80030C3B1594B594A1B6815333B
:102520001360D8E7564BAA791968574B6C711B8812
:10253000200A42F042022871AA715148524A1031D1
:10254000013301601380FEF724BF4D4BA279196857
:102550004D4B65711B88280A42F042022071A2711E
:102560004748494A1031013301601380FEF711BF1B
:1025700003F07F048BF80640002A7FF41AAF404B2B
:1025800041711A6845700B0A03713D4B02F110014D
:10259000196044F040022B0A82710370002D3FF451
:1025A0005CAF44F0440383715DE7354A9BF8061045
:1025B0001468354A8BF80360CCEB0E0312889BB28B
:1025C000300A21F016018BF805308BF802001B0A47
:1025D0002B488BF806102C498BF80430103400235C
:1025E000013204600A808BF800308BF80130FEF76E
:1025F000D0BE9BF806309BF807209BF800509BF854
:1026000001409BF804009BF8051023F040038BF871
:10261000063044EA052541EA002197B202F00F0690
:102620008B0B1548C1F30D0250F823309A5C02F071
:102630000F03F41ABB1A681E9AB29BF8063085B2D3
:10264000E0064CBF43F0100323F0100301318BF878
:102650000630140689B209489BF8063040F1C08163
:1026600063F07F038BF80630054B002D4DD01B68BF
:10267000034A15331360D3E790A50120ACBC0120B9
:1026800090BD01209100002008BD01209BF8014071
:102690009BF803309BF800509BF802209BF8040045
:1026A0009BF8051044EA052C43EA02220CEB0203D6
:1026B00041EA002E9EB274464FF00108A30BC349B5
:1026C000C4F30D0051F82310B2F5804F04F101035B
:1026D000085C02F101074FEA92359CB2C2F30D018A
:1026E00009D3B2F5B64F3CBFB94B83F80080B74B66
:1026F00053F825305854BAB2964200F08E81B54B4B
:10270000B4491B6815330B60D8E71A688BF80510BD
:102710000B0A8BF80430AF4B8BF8005010328BF85B
:1027200001501A609BF8063023F004038BF8063042
:102730009BF80620A84B42F002021B888BF806206B
:10274000A54A01331380FEF724BE9BF804209BF8B2
:102750000530A0499BF8074008689BF8006043EAF1
:102760000225AB0B994A52F8232000F11003994837
:10277000C5F30D010360535C9BF80100E21A03F0FE
:102780000F0104F00F0394B2944A5B1A13F0100F78
:10279000937914BF43F0100323F0100393719BF857
:1027A000063022064CBF63F07F0303F07F0340EA4C
:1027B00006218BF806306B1E9BB24A1E91B21A0A94
:1027C0008BF80420854A8BF805300B0A8BF8003013
:1027D0008BF801109379002940F0C78123F004039E
:1027E00093719BF80630002C67D143F040038BF8BF
:1027F00006309BF806307849BA1C43F002030A8081
:102800008BF80630FEF7C5BD9BF804209BF8053019
:1028100070499BF802600F689BF8031043EA022599
:10282000AB0B6A4A52F823009BF8002007F1100313
:10283000684FC5F30D043B6041EA06219BF8013067
:10284000005DB1F5804F43EA02240CD3B1F5B64FD9
:1028500002D25F4A012313708B0B5C4EC1F30D0251
:1028600056F8233098546A1E631E013994B289B217
:10287000220A98B28BF804200B0A584A8BF80230CF
:10288000030A8BF800308BF801008BF803108BF8EB
:1028900005409379002840F06C8123F00403937184
:1028A0009BF806204C4B22F012021B888BF8062066
:1028B000494A01331380FEF76CBD23F040038BF8C7
:1028C000063096E79BF804209BF80530414943EA1F
:1028D00002250C683D4A9BF80110AB0BC5F30D00B7
:1028E00052F8232004F110033A4C2360125C9BF849
:1028F00000003A4C10F0B6F99BF80030013BDBB217
:102900008BF80030002B58D1A37943F04003A3711A
:102910006B1E314A9BF8061012889BB28BF805306B
:102920001B0A8BF804302C4B41F0020101328BF86A
:1029300006101A80FEF72DBD264B9BF805209BF84C
:1029400004101B6842EA0125224A1033B5F5804F76
:10295000136012D3B5F5B64F02D21D4A012313708E
:10296000AB0B1A4A9BF801109BF8000052F8234069
:102970000CF016FAC5F30D03E0549BF8001017484D
:102980006B1E9AB24B1ED9B2130A8BF804308BF827
:1029900005208BF800108379A1B943F040038371BF
:1029A0009BF806200C4B42F002021B888BF8062095
:1029B000094A01331380FEF7ECBCA37923F04003EE
:1029C000A371A5E723F040038371E9E790A50120F7
:1029D0009100002090BD012008BD0120ACBC012069
:1029E00003F07F048BF80640002A7FF43DAEC14B14
:1029F00041711A6845700B0A0371BE4B02F1100158
:102A0000196044F040022B0A82710370002D3FF4DC
:102A100089AE44F0440383718AE6B64A9BF80610F7
:102A20001468B54A8BF803600CEB0E0312889BB256
:102A3000300A21F016018BF805308BF802001B0AD2
:102A4000AC488BF80610AC498BF8043010340023E6
:102A5000013204600A808BF800308BF80130FEF7F9
:102A600098BC9BF804209BF80530A24943EA022554
:102A70000C68A24A9BF80110AB0BC5F30D0052F88D
:102A8000232004F110039B4C2360125C9BF8000090
:102A90009B4C10F0E7F89BF80030013BDBB28BF861
:102AA0000030002B58D1A37943F04003A3716B1C75
:102AB000914A9BF8061012889BB28BF805301B0ACE
:102AC0008BF804308C4B41F0020101328BF8061078
:102AD0001A80FEF75EBC874B9BF805209BF804101C
:102AE0001B6842EA0125834A1033B5F5804F136015
:102AF00012D3B5F5B64F02D2824A01231370AB0B45
:102B00007E4A9BF801109BF8000052F823400CF01D
:102B100047F9C5F30D03E0549BF8001078486B1C8F
:102B20009AB24B1ED9B2130A8BF804308BF80520E9
:102B30008BF800108379A1B943F0400383719BF8AF
:102B400006206D4B42F002021B888BF806206A4A71
:102B500001331380FEF71DBCA37923F04003A3715A
:102B6000A5E723F040038371E9E743F00403937181
:102B700037E643F00403937192E69BF804209BF838
:102B800005305C499BF8074008689BF8006043EA01
:102B90000225AB0B594A52F8232000F11003554887
:102BA000C5F30D010360535C9BF80100E21A03F0CA
:102BB0000F0104F00F0394B2514A5B1A13F0100F87
:102BC000937914BF43F0100323F0100393719BF823
:102BD000063040EA062120064CBF63F07F0303F075
:102BE0007F038BF806306B1C9BB24A1E91B21A0A07
:102BF0008BF80420424A8BF805300B0A8BF8003022
:102C00008BF801109379002940F08D8423F00403A0
:102C100093719BF80630002C67D143F040038BF88A
:102C200006309BF806303449BA1C43F002030A8090
:102C30008BF80630FEF7ADBB9BF804209BF80530FF
:102C40002C499BF802600F689BF8031043EA0225A9
:102C5000AB0B2A4A52F823009BF8002007F110031F
:102C6000244FC5F30D043B6041EA06219BF8013077
:102C7000005DB1F5804F43EA02240CD3B1F5B64FA5
:102C800002D2204A012313708B0B1C4EC1F30D029C
:102C900056F8233098546A1C631E013194B289B2ED
:102CA000220A98B28BF804200B0A154A8BF80230DE
:102CB000030A8BF800308BF801008BF803108BF8B7
:102CC00005409379002840F0338423F00403937186
:102CD0009BF80620084B22F012021B888BF8062076
:102CE000054A01331380FEF754BB23F040038BF8F1
:102CF000063096E790BD012008BD012090A5012077
:102D0000ACBC012091000020B04BB04C1B689BF87C
:102D100005209BF801109BF800000C3323600FF096
:102D2000A1FFAB4BAA4A1B8801331380FEF731BBCE
:102D3000A64BA64A1B689BF801109BF800000C33B9
:102D400013600CF02DF8A34A8BF805009379002846
:102D500000F0298603F0BF030106937140F1268637
:102D600063F07F0393719C4B9BF806101A5C9948A3
:102D700001F0FD038BF80630002A61D043F0040314
:102D80008371934ABB1C1380FEF703BB9BF804209E
:102D90009BF805308D489BF80710076843EA02202E
:102DA000830B8E4AC0F30D0552F82340665D01F097
:102DB0000F01320942EA0112844907F11203B0F50A
:102DC000804F0B6006D3B0F5B64F02D28449012381
:102DD0000B7062559BF807307E4923F00F0306F015
:102DE0000F021A438BF807208B79002A40F0EE85FA
:102DF00043F040038B71784B9B5C002B00F0DE8529
:102E00009BF8063043F004038BF806309BF806204D
:102E10006F4B22F012021B888BF806206C4A01339C
:102E20001380FEF7B6BA694B69491A68BB1C0B8060
:102E3000664908320A606B4A00231370FEF7A9BA8C
:102E400021F0060383719CE7BB1C9AB2FB1C99B26C
:102E50006248930B8C0B50F823005D4B1A80C2F331
:102E60000D035E4A52F82440C25C594B1980C1F3ED
:102E70000D035649E35C086802EB032399B2534AF9
:102E800000F11403B1F5804F136027D3B1F5B64FAD
:102E900002D2534A0123137050488B0BC1F30D0229
:102EA00050F8233050480088985445F6FE23994244
:102EB00002DC4B4A012313704A1C4B4993130888C8
:102EC0004649C2F30D0251F82310030A8B54404BBC
:102ED0003F4A1B8801331380FEF75BBA43F6FF734A
:102EE0009942F4D1E5E740499BF804209BF805306E
:102EF0000E8836499BF806000968069143EA0225C8
:102F0000C5F30B02C6F30B03D31A00F001015C1AE0
:102F1000AA1B069B511A2D4A0F331360E4042D4A55
:102F20004CBF40F0100320F01003937186EA0503B4
:102F30001B0440F18B8085EA01031C0440F186806C
:102F40009BF8063043F004038BF80630214A8BF8D7
:102F500005100B0A8BF804309379C8034CBF43F07B
:102F6000010323F0010393718BB2002B67D09BF810
:102F7000063023F040038BF806309BF806300A0435
:102F80004CBF63F07F0303F07F038BF806309BF8A0
:102F900006300F49BA1C43F002030A808BF8063052
:102FA000FEF7F7B9094B094C1B689BF801109BF819
:102FB00000000C33002223600FF054FE044B044A3F
:102FC0001B8801331380FEF7E4B900BF90BD0120D8
:102FD00008BD0120ACBC01203865010890A5012086
:102FE0009100002034BC012048BC0120B44BB44AFD
:102FF0001B689BF801109BF80000B24C0C33136067
:103000000BF0CEFEA379024658B303F0BF030506CA
:10301000A37129D563F07F03A371AB4B9BF8061016
:103020009A5CA84801F0FD038BF80630AAB143F082
:1030300004038371A54ABB1C1380FEF7AAB99BF851
:10304000063043F040038BF8063096E79BF80630D5
:1030500023F004038BF8063078E721F00603837130
:10306000E8E743F04003A3719BF8063003F07F03C9
:103070008BF80630D1E79BF804209BF80530904987
:103080009BF807000F6843EA02218B0B904AC1F3BB
:103090000D0552F82340665D00F00F03884843EAAF
:1030A0000612B1F5804F07F11203D2B2036006D3C6
:1030B000B1F5B64F02D2874901230B7062559BF8D8
:1030C0000730804A23F00F0343EA161358B2C1B207
:1030D0008BF807109379002936D143F040039371A0
:1030E0009BF806300028B4BF63F07F0303F07F0332
:1030F0008BF80630744B5B5CFBB19BF8063043F0F9
:1031000004038BF806309BF80620704B22F0120265
:103110001B888BF806206D4A01331380FEF739B9FE
:10312000674B6A491A68BB1C0B80654908320A6004
:10313000694A00231370FEF72CB99BF8063023F080
:1031400004038BF80630DEE723F040039371C7E7F2
:10315000BB1C9AB2FB1C99B25D485D4D930B8C0B66
:1031600050F82300594B1A80C2F30D03584AC05C33
:10317000564B52F824401980C1F30D03574AE35CC3
:10318000127800EB032398B2002A73D04C4A411CFA
:103190001768820B8B13C1F30D0455F82210484AAF
:1031A00055F8236007F114031360C0F30D03325D7B
:1031B000CB5C03EB02239BB21A0A8BF809308BF825
:1031C0000820424B414A1B8801331380FEF7E1B8C7
:1031D0003B4B9BF806101A689BF804009BF80530DF
:1031E000374D384C43EA00200F3201F001032A60CA
:1031F00003EB400503054CBF41F0100321F0100321
:10320000A37180EA050313F4004F9BF806302D4AA2
:103210008BF8055014BF43F0040323F004038BF82C
:1032200006302B0A8BF804309379E9034CBF43F046
:10323000010323F001039371ABB2002B39D09BF84B
:10324000063023F040038BF806309BF806301F4908
:103250002A044CBF63F07F0303F07F038BF8063032
:103260009BF80630BA1C23F002030A808BF8063064
:10327000FEF78FB81A4B1B78411C9BB3104A176896
:10328000820B8B13C1F30D0455F822100C4A55F82C
:10329000236007F114031360C0F30D03325DCB5CB0
:1032A00003EB02239BB21A0A8BF80B308BF80A202F
:1032B00087E79BF8063043F040038BF80630C4E7FD
:1032C00090BD0120ACBC01203865010808BD01207B
:1032D00090A501209100002034BC0120F8BC012001
:1032E0008DBD0120A04A1768820B8B13C1F30D041A
:1032F00055F822109C4A55F8236007F1100313601B
:10330000C0F30D03325DCB5C03EB02239BB21A0AC0
:103310008BF805308BF8042053E794499BF806009E
:103320000E8891499BF804209BF8053009680691A6
:1033300043EA022500F00101C6F30B030B44C5F379
:103340000B029C18AA19069B1144874A0F3313607D
:10335000E404874A4CBF40F0100320F0100393713F
:1033600085EA0603DB0B4FD185EA01031B044BD52D
:103370009BF8063043F004038BF806307C4A8BF848
:1033800005100B0A8BF804309379CD034CBF43F042
:10339000010323F0010393718BB273B39BF80630E2
:1033A00023F040038BF806309BF806300C044CBF2A
:1033B00063F07F0303F07F038BF806309BF8063041
:1033C0006C49BA1C23F002030A808BF80630FDF723
:1033D000E0BF654B644C1B689BF807209BF801100D
:1033E0009BF800000C3323600FF03CFC614B614AFA
:1033F0001B8801331380FDF7CCBF9BF8063043F0E8
:1034000040038BF80630CFE79BF8063023F0040327
:103410008BF80630B2E7544B534A1B689BF80110F7
:103420009BF800000C3313600BF0BAFC504A8BF889
:103430000700937950B303F0BF030506937128D5B5
:1034400063F07F0393714C4B9BF806101A5C48485D
:1034500001F0FD038BF80630A2B143F00403837141
:10346000444ABB1C1380FDF794BF3F4B41491A6887
:10347000BB1C0B803C4908320A60404A0123137090
:10348000FDF787BF21F006038371E9E743F04003AE
:1034900093719BF8063003F07F038BF80630D2E778
:1034A000314B34491A68BB1C0B802F4908320A6023
:1034B000324A02231370FDF76CBFBB1C2A489AB234
:1034C00004682F48930BF91C50F82300294B1A80ED
:1034D00004F11403244CC2F30D02236089B2805C12
:1034E000274A274C8B0B3E1D52F82320214B198075
:1034F000C1F30D03D35C00EB032399B2481C8B0B83
:10350000821354F8225054F82340C0F30D02C1F343
:103510000D03AA5CE35C174903EB0223134A0E80F8
:103520001380FDF736BF43F004039371FFF771BBBF
:1035300043F004039371FFF7CBBB0B4B0D491B68A2
:10354000BA1C0A80084A09331360FDF722BF064BF4
:1035500008491A68BB1C0B80034908320A60074AF5
:1035600002231370FDF715BF90BD012048BC012058
:10357000ACBC012008BD01203865010834BC012025
:1035800090A50120BB1CB3489AB20468B248930BC3
:10359000F91C50F82300B14B1A8004F11403AD4C10
:1035A000C2F30D02236089B2805CAB4AAA4C8B0B3C
:1035B0003E1D52F82320A94B1980C1F30D03D35CA3
:1035C00000EB032399B2481C8B0B821354F8225052
:1035D00054F82340C0F30D02C1F30D03AA5CE35C71
:1035E0009E4903EB02239BB21A0A0E808BF803302C
:1035F0008BF80220FDF7CDBE964D9BF804409BF85A
:1036000005109BF802209BF803302D689BF80600FC
:10361000069543EA022641EA0425C5F30B02C6F3E8
:103620000B03134400F001015C18AA19069B114416
:10363000884A0F331360E304894A4CBF40F01003FB
:1036400020F01003937185EA0603DB0B40F08D80B8
:1036500085EA01031D0440F188809BF8063043F0A1
:1036600004038BF806307E4A8BF805100B0A8BF8A2
:1036700004309379CC034CBF43F0010323F00103E2
:1036800093718BB2002B69D09BF8063023F0400376
:103690008BF806309BF8063008044CBF63F07F03BC
:1036A00003F07F038BF806309BF806306B49BA1C99
:1036B00023F002030A808BF80630FDF76ABE654BE3
:1036C000644C1B689BF803209BF801109BF80000DA
:1036D0000C3323600FF0C6FA604B604A1B8801333D
:1036E0001380FDF756BE5B4B5A4A1B689BF80110CE
:1036F0009BF800000C3313600BF052FB584A8BF818
:1037000003009379002848D003F0BF0301069371AA
:1037100046D563F07F039371524B9BF806101A5CF9
:103720004F4801F0FD038BF80630002A31D043F0FA
:1037300004038371494ABB1C1380FDF72ABE454B25
:103740001968494B1B788BF8073001F1090343498D
:10375000BA1C0A803F4A1360FDF71BBE9BF8063077
:1037600043F040038BF8063094E79BF8063023F0D3
:1037700004038BF8063076E7364B38491A68BB1CD1
:103780000B80344908320A60384A01231370FDF770
:1037900000BE21F006038371CCE743F04003937130
:1037A0009BF8063003F07F038BF80630B4E7BB1CB0
:1037B00028489AB2FB1C99B205682748930B50F829
:1037C0002340264B1A8005F11403224D880B2B60F1
:1037D000214BC2F30D0253F82000204BA45C19804A
:1037E000C1F30D039BF80410C25C9BF8053004EB99
:1037F000022243EA012390B21CB2B0F5804FA5B279
:1038000023D3B0F5B64F02D2194A01231370830BAC
:10381000114AC0F30D0152F8232045F6FE239842C9
:10382000545402DC124A01231370431C9A13C3F34D
:103830000D01094B53F822202B0A5354074B074A1A
:103840001B8801331380FDF7A4BD43F6FF73984234
:10385000F4D1E7E790BD012090A5012008BD01202B
:10386000ACBC0120386501084821002034BC01208F
:1038700091000020BD4B9BF806201B68BB4CBC4947
:1038800042F300000F33C50423604CBF42F0100325
:1038900022F010038B719BF8063023F004038BF8A1
:1038A0000630DFF8CCB2030A8BF804309BF8063000
:1038B0008BF80500C4034CBF43F0010323F0010360
:1038C0008BF8063083B2002B58D09BF8063023F0DB
:1038D00040038BF806309BF80630A64900044CBF25
:1038E00063F07F0303F07F038BF806309BF806300C
:1038F000BA1C43F002030A808BF80630FDF749BD7D
:103900009A4B9A4C1B689BF804209BF801109BF87B
:1039100000000C3323600FF0A5F9964B954A1B88E5
:1039200001331380FDF735BD904B904A1B689BF81F
:1039300001109BF800000C3313600BF031FA8C4A35
:103940008BF80400937920B303F0BF030106937151
:1039500022D563F07F039371874B9BF806101A5CA6
:10396000834801F0FD038BF8063072B143F0040385
:103970008371804ABB1C1380FDF70BBD9BF806309A
:1039800043F040038BF80630A5E721F0060383716E
:10399000EFE743F0400393719BF8063003F07F0399
:1039A0008BF80630D8E743F0400393719BF806305C
:1039B00003F07F038BF80630FFF7D5B99BF806308C
:1039C00023F004038BF80630FFF720BA23F04003FE
:1039D0008B71FFF710BABB1C64489AB2FB1C99B2FA
:1039E00005686648930B50F82340624B1A8005F136
:1039F00014035E4D880B2B60604BC2F30D0253F82D
:103A000020005C4BA45C1980C1F30D039BF80210ED
:103A1000C25C9BF8033004EB022243EA012390B21C
:103A20001CB2B0F5804FA5B223D3B0F5B64F02D289
:103A3000534A01231370830B504AC0F30D0152F80F
:103A4000232045F6FE239842545402DC4C4A0123BD
:103A50001370431C9A13C3F30D01484B53F82220F3
:103A60002B0A5354434B434A1B8801331380FDF701
:103A700090BC43F6FF739842F4D1E7E73B4D9BF8C7
:103A800004409BF805109BF802209BF803302D683A
:103A90009BF80600069543EA022641EA0425C5F391
:103AA0000B02C6F30B03D31A00F001015C1AAA1B28
:103AB000069B511A2D4A0F331360E4042C4A4CBF65
:103AC00040F0100320F01003937186EA05031B04F5
:103AD00040F1898085EA01031D0440F184809BF850
:103AE000063043F004038BF80630214A8BF80510AA
:103AF0000B0A8BF804309379CC034CBF43F00103DD
:103B000023F0010393718BB2002B65D09BF8063034
:103B100023F040038BF806309BF8063008044CBFB6
:103B200063F07F0303F07F038BF806309BF80630C9
:103B30001049BA1C43F002030A808BF80630FDF7E7
:103B400028BC0A4B094C1B689BF802209BF801100B
:103B50009BF800000C3323600FF084F8054B054AF6
:103B60001B8801331380FDF714BC00BF90BD0120FA
:103B7000ACBC012008BD01203865010890A50120DA
:103B800091000020BA4BBA4A1B689BF801109BF8C1
:103B900000000C3313600BF003F9B64A8BF80200F7
:103BA000937958B303F0BF030506937129D563F0E9
:103BB0007F039371B04B9BF806101A5CAD4801F07F
:103BC000FD038BF80630AAB143F004038371AB4ABE
:103BD000BB1C1380FDF7DDBB9BF8063043F04003B0
:103BE0008BF8063098E79BF8063023F004038BF837
:103BF00006307AE721F006038371E8E743F04003DB
:103C000093719BF8063003F07F038BF80630D1E701
:103C1000974B9A491B68BA1C0A80954A093313606E
:103C2000FDF7B7BB924B95491A68BB1C0B809049B6
:103C300008320A60924A00231370FDF7AABB914B29
:103C40001C888B4B1D68631C98B2820B05F10E0318
:103C5000A10B8D4D55F8211055F82250844A136060
:103C6000C4F30D03C0F30D02C95C864B1880AB5C36
:103C700041EA032381490B80824BA21C1A80FDF785
:103C800088BBBB1C7A489AB204687F48930BF91C26
:103C900050F82300794B1A8004F11403744CC2F3DA
:103CA0000D02236089B2805C774A774C8B0B3E1DF6
:103CB00052F82320714B1980C1F30D03D35C00EB44
:103CC000032399B2481C8B0B821354F8225054F8EA
:103CD0002340C0F30D02C1F30D03AA5CE35C674906
:103CE00003EB02239BB21A0A0E808BF801308BF88B
:103CF0000020FDF74EBB5E4D9BF804409BF805107D
:103D00009BF800209BF801302D689BF80600069573
:103D100043EA022641EA0425C5F30B02C6F30B036E
:103D2000134400F001015C18AA19069B1144504A83
:103D30000F331360E3044F4A4CBF40F0100320F0F0
:103D40001003937185EA0603DB0B50D185EA01036A
:103D50001C044CD59BF8063043F004038BF8063066
:103D6000444A8BF805100B0A8BF804309379C8038A
:103D70004CBF43F0010323F0010393718BB27BB37B
:103D80009BF8063023F040038BF806309BF8063092
:103D90000A044CBF63F07F0303F07F038BF8063007
:103DA0009BF806303549BA1C23F002030A808BF8D1
:103DB0000630FDF7EEBA2E4B9BF800001A689BF810
:103DC000013002F10C0419461A46294B1C600EF012
:103DD00049FF2A4B294A1B8801331380FDF7D9BAC2
:103DE0009BF8063043F040038BF80630CEE79BF893
:103DF000063023F004038BF80630B1E71C4B1C4A55
:103E00001B689BF801109BF800000C3313600AF04C
:103E1000C7FF184A8BF80100937900283CD003F0C3
:103E2000BF03010693713AD563F07F039371124B80
:103E30009BF806101A5C0F4801F0FD038BF8063062
:103E400032B343F0040383710C4ABB1C1380FDF7AB
:103E5000A0BA074B0D4A19689BF80730137001F19F
:103E600009030649BA1C0A80014A1360FDF791BA9A
:103E700090BD0120ACBC01203865010808BD0120BF
:103E800034BC012048BC012090A50120482100201D
:103E900021F006038371D7E743F0400393719BF849
:103EA000063003F07F038BF80630C0E7B04BB14912
:103EB0001A68BB1C0B80AE4908320A60AE4A002368
:103EC0001370FDF766BAAD4B1C88A94B1D68631CC7
:103ED00098B2820B05F10E03A10BA94D55F82110E4
:103EE00055F82250A24A1360C4F30D03C0F30D022B
:103EF000C95CA24B1880AB5C41EA03239D490B804F
:103F00009E4BA21C1A80FDF744BA994B9BF80710F0
:103F10001B6897489B4A08338029036000F098800B
:103F20004B420C0798B200F09980937943F010034C
:103F300093710A069BF8063040F18580050640F132
:103F4000828043F004038BF806308E4A8BF807001A
:103F500093798849C4054CBF43F0010323F0010362
:103F600093719BF8063010F0FF0F14BF23F040034D
:103F700043F040038BF806309BF8063000064CBF38
:103F800063F07F0303F07F038BF806309BF8063065
:103F9000BA1C43F002030A808BF80630FDF7F9B92A
:103FA000BB1C73489AB2FB1C99B205687448930B0A
:103FB00050F823406F4B1A8005F114036C4D880BA9
:103FC0002B606F4BC2F30D0253F82000694BA45CC9
:103FD0001980C1F30D039BF80010C25C9BF80130FF
:103FE00004EB022243EA012390B21CB2B0F5804FE9
:103FF000A5B223D3B0F5B64F02D2634A01231370A2
:10400000830B5F4AC0F30D0152F8232045F6FE23CF
:104010009842545402DC5C4A01231370431C9A13E7
:10402000C3F30D01564B53F822202B0A5354514B26
:10403000504A1B8801331380FDF7ABB943F6FF7379
:104040009842F4D1E7E723F004038BF806307CE7CD
:10405000937943F0040393714FF680709BF8063018
:1040600023F010038BF8063063E7414D9BF80440C2
:104070009BF805109BF800209BF801302D689BF8F9
:104080000600069543EA022641EA0425C5F30B0221
:10409000C6F30B03D31A00F001015C1AAA1B069B9E
:1040A000511A334A0F331360E404364A4CBF40F0D0
:1040B000100320F01003937186EA05031B0450D50A
:1040C00085EA01031C044CD59BF8063043F0040339
:1040D0008BF806302B4A8BF805100B0A8BF804304E
:1040E0009379C8034CBF43F0010323F0010393719C
:1040F0008BB27BB39BF8063023F040038BF806307D
:104100009BF806300D044CBF63F07F0303F07F0380
:104110008BF806309BF806301649BA1C43F00203B0
:104120000A808BF80630FDF734B9114B9BF801106B
:104130001A689BF8003002F10C0418461A460C4B22
:104140001C600EF08FFD0B4B0A4A1B880133138055
:10415000FDF71FB99BF8063043F040038BF806309B
:10416000CEE79BF8063023F004038BF80630B1E766
:1041700090BD012008BD012034BC012048BC0120B5
:1041800090A50120ACBC012091000020974B974ADC
:104190001B689BF800009BF801100C3313600AF0B9
:1041A000FFFD934A8BF80000937940B303F0BF03FF
:1041B0000506937126D563F07F0393718D4B9BF8B1
:1041C00006101A5C8A4801F0FD038BF8063092B1A4
:1041D00043F004038371884ABB1C1380FDF7D9B8F0
:1041E0001146864811F038FC059B1B6898680FF053
:1041F0004FFCFDF7CEB821F006038371EBE743F0E7
:10420000400393719BF8063003F07F038BF8063070
:10421000D4E743F0400393719BF8063003F07F032B
:104220008BF80630FDF751BF734B75481C889BF81F
:104230000650631C9BB29A0BA11C50F822006E4AD8
:104240001380C3F30D0289B28B0B805C6C4A52F869
:104250002320694B1980C1F30D036F07D35C6649B6
:1042600000EB03239EB238D5664B604A1B8810686A
:10427000013BE11C9AB200F1110388B261490A8046
:104280005A49B2F5804F0B600DD3B2F5B64F02D24A
:104290005D4901230B70930BC2F30D01584A52F88C
:1042A0002320030A5354574B1B88013B9AB2554BAA
:1042B000B2F5804F1A800CD3B2F5B64F02D25249F4
:1042C00001230B70930B4E49C2F30D0251F82330BA
:1042D0009854494B1E80FDF75CB8444BE21C1B68A8
:1042E0000A80424A0A331360FDF753B83F4B9BF8EC
:1042F00005001968404B1A889BF803308BF805308D
:104300000B1D3A498BF803000B603B4B9BF80410E4
:1043100001321A809BF802308BF804308BF80210BF
:10432000FDF737B8344B9BF806501C882F4B1E689E
:10433000631C9AB2A31C98B2910B314B53F8211015
:104340002D4B1A8006F10A03284EC2F30D0233608A
:10435000895C2B4A830B52F82320274B1880C0F32B
:104360000D03D35C244A01EB032369079BB258BFBA
:10437000E31C1380FDF70DB8244B1B78002B00F0D5
:1043800082801A4B9BF808101B689BF8092017487D
:104390000833036042EA0123174A1380FCF7F9BF90
:1043A0009BF8063058077DD5164B1C880F4B1D68AF
:1043B000631C98B2820B05F10B03A10B104D55F84D
:1043C000211055F82250094A1360C4F30D03C0F3BD
:1043D0000D02C95C0B4B1880AB5C41EA0323064914
:1043E0000B80084BA21C1A80FCF7D3BF90BD0120A4
:1043F000ACBC01203865010808BD0120CC6401086F
:1044000090A5012048BC012091000020F8BC0120AB
:10441000844B85491B880888844A013B99B2431C18
:1044200080481268018081480B32B1F5804F0260EC
:1044300098B20DD3B1F5B64F02D27D4A0123137065
:104440008B0B7C4AC1F30D0152F82320030A53540D
:10445000744B1B88013B9AB2724BB2F5804F1A80A5
:104460000CD3B2F5B64F02D2714901230B70930BF6
:104470007049C2F30D0251F8233098546A4A202340
:104480001380FCF786BF6C4B1B78BBB1674B9BF866
:104490000A101B689BF80B2064480833036042EA4B
:1044A000012379E7614B61491A685F4B05321B882C
:1044B0000A605D4A01331380FCF76BBF5B4B9BF8CE
:1044C00004101B689BF8052058480433036042EA37
:1044D000012361E7544B574C1D88544B9BF8070050
:1044E00019686B1C9BB29A0B073154F822204E4C72
:1044F00023804E4CC3F30D032160D35C4F4A184018
:104500008BF807009379002800F0818003F0BF0347
:10451000040693717ED563F07F0393719BF80610B8
:10452000474B464C185C01F0FC0242F010038BF83C
:104530000630002859D042F01403A3713A4AAB1C4C
:104540001380FCF726BF3F4B1B78002B3ED0374B28
:1045500036481B689BF808109BF809200F3303604E
:1045600042EA01202F4B1B88013B9AB22D4BB2F53A
:10457000804F1A800DD3B2F5B64F02D22C490123D9
:104580000B70930BC2F30D012A4A52F82320030A41
:104590005354244B1B88013B9AB2224BB2F5804FF7
:1045A0001A800CD3B2F5B64F02D2214901230B7009
:1045B000930B2049C2F30D0251F8233098541A4B43
:1045C000194A1B8801331380FCF7E3BE1A4B1B7892
:1045D0008BB1164B15481B689BF80A109BF80B20F3
:1045E0000F33036042EA0120BCE721F0070343F0E8
:1045F0001003A371A2E70D4B0C481B689BF8041035
:104600009BF805200B33036042EA0120AAE743F040
:10461000400393719BF8063003F07F038BF806305C
:104620007CE700BF48BC012008BD012090BD0120EF
:104630009100002090A501208DBD0120ACBC01207F
:1046400038650108F8BC0120A94BAA481C889BF8D2
:104650000650631C9BB29A0BA11C50F82200A44A7E
:104660001380C3F30D0289B28B0B805CA14A52F810
:1046700023209F4B1980C1F30D036D07D35C9C4928
:1046800000EB03239EB238D49B4B9C4A1B881068D6
:10469000013BE11C9AB200F1110388B296490A80ED
:1046A0009649B2F5804F0B600DD3B2F5B64F02D2EA
:1046B000934901230B70930BC2F30D018D4A52F8FD
:1046C0002320030A53548C4B1B88013B9AB28A4B1C
:1046D000B2F5804F1A800CD3B2F5B64F02D288499A
:1046E00001230B70930B8349C2F30D0251F8233061
:1046F00098547F4B1E80FCF74CBE804BE21C1B681D
:104700000A807E4A0A331360FCF743BE7D4B93F860
:104710000080B8F1000F44D0784B784A1B689BF8B2
:1047200009509BF808E017331360734B71481A88DF
:10473000531C9F13C3F30D0C6E4B910B53F8273092
:1047400050F8210013F80C60C2F30D03B2F5804F4E
:104750000693C45C07D3B2F5B64F02D26849012371
:104760000B70069BC55443F6FE739A420BDD45F66B
:10477000FE239A4202DC624A012313705D4B53F818
:10478000273003F80CE0B8F1000F17D08BF8094080
:104790008BF80860564B564A1B8801331380FCF790
:1047A000F8BD594B1B788BB1544B544A1B689BF88E
:1047B0000B509BF80AE017331360B6E7524B1B7897
:1047C00073B18BF80B408BF80A60E3E74B4B4B4A15
:1047D0001B689BF805509BF804E013331360A4E7B3
:1047E0008BF805408BF80460D4E7414B9BF80650EA
:1047F0001C88424B1E68631C9AB2A31C98B2910B92
:104800003C4B53F821103A4B1A8006F10A033B4EF9
:10481000C2F30D023360895C364A830B6F0752F88E
:104820002320334B1880C0F30D03D35C304A01EBD7
:1048300003239BB248BFE31C1380FCF7AABD314B96
:104840001B78002B00F09D802B4B1C882B4B1D6888
:10485000631C98B2A10B05F10E03264D820B55F88F
:104860002150244951F82260244A1360C4F30D03F7
:10487000C0F30D01EA5C204B1880735C42EA03230D
:104880001BB2C3F307218BF809301B4B8BF80810C0
:10489000A21C1A80164B164A1B8801331380FCF7A2
:1048A00078BD9BF806305B0700F19680124B1C88A0
:1048B000124B1D68631C98B2820B05F10B03A10B10
:1048C0000C4D55F8211055F822500C4A1360C4F3D2
:1048D0000D03C0F30D02C95C074B1880AB5C41EAC5
:1048E000032303490B80044BA21C1A80FCF751BD23
:1048F00008BD012090A5012048BC012090BD0120E9
:1049000091000020F8BC01208DBD0120B34BB449BB
:104910001B880888B34A013B99B2431CAF48126810
:104920000180B0480B32B1F5804F026098B20DD3D0
:10493000B1F5B64F02D2AC4A012313708B0BAB4AD0
:10494000C1F30D0152F82320030A5354A34B1B88D3
:10495000013B9AB2A14BB2F5804F1A800CD3B2F54D
:10496000B64F02D2A04901230B70930B9F49C2F3AB
:104970000D0251F823309854994A18231380FCF7FC
:1049800008BD9B4B1B78002B32D0944B1C88954B59
:104990001D68631C98B2A10B05F10E03934D820BA9
:1049A00055F82150914951F822608E4A1360C4F3A2
:1049B0000D03C0F30D01EA5C884B1880735C42EA7A
:1049C00003231BB2C3F307218BF80B30834B8BF807
:1049D0000A10A21C1A805DE7824B82491A68804B3C
:1049E00005321B880A607E4A01331380FCF7D1BC74
:1049F0007A4B1C887B4B1D68631C98B2A10B05F198
:104A00000A037A4D820B55F82150784951F82260FB
:104A1000744A1360C4F30D03C0F30D01EA5C6F4BDD
:104A20001880735C42EA03231BB2C3F307218BF89F
:104A300005306A4B8BF80410A21C1A802AE7684BD9
:104A40006A4EB3F800E0674B9BF8075018689BF874
:104A50000640684F0EF101039BB29A0BC3F30D01A0
:104A600056F822205E4E3380C31D5E480360505CC2
:104A700005F00F0200F00F03D11A04F001032A1A07
:104A8000C91AD31A9EB2CB064CBF44F0100324F0CF
:104A90001003BB7180EA05031C063FD585EA0603B7
:104AA00018063BD59BF8063043F004038BF806301C
:104AB000504A8BF807609379F1054CBF43F001032E
:104AC00023F0010393719BF80630454916F0FF0F60
:104AD00014BF23F0400343F040038BF806309BF8EB
:104AE000063032064CBF63F07F0303F07F038BF880
:104AF00006309BF806300EF1020243F002030A80F2
:104B00008BF80630FCF745BC354B35491B885A1CE1
:104B10000A80394A01231370FCF741BC9BF8063028
:104B200023F004038BF80630C2E72D4B2F481C8876
:104B30009BF80650631C9BB29A0BA11C50F82200F4
:104B4000274A1380C3F30D0289B28B0B805C274A7E
:104B500052F82320224B1980C1F30D032049D35C66
:104B6000EA0700EB03239EB248D51C4B1D4A1B8865
:104B70001068013BE11C9AB200F1110388B2174999
:104B80000A801849B2F5804F0B600DD3B2F5B64FCD
:104B900002D2154901230B70930BC2F30D01134A86
:104BA00052F82320030A53540C4B1B88013B9AB242
:104BB0000A4BB2F5804F1A800CD3B2F5B64F02D231
:104BC000094901230B70930B0849C2F30D0251F8F8
:104BD00023309854024B1E80FCF7DBBB48BC0120FD
:104BE00008BD012090BD01209100002090A501206A
:104BF0008DBD0120ACBC0120F8BC0120A74BE21CFC
:104C00001B680A80A54A0A331360FCF7C2BBA44B99
:104C1000A44D1C88A14B9BF807001968631C9BB22C
:104C20009A0B0B3155F822209D4D2B809B4DC3F3E1
:104C30000D032960D15C0AF0B3F8994A8BF807009C
:104C4000A31C1380FCF7A5BB954B9BF806501C8852
:104C5000924B1E68631C9AB2A31C98B2910B914BA5
:104C600053F821108E4B1A8006F10A038B4EC2F3C3
:104C70000D023360895C8B4A830B52F82320884BEA
:104C80001880C0F30D03D35C854A01EB0323E907C9
:104C90009BB258BFE31C1380FCF77BBB7F4B9BF898
:104CA000000019687E4B1A887F4B1B788BF8003008
:104CB0000B1D7A490B607A499BF8013001320A805A
:104CC000794A1070784851789BF8022043708378B5
:104CD0008BF8011082709BF80310C2788BF80230B9
:104CE0009BF80430C1708BF8032001799BF80520F4
:104CF000037143798BF8041042718BF80530FCF78F
:104D000048BB9BF80630D8075CD5684B1C88634BC2
:104D10001D68631C98B2820B05F10B03A10B614D5A
:104D200055F8211055F822505C4A1360C4F30D0366
:104D3000C0F30D02C95C5D4B1880AB5C41EA0323F4
:104D400057490B80594BA21C1A80FCF722BB574BCA
:104D500053491B880888514A013B99B2431C534868
:104D6000126801804D480B32B1F5804F026098B255
:104D70000DD3B1F5B64F02D24D4A012313708B0B00
:104D8000484AC1F30D0152F82320030A5354474BFC
:104D90001B88013B9AB2454BB2F5804F1A800CD369
:104DA000B2F5B64F02D2424901230B70930B3D4935
:104DB000C2F30D0251F823309854394A102313805E
:104DC000FCF7E7BA354B35491A68354B05321B8875
:104DD0000A60334A01331380FCF7DBBA304B314FA2
:104DE0001E882E4B9BF807401D683248731C9BB2EF
:104DF0009A0BC3F30D0157F82220294F3B80EB1D7E
:104E0000264D2B60515C04F00F0201F00F03D31A02
:104E100013F0100F837914BF43F0100323F0100335
:104E2000837181EA0403621A190695B240F1868003
:104E300084EA02031B0640F181809BF8063043F0B0
:104E400004038BF806308BF807201A4A144993792B
:104E5000EF054CBF43F0010323F0010393719BF86E
:104E6000063015F0FF0F14BF23F0400343F040035A
:104E70008BF806309BF806302C064CBF63F07F039E
:104E800003F07F038BF806309BF80630B21C43F02A
:104E900002030A808BF80630FCF77BBA90BD012034
:104EA00008BD012090A501203CBC012048BC012088
:104EB00091000020ACBC0120A34B9BF802101B8882
:104EC0009BF80320A14842EA0122013B9E49006869
:104ED00014B29AB20A809D4900F10B03B2F5804FDB
:104EE000A0B20B600DD3B2F5B64F02D298490123A0
:104EF0000B70930BC2F30D01964A52F82320030A5C
:104F00005354914B1B88013B9AB28F4BB2F5804FA3
:104F10001A800CD3B2F5B64F02D28D4901230B7023
:104F2000930B8C49C2F30D0251F823309C548A4BE9
:104F3000894A1B8801331380FCF72BBA9BF8063093
:104F400023F004038BF806307DE7834B81481C88EF
:104F50009BF80650631C9BB29A0BA11C50F82200D0
:104F60007D4A1380C3F30D0289B2805C794A8B0BB2
:104F700052F82320784B1980C1F30D037649D35C96
:104F800000EB0323E8079EB238D46F4B6F4A1B88AF
:104F90001068013BE11C9AB200F1110388B26A4922
:104FA0000A806A49B2F5804F0B600DD3B2F5B64F57
:104FB00002D2674901230B70930BC2F30D01654ABE
:104FC00052F82320030A53545F4B1B88013B9AB2CB
:104FD0005D4BB2F5804F1A800CD3B2F5B64F02D2BA
:104FE0005B4901230B70930B5A49C2F30D0251F830
:104FF00023309854584B1E80FCF7CBB9534BE21C1E
:105000001B680A80514A0A331360FCF7C2B9524B3D
:10501000504C1B884D4A01339BB2990B106854F8D1
:1050200021104D4C9BF807202380484CC3F30D03FF
:105030000B302060C95C9BF800000DF013FE464B5E
:10504000454A1B8801331380FCF7A3B9424B9BF8F8
:1050500006501C883D4B1E68631C9AB2A31C98B274
:10506000910B3C4B53F821103B4B1A8006F10A037D
:10507000364EC2F30D023360895C364A830BED076E
:1050800052F82320344B1880C0F30D03D35C324A0E
:1050900001EB03239BB248BFE31C1380FCF779B9F3
:1050A000294B1D88294B1C682B4B1F886B1C98B201
:1050B000A90B04F10A03274C820B54F8214025491F
:1050C00051F82260214A1360C5F30D03C0F30D01AE
:1050D000E25C1D4B1880735C42EA03231BB2C3F3EE
:1050E00007208BF80330184B8BF80200A91C19809D
:1050F000194B7A1C1A80FCF74CB99BF80630DF0775
:1051000067D4114B1C88114B1D68631C98B2820B2D
:1051100005F10B03A10B0F4D55F8211055F8225046
:105120000A4A1360C4F30D03C0F30D02C95C064BB9
:105130001880AB5C41EA032307490B80024BA21C99
:105140001A80FCF726B900BF48BC012090BD0120A1
:105150009100002090A5012008BD0120B44BB54965
:105160001B880888B44A013B99B2431CB0481268B6
:105170000180B1480B32B1F5804F026098B20DD377
:10518000B1F5B64F02D2AD4A012313708B0BAC4A76
:10519000C1F30D0152F82320030A5354A44B1B887A
:1051A000013B9AB2A24BB2F5804F1A800CD3B2F5F4
:1051B000B64F02D2A14901230B70930BA049C2F351
:1051C0000D0251F8233098549A4A08231380FCF7B3
:1051D000E0B8994B98491A68964B05321B880A60CB
:1051E000944A01331380FCF7D4B8924B94481F883B
:1051F000914B9BF806401B6806937B1C9BB29A0B55
:10520000C3F30D0150F822208A489BF80750038011
:10521000069B89488B4E07330360505C05F00F03F3
:1052200004F001010B4400F00F021A444319194421
:10523000D3064CBF44F0100324F01003B37180EA8E
:105240000503DB0940F08A8085EA01031C0640F172
:1052500085809BF8063043F004038BF80630794ACA
:105260008BF807109379C8054CBF43F0010323F076
:10527000010393719BF8063011F0FF0F14BF23F068
:10528000400343F040038BF806309BF806300A06D3
:105290004CBF63F07F0303F07F038BF806309BF86D
:1052A00006306449BA1C23F002030A808BF80630EA
:1052B000FCF76FB85F4B1C885F4B1D685C4B1E880A
:1052C000631C9AB2A31C98B2910B5D4B53F821104A
:1052D000584B1A8005F11103574DC2F30D022B6094
:1052E0008D5C574A830B52F82310524B1880C0F341
:1052F0000D03721ECB5C05EB0323E11C92B29CB242
:105300004B4BB2F5804F88B21A800DD3B2F5B64F31
:1053100002D24A4901230B70930BC2F30D01484A94
:1053200052F82320030A5354414B1B88013B9AB285
:105330003F4BB2F5804F1A800CD3B2F5B64F02D274
:105340003E4901230B70930B3D49C2F30D0251F806
:1053500023309854374B1C80FCF71BB89BF8063061
:1053600023F004038BF8063079E7324B34481C886D
:105370009BF80650631C9BB29A0BA11C50F82200AC
:105380002C4A1380C3F30D0289B28B0B805C2C4A2C
:1053900052F82320274B1980C1F30D032549D35C14
:1053A0006A0600EB03239EB238D5214B224A1B88A4
:1053B0001068013BE11C9AB200F1110388B21C494C
:1053C0000A801D49B2F5804F0B600DD3B2F5B64F80
:1053D00002D21A4901230B70930BC2F30D01184A34
:1053E00052F82320030A5354114B1B88013B9AB2F5
:1053F0000F4BB2F5804F1A800CD3B2F5B64F02D2E4
:105400000E4901230B70930B0D49C2F30D0251F8A5
:1054100023309854074B1E80FBF7BBBF064BE21CA2
:105420001B680A80044A0A331360FBF7B2BF00BF4F
:1054300048BC012008BD012090BD01209100002042
:1054400090A50120ACBC0120884B1D781DB9884B6C
:105450001B78002B59D0874B87481A88531C99B268
:10546000931C9AB28B0B940B50F82300814B19803C
:10547000C1F30D038049C0567E4B51F824101A80A9
:10548000C2F30D03CB5C03F0F80203F00706382AE1
:1054900000F28E86DFE812F086068C068C068C06FB
:1054A0008C068C068C068C0683068C068C068C0675
:1054B0008C068C068C068C0680068C068C068C0668
:1054C0008C068C068C068C0608048C068C068C06D2
:1054D0008C068C068C068C0606048C068C068C06C4
:1054E0008C068C068C068C06BC038C068C068C06FF
:1054F0008C068C068C068C06AB038C068C068C0600
:105500008C068C068C068C0688005A4B5A481B88E1
:1055100001339BB29A0BC3F30D0150F8222055487A
:105520000380535C03F0F80203F00701382A00F20D
:10553000A482DFE812F05A02A202A202A202A20290
:10554000A202A202A2024401A202A202A202A2029A
:10555000A202A202A202F100A202A202A202A202DE
:10556000A202A202A202F906A202A202A202A202C0
:10557000A202A202A2020B02A202A202A202A202A2
:10558000A202A202A2022C04A202A202A202A2026F
:10559000A202A202A202A700A202A202A202A202E8
:1055A000A202A202A20277000621304B1B78002B38
:1055B00051D09BF808209BF80930304943EA022378
:1055C00003440C682C4A99B28B0BC1F30D0052F8BE
:1055D000232004F11703294C2360125C9BF806304A
:1055E000D0074CBF43F0010323F00103062E8BF8D4
:1055F00006304FEA52001DD00BF806009BF806302B
:1056000098B123F040038BF806309BF80620194B25
:1056100002F06D021B888BF80620164A01331380B6
:10562000FBF7B7BE0E460020BFE743F040038BF800
:105630000630EAE7B1F5804FE0D3B1F5B64F02D2BC
:105640000F4A012313708B0BC1F30D020A4951F865
:1056500023309854D2E7064B1C78002C00F07C864F
:105660009BF80A209BF80B30A7E700BFF8BC01208D
:105670008DBD012008BD012090A5012090BD012015
:10568000910000200E460020A94B1B78002B00F053
:10569000E4859BF808209BF80930A64943EA0223D9
:1056A00003440C68A44A99B28B0BC1F30D0052F865
:1056B000232004F117039F4C2360125C9BF80630F3
:1056C00015064CBF43F0010323F001038BF80630AD
:1056D000530043F00100062E84B200F0AB850BF8B6
:1056E00006009BF80620954902F0BF0324068BF8BC
:1056F000063054BF02F03F0363F07F038B719BF8C9
:1057000006208F4B22F012021B888BF806208C4A51
:1057100001331380FBF73DBE0E460020844B1B78FF
:10572000002B00F09E809BF808209BF809308149EF
:1057300043EA022303440D6899B2880B7E4B53F869
:10574000202005F117037B4DC1F30D042B60125D82
:105750009BF8063003F0010343EA4202062E95B29D
:1057600071D00BF806209BF80630EF054CBF43F0D4
:10577000010323F001038BF806309BF8063015F087
:10578000FF0F14BF23F0400343F040038BF80630B3
:105790009BF806302D064CBF63F07F0303F07F03B8
:1057A0008BF806309BF80620654B22F012021B880E
:1057B0008BF80620624A01331380FBF7EABD0E46E0
:1057C00000205B4B1B78002B79D09BF808209BF8BE
:1057D0000930584943EA022303440C68564A99B2F7
:1057E0008B0BC1F30D0052F8232004F11703514C29
:1057F0002360125C9BF80630D0075AD5520843F05C
:10580000010342F080008BF80630062E5FD00BF8C3
:1058100006009BF8063060B303F0BF030106474A59
:105820008BF8063029D563F07F0393719BF806202F
:10583000434B22F012021B888BF80620404A0133AA
:105840001380FBF7A6BDB1F5804F8CD3B1F5B64FF1
:1058500002D23C4901230B70374B53F820301A55C4
:1058600081E7394B1B787BB19BF80A209BF80B3002
:105870005DE743F040038BF806309BF8063003F0F9
:105880007F038BF80630D1E7062931D01BF80120C1
:1058900028499BF80630096803F0010343EA4202F5
:1058A00001F108032349062E95B20B607FF459AF2E
:1058B00059E723F0010350088BF80630A5E7224B87
:1058C0001C784CB39BF80A209BF80B3081E7B1F5AC
:1058D000804F9ED3B1F5B64F02D21A4A01231370FE
:1058E0008B0BC1F30D02144951F82330985490E703
:1058F0009BF804209BF805300E490D6843EA02210D
:10590000880B0D4B53F8202005F10F03094DC1F30F
:105910000D042B60125D1BE7062900F00885054B7E
:1059200004481B681BF8012008332146036061E727
:10593000F8BC012090BD012090A50120ACBC012045
:1059400008BD0120910000208DBD01200E460020E1
:10595000A84B1B78002B00F09C849BF808209BF838
:105960000930A54943EA022303440C68A34A99B2CB
:105970008B0BC1F30D0052F8232004F117039E4C4A
:105980002360125C9BF8063015064CBF43F0010300
:1059900023F00103062E8BF806304FEA420000F098
:1059A00065840BF806009BF8063010F0FE0F14BF5C
:1059B00023F0400343F040038BF806309BF8063099
:1059C00004064CBF63F07F0303F07F038BF80630BF
:1059D0009BF806208A4B22F012021B888BF80620C7
:1059E000874A01331380FBF7D4BC864B1878002814
:1059F00000F09A850E4600209BF80A209BF80B3099
:105A00007D4943EA0223034498B20C687B4A830B26
:105A1000C0F30D0152F8232004F11703764C2360E4
:105A2000525C150600F174859BF80630520023F095
:105A3000010302F0FE018BF80630062E00F080858F
:105A40000BF806109BF80630002959D003F0BF036D
:105A50000C066D4A8BF8063056D563F07F039371C0
:105A60009BF80620664B22F012021B888BF806205A
:105A7000634A01331380FBF78CBC0E46002003F011
:105A8000C002802AC3F3C20770D0C02A43D0402A84
:105A90007BF47FAC574B1B78002B00F091809BF878
:105AA00008209BF80930544943EA022303449BB27F
:105AB0000C6851489A0BC3F30D01504B53F8222048
:105AC00004F114030360525C42FA07F313F0010F70
:105AD0009BF806304A4A14BF23F0440343F04403C2
