:020000040800F2
:100000000000022095420108DB420108DD420108A0
:10001000DF420108E1420108E3420108000000005C
:10002000000000000000000000000000E5420108A0
:10003000E742010800000000E9420108CDC60008BF
:10004000EF420108F1420108F3420108F5420108BC
:10005000F7420108F9420108FB420108FD4201088C
:10006000FF420108014301080343010845E100087C
:1000700007430108094301080B4301080D43010828
:100080000F4301089DE100081343010815430108CF
:1000900017430108194301081B4301087DFB0008B1
:1000A0001F43010821430108234301082543010898
:1000B000B1D80008294301082B430108D1E1000809
:1000C0002F43010831430108334301083543010838
:1000D0003743010839430108E1C600083D430108E0
:1000E0003F430108414301084343010845430108D8
:1000F00047430108494301084B4301084D430108A8
:100100004F43010835F900085343010855430108DE
:1001100057430108594301085B4301085D43010847
:100120005F430108614301086343010815F90008B2
:1001300067430108694301086B4301086D430108E7
:100140006F430108714301087343010879290108CD
:1001500077430108794301087B4301087D43010887
:100160007F43010881430108834301088543010857
:1001700087430108894301088B4301088D43010827
:100180008F4301089143010810B5054C237833B91A
:10019000044B13B10448AFF300800123237010BD5A
:1001A0003801002000000000248C0108084B10B525
:1001B0001BB108490848AFF300800848036803B939
:1001C00010BD074B002BFBD0BDE81040184700BF07
:1001D000000000003C010020248C010834010020B4
:1001E00000000000154B002B08BF134B9D46A3F5E4
:1001F000803A00218B460F461348144A121A14F015
:1002000082FD0F4B002B00D098470E4B002B00D0E7
:1002100098470020002104000D000D48002802D05E
:100220000C48AFF3008014F08BFC2000290000F094
:1002300013F814F0BDF800BF000008000000022011
:10024000000000000000000038010020B4C40120BC
:1002500000000000000000002DE98048D7B00FF03A
:10026000CDFABD4B9A6802F00C02042A0BF007820B
:10027000082A0BF0E981B94BB94A1A60B64EB94F5A
:10028000B168B94CB94ADFF818C3B948B94DC1F3E0
:1002900003114FF0C808795C1F68CCF8008027FA7A
:1002A00001F18F09A4FB0774A409196004F1FF3E52
:1002B0000721F02400270523C2F804E085F8234035
:1002C0009760116003608DF86270336C4FF080446A
:1002D00043F001033364238823F45C731B044FF061
:1002E00001081B0CD1222380E1622285A4F814802E
:1002F000A3899BB243EA0803A3811C220F2310A801
:100300008DF840208DF841308DF842308DF84380D3
:100310000CF05CFB2288984B92B242EA08022280E1
:100320001A68B2F5E13F0BF0AF814FF4E1321A6089
:10033000336B924D43EA08033363336B43EA08039C
:100340003363336C04F5003443F400333364236ABD
:1003500023F470632362236A43F4E0632362236A15
:1003600023F470432362236A022143F4E0432362AF
:100370000322204604238DF8441010A98DF845204F
:1003800010938DF846708DF847800CF0CBFA20461C
:10039000082310A910930CF0C5FAAB896FEA434308
:1003A0006FEA53439BB2AB812B8A23F440531B0467
:1003B0001B0C2B82AB899BB223F4B05323F00C03AC
:1003C00043F00C03AB81AB8A23F440731B041B0C7A
:1003D000AB8216A80CF05AFAAA89189B674812F447
:1003E000004F03EB8303664A03EB8303A2FB032363
:1003F00014BF5A0C9A0C634BA3FB02418489480931
:10040000642100FB1121020120040BF11381090179
:100410003231A3FB0113C3F3431343EA0201574BE9
:10042000594A89B21981998989B241F40051998157
:10043000136843F02003136000242623012516A827
:100440008DF858308DF859408DF85A408DF85B5032
:100450000CF0BCFA474B4D4ADA6031238DF85B5003
:100460008DF859408DF85A408DF8583016A80CF088
:10047000ADFA9DF85B303B2101228DF858108DF8C4
:100480005920002B4BF0D180414B4FF00062C3F854
:100490008420314D3F4C2B6B3F4F43F00C032B63BB
:1004A000636A23F00F036362636A43F00C036362C1
:1004B000636A23F0F0036362636A43F0C00363621C
:1004C000636A23F470636362636A43F44063636244
:1004D000636A23F470436362636A43F44043636274
:1004E000636A23F470236362636A43F440236362A4
:1004F0003B6A23F470633B623B6A43F440633B62B4
:100500004FF4706202232046002616A94FF001081E
:1005100016928DF85D308DF85C308DF85E608DF848
:100520005F800CF0FFF93846042316A916930CF0EF
:10053000F9F920464FF4805316A916938DF85F60A1
:100540000CF0F0F96B6C154843F400636B642B6B93
:1005500043F480032B6325E0003802407400002040
:100560000024F40000000020632D3E0510E000E0B0
:100570002800002000ED00E0480200200044004078
:10058000C5B3A2911F85EB510C4400400006FA054B
:1005900000E100E000080240000C0240E06B0108AE
:1005A000240000200CF050F9BF4BC04918689F8808
:1005B0000C901A4653F8080F0E9052F8100F9C88B2
:1005C0009388ADF844300A68B94BADF834709A425C
:1005D000ADF83C4010904AF099875523F022022153
:1005E00016A88DF859308DF8582013F0B1F903464C
:1005F00000280AF04187AF4B04931B68002B4AF098
:10060000FE86AD480CF020F90BAB0393AB4E33687C
:10061000002B47F01585DFF8C882DFF8C8A2A84F85
:100620001D46994616A8CDF82480CDF828A0CDF80F
:1006300058800BF003FB041E4FF000020AA909A822
:10064000C0F2F28457F824300BB183F800900A9B73
:100650000BB183F800900A9B47F824300CF0DEF9C8
:100660000328044600F0C784002847F0F084954B27
:1006700095480293294615F0A7FF01233360DFF860
:1006800068A2924EDAF83030DFF86092904C914DCB
:10069000914F43F00103CAF83030C0234FF00008F7
:1006A000304616A916934FF001038DF85C308DF893
:1006B0005D808DF85E808DF85F800CF033F940230B
:1006C00033834FF080033383DAF8303043F0040390
:1006D000CAF830304FF4005B48464FF0010316A9CA
:1006E0008DF85C30CDF858B08DF85D808DF85E8067
:1006F0008DF85F800CF016F9784BA9F81AB0C3F8A2
:100700000080DAF8303043F01803CAF830304FF286
:10071000B373204616A916934FF003038DF85D308E
:100720004FF680768DF85C808DF85F800CF0FAF8DB
:10073000284616A916960CF0F5F8DAF8303043F092
:100740007803CAF830304FF0030220464CF233737E
:100750004FF0020916A98DF85D2016938DF85C9074
:100760008DF85E808DF85F800CF0DCF8236A23F052
:100770000F032362236A43F00C032362236A23F0EE
:10078000F0032362236A43F0C0032362236A23F445
:1007900070232362236A43F440232362236A23F4F1
:1007A00070032362236A43F440032362636A23F0E5
:1007B0000F036362636A43F00C036362636A23F0AE
:1007C000F0036362636A43F0C0036362636A23F405
:1007D00070636362636A43F440636362636A23F035
:1007E00070636362636A43F040636362636A23F029
:1007F00070436362636A43F040436362284616A90C
:1008000016960CF08FF82B6A23F070432B622B6A3C
:1008100043F040432B626B6A23F00F036B626B6AF9
:1008200043F00C036B626B6A23F0F0036B626B6A3C
:1008300043F0C0036B626B6A23F470636B626B6A94
:1008400043F440636B626B6A23F470436B626B6AC0
:1008500043F440436B626B6A23F470236B626B6AF0
:1008600043F440236B626B6A23F470036B626B6A20
:1008700043F440036B626B6A23F070636B626B6AD4
:1008800043F040636B626B6A23F070436B626B6A88
:1008900043F040436B62204616A9CDF858B00CF0E7
:1008A00041F8636A24E000BFC86A0108B001002073
:1008B000801A060090BC0120486C0108400200200C
:1008C00068010020240100207C6C01080000024027
:1008D000000C0240001002400000086018B1012026
:1008E000606C0108680200200038024000080240E5
:1008F000814D23F470036362636A43F440036362CF
:100900002046802316A916930CF00CF8236A23F0D6
:1009100070432362236A43F040432362DAF838309D
:100920004FF0204143F001030F240D2041F210024B
:10093000CAF8383016941890CDF85C80CDF86480F1
:10094000CDF86880CDF86C80CDF870800A60169B79
:100950000593059A1C9B179E189C1A98134343EA0B
:100960000613199A43EA042343EA02431B9A43EA13
:10097000005343EA02626FF070434A602B600B68D9
:1009800043F001034FF0C0440B6014200BF07EFED7
:100990004FF0010323800A200BF078FECB23238045
:1009A00039224FF02C033A804FF0C10B3B803421A9
:1009B000CF2030254FF0E80E85264FF0780CEA2343
:1009C000A7F800804FF0ED0A39808122A7F8009047
:1009D000122120804FF0F709A7F800806420A7F8C3
:1009E00000B03D80A4F800E03E80A7F80080A7F8A2
:1009F00000C023804FF0200C4FF00303A7F80080C5
:100A00004FF0230EA7F800801026A4F800A0C525FB
:100A100038803B803E20398086233A802821A4F804
:100A20000090C722A7F800C04FF0C00CA4F800C087
:100A30004FF0B60AA7F800E04FF08209A4F800B022
:100A40003E804FF0080B2580F2263880B125398092
:100A500022803B800DF0A2FA55224FF0180C4FF087
:100A6000270E3A23112123800A203A802580A7F8F7
:100A70000080A7F800C0A4F800A0A7F800B0A7F86D
:100A80000090A7F800E02680A7F8008021800BF0F6
:100A9000FDFD292323804046EF210DF0B5FA4046A5
:100AA00040F23F110DF09CFA4FF02C0323803946A1
:100AB00040464FF4A074F023013B08804FF0000241
:100AC000FAD1013CF7D10D4B0D4D93E803000C4BCF
:100AD0006A7483E8030001230A490B486C6285F8B5
:100AE000294085F828202B7413F0EEFE05460028D7
:100AF00073D0064F12E000BF040100A0946F0108FC
:100B000034B101209C6F0108A06F01081300800020
:100B10000023037016A815F00FFED0B92A464FF433
:100B2000807116A813F0D8FD002851D0232116A8F3
:100B300015F0E2FD04460028EAD13B2116A815F085
:100B4000DBFD0028E6D0047016A815F0F5FD00289E
:100B5000E4D0431E16A90B44C01A1A78093AD2B23F
:100B600027FA02F1172A01F0010246F2A1873D217E
:100B700016A815F0C1FD03460028CFD00022027050
:100B8000804916A85C1C15F099FD0028C6D07E4946
:100B900016A815F093FD064600280AF0D5837B4978
:100BA00016A815F08BFD00284AF0B5837849204639
:100BB00015F084FD00284AF0A383764A01231374BC
:100BC0004FF480712A4616A813F086FD0028ADD197
:100BD0000EF05AFA284613F051FC6E4B5A6A0AB9C5
:100BE00001225A621E226B496B4815F0ADFD12F0CE
:100BF000A1FC0EF0DDFD674B5B6ADD070AF1258382
:100C0000644B5B6A9C070AF13181624B5B6A5C074B
:100C10000AF1FB80DFF8CCB1DFF8CCA15F4B1B6899
:100C2000002B40F0B5825E4B5D4A1B68002B40F004
:100C3000BA825C4B1B78002B68D15B4B1A78002A78
:100C400064D15A4B5A495B481B7809880180584D3A
:100C50005648002B48D0584B574C1B78002B43D09C
:100C600002708B0B5548227050F82300504AC1F394
:100C70000D03C35C762B04BF4B1C2B80504B10889C
:100C80001B88013B9AB24E4BB2F5804F1A800DD3B0
:100C9000B2F5B64F02D24B4901230B70930BC2F34E
:100CA0000D01464A52F82320030A5354444B1B8833
:100CB000013B9AB2424BB2F5804F1A800CD3B2F589
:100CC000B64F02D23F4901230B70930B3B49C2F34D
:100CD0000D0251F8233098543B4B1B78012B44F202
:100CE0002D87022B05F0EC83314B1A88B2F5804F2B
:100CF000C4F02E87354B1B7803F0FF02002B04F065
:100D00006487334B1B68002B44F0AA87284B2B4C7D
:100D10001988304B18688B0BC1F30D0254F823303F
:100D20009C5C002862D043F6FE43994204F0DF86C3
:100D300043F6FF43994259D1274B1B68002B05F01E
:100D40005E80264B264A1B682449D25C0133802BE7
:100D50000B6008BF0023D2B2084608BF0B6072B612
:100D60001D4B1D491B68013B0B6062B69AF80630AB
:100D70008AF8072043F001030D2A8AF8063005F0AF
:100D80005A8333E0AC6F010830800108B46F01086A
:100D9000C06F010834B10120CCBD012064010020E6
:100DA000B4010020B9BD0120ECBD012009BD012026
:100DB000F4BC0120EEBD01209001002020B10120F3
:100DC00074BD01209100002008BD012020000020FA
:100DD0009C010020C8BD0120440200203C020020EC
:100DE000BC010020F8BC012068BD0120FF2C05F2E9
:100DF000C583DFE814F03118801A5C1AC31273122D
:100E0000382019200626FE1F3D26CE232426311B1E
:100E1000B71C8D1C4F256B1C6F25B1217F162F161B
:100E20009B1D7C1D561D3F1DCD19A519EB1D551988
:100E3000B6254E226124EB1B652117212F12E311E9
:100E40001524E923A62088201822D521CD1B811B3B
:100E5000D917BA17A31785175E1724171317A516E6
:100E6000CC2489243B25932191236223A5250C1AA8
:100E70001223F322231D071D071D071D071D071D34
:100E8000071D9522071D6D226D226D226D226D2298
:100E90006D22C4226D224D124D124D124D124D1273
:100EA0004D12C71A4D12AB1AAB1AAB1AAB1AAB1ACA
:100EB000AB1AF61AAB1A12161216121612161216D0
:100EC0001216E3151216C615C615C615C615C61593
:100ED000C6159715C6155D155D155D155D155D1576
:100EE0005D154D155D15311531153115311531155E
:100EF0003115021531159F149F149F149F149F14D0
:100F00009F1429149F14C313C313C313C313C31310
:100F1000C3133F13C313DC12DC12DC12DC12DC122D
:100F2000DC12301FDC12C91EC91EC91EC91EC91E13
:100F3000C91E4F1EC91E041E041E041E041E041ECC
:100F4000041E0419041EC818C818C818C818C818E0
:100F5000C8187918C8183D183D183D183D183D1897
:100F60003D18AF1F3D18091C091C091C091C091C50
:100F7000091C6E11091C47111A11F310C5106E10CF
:100F80002D10CD0F920F6B0F220EFB0D960D3F0D06
:100F90000C0FA60E6B0E440EA709800963090C09FD
:100FA000790B190BD40AAD0A7A0A530A360ADF09FB
:100FB000830C1C0CE10BBA0BC00C990CF20CB5089D
:100FC0002708EC07B1078A07A1086B086E07170707
:100FD0007A0641060606DF05A3057C056D051705A3
:100FE000D70465049D0429041104EB03DD03870382
:100FF00076031803350101350A200BF047FB0A2D53
:101000007FF410AB114B02931B68114A1149D86849
:1010100014F07AFF029B10481B681B22DB68012139
:1010200014F0D2FFFFF72BBB084B02931B68084A52
:101030000849D86814F068FF029B08481B68202202
:10104000DB68012114F0C0FFFFF719BB2401002069
:10105000A06C0108A86C0108FC6C0108106E010866
:10106000BA4BBB491B880888DBF80020013B99B2CA
:10107000431CB6480B32B1F5804F0180CBF80020FD
:1010800098B20DD3B1F5B64F02D2B24A0123137014
:101090008B0BB14AC1F30D0152F82320030A5354BC
:1010A000AA4B1B88013B9AB2A84BB2F5804F1A801D
:1010B0000CD3B2F5B64F02D2A64901230B70930BA5
:1010C000A549C2F30D0251F823309854A04A3823A1
:1010D0001380A24B1B7813B9A14B1B785BB1A14BBA
:1010E000A04A1B78002B00F00A829C4900230B7059
:1010F0009B4913700B709C4BDBF800201B689B49CD
:1011000013F0030F40F29F2318BF4FF428739A4245
:10111000FFF484AD964804689648406AD31A4007A5
:101120000B6004F10A0405F16081924B5B6A990738
:1011300005F15681049B1B6863B18F4B1A68002A26
:1011400045F0DB818D4B8D491B680133642B0B60AF
:1011500005F08982874BDB6A002B00F05A81884BAF
:101160001C60814B82491A68854B1B680B60531CBD
:101170007D4A642B136011467FF450AD00220A6053
:10118000804A01231370804B1B68002B3FF44BAD4A
:101190007D4A002313600EF011F87C4B7B4A1B68DC
:1011A000002B3FF446AD002479497A48146013F0CF
:1011B0008BFB8046002805F09C808DF820408DF840
:1011C00021408DF822400EF0F3FA7349404612F0A8
:1011D00033F97249404612F02FF97149404612F036
:1011E0002BF97049404612F027F96F49404612F03A
:1011F00023F96E49404612F01FF95549404612F056
:1012000035F95249404612F031F96949404612F029
:1012100013F90DF12201404612F00EF908A94046DB
:1012200012F00AF99DF82030FF2B05F0428003F000
:10123000200303F0FF02002B44F0E98515469DF8DA
:1012400020305C4A5C49C3F342034046137012F0FD
:10125000F3F85A49404612F0EFF85949404612F067
:10126000EBF85849404612F0E7F85749404612F06B
:10127000E3F85649404612F0DFF85549404612F06F
:10128000DBF85449404612F0D7F85349404612F073
:10129000D3F85249404612F0CFF85149404612F077
:1012A000CBF85049404612F0C7F84F49404612F07B
:1012B000C3F84E49404612F0BFF80DF121014046F7
:1012C00012F0BAF89DF82130002B04F09485484ABA
:1012D000012313704749404612F0AEF80DF1210189
:1012E000404612F0A9F81A4A9DF821301488424A63
:1012F00003F003031370002C04F09585D5B94FF467
:10130000804401250DF12101404612F095F8B4F515
:10131000B64F38BF0F489DF8212038BF0570A30B8A
:101320000D48C4F30D0150F823300134B4F5803F6B
:101330005A54E7D1064B314A1B881380094B0024CD
:101340001C70064BCBF800405AE000BF74BD012072
:10135000F4BC01209100002020B10120B9BD012082
:10136000ECBD0120EBBD012094010020F8BC012060
:101370007001002034B101208CBC01209C040020AD
:10138000540200209001002064010020B4010020DC
:10139000FC6F0108083100206FBD01206EBD0120E7
:1013A00069BD012068BD01206DBD01206CBD01201B
:1013B000A0040020F83000206BBD01206ABD012090
:1013C000BDBD0120BCBD0120BFBD0120BEBD0120AF
:1013D000C1BD0120C0BD0120C3BD0120C2BD01208F
:1013E00073BD012072BD012071BD012070BD0120BF
:1013F00009BD01206C01002008BD0120EEBD0120C7
:101400001C70A44B40461C7013F038F8A24B1C70A3
:101410000FE4A24B1B689C427FF6A3AE9F4B1B6858
:101420009C42F6D89DE69E4B9E4F1E88DBF80050EE
:101430009AF807409C48731C9BB29A0BC3F30D01AA
:1014400057F82220964F3B80EB1DCBF80030515CC3
:1014500004F00F0201F00F03D31A13F0100F837979
:1014600014BF43F0100323F01003837181EA0403D7
:10147000621A180695B246F1C58184EA020319067C
:1014800046F1C0819AF8063043F004038AF806302A
:101490009AF806308249EA054CBF43F0010323F075
:1014A00001038AF806309AF8063015F0FF0F14BFD2
:1014B00023F0400343F040038AF806309AF80630E0
:1014C0002C064CBF63F07F0303F07F038AF80630DD
:1014D0009AF80630B21C43F002030A808AF80630FC
:1014E000F7E56F4B6E491B885A1C0A80694A012335
:1014F00013706E4B6D4A1B78002B7FF4F6AD012301
:101500001370F8E5664B674E1C889AF806501F4624
:10151000631C9BB29A0B3B80C3F30D0056F822105C
:10152000A31C9AB22D0611F800E03A8045F190878D
:101530005F49930B098856F82350DBF80060C2F32B
:101540000D004B1EE21C99B294B2594A285C1180DE
:1015500006F11103B1F5804FCBF800300DD3B1F592
:10156000B64F02D2534A012313708B0B4D4AC1F37D
:101570000D0152F82320230A53544D4B1B88013B85
:101580009AB24B4BB2F5804F1A800CD3B2F5B64FDE
:1015900002D2484901230B70930B4249C2F30D025A
:1015A00051F823309C543E4A0EEB0023138090E503
:1015B0003B4ADBF8003012883949013204330A8093
:1015C0003D4ACBF800300123137082E5344BDBF841
:1015D00000101D88DFF8CCE09AF806601F466B1CEF
:1015E0009BB29A0B3B8001F10A005EF82240CBF8D7
:1015F0000000C3F30D01AB1C9AB23606615C3A8061
:1016000045F12F87930BC2F30D025EF823309B5CEC
:1016100001EB03233B805CE5284B1B78002B05F096
:101620008D85DBF800209AF808109AF809300A3204
:10163000CBF800201E4A43EA01231380184B184AB6
:101640001B880133138044E59AF806301B0645F1E8
:101650008285174BDBF800501C88631C98B2A10BE5
:1016600005F10B030F4DCBF8003055F82110C4F3F2
:101670000D03820BC95C0E4B55F822501880C0F345
:101680000D02AB5C41EA032305490B80084BA21C09
:101690001A801EE5ECBD01209001002054020020BC
:1016A000F4BC012020B1012068BD0120EBBD012068
:1016B00074BD01209100002009BD0120B9BD0120A9
:1016C000B54BB64D1C88DBF800109AF80700631C78
:1016D0009BB29A0B073155F82220AF4DCBF8001082
:1016E0002B80C3F30D03D35CAD4A18438AF807007F
:1016F0009379002844F0D88743F0400393719AF817
:10170000063003F07F038AF80630A64B9AF80610DD
:101710001A5CA34801F0EC038AF80630002A05F0B1
:10172000B48443F0040383719B4AA31C1380D0E468
:101730009D4B99491B880888DBF80020013B99B232
:10174000431C99480B32B1F5804F0180CBF8002043
:1017500098B20DD3B1F5B64F02D2944A012313705B
:101760008B0B8E4AC1F30D0152F82320030A535408
:101770008D4B1B88013B9AB28B4BB2F5804F1A8080
:101780000CD3B2F5B64F02D2884901230B70930BEC
:101790008249C2F30D0251F8233098547E4A302317
:1017A000138096E4804B9AF806001B889AF807404D
:1017B000DBF80020013B99B240EA04237A480B325F
:1017C000B1F5804F0180CBF8002018B20ED3B1F5EF
:1017D000B64F02D2754A012313708B0B6F4AC1F3C7
:1017E0000D0152F82320C0F3072353546E4B1B887E
:1017F000013B9AB26C4BB2F5804F1A800CD3B2F514
:10180000B64F02D2694901230B70930B6349C2F3AF
:101810000D0251F8233098545F4B5F4A1B88013307
:10182000138056E45C4B5D4E1C889AF806501F46A8
:10183000631C9BB29A0BC3F30D0056F822103B8039
:10184000A31C11F800E09AB228063A8005F1B88787
:101850005549930B098856F82350DBF80060C2F312
:101860000D004B1EE21C99B294B24F4A285C1180C5
:1018700006F11103B1F5804FCBF800300DD3B1F56F
:10188000B64F02D2494A012313708B0B434AC1F36E
:101890000D0152F82320230A5354434B1B88013B6C
:1018A0009AB2414BB2F5804F1A800CD3B2F5B64FC5
:1018B00002D23E4901230B70930B3849C2F30D024B
:1018C00051F823309C54344A0EEB0023138000E47B
:1018D000314ADBF8003012882F49013204330A8084
:1018E000334ACBF8003000231370FFF7F2BB2A4BCA
:1018F000DBF800101D88DFF8A4E09AF806601F46A8
:101900006B1C9BB29A0B01F10A005EF822403B80EF
:10191000C3F30D01CBF80000AB1C615C9AB2340636
:101920003A8005F15687930BC2F30D025EF823301F
:101930009B5C01EB03233B80FFF7CBBB1A4BDBF82F
:1019400000401D88144B1F886B1C98B2A90B04F132
:101950000A03124CCBF80030820B54F821400F4997
:10196000C5F30D0351F82260E25C0F4BC0F30D018B
:101970001880735C42EA03231BB2C3F307208AF882
:101980000630094B8AF80700A91C1980024B7A1C03
:101990001A80FFF79EBB00BFF4BC012020B10120DC
:1019A00068BD0120E06A010874BD0120910000209B
:1019B00009BD01209AF806301D0605F1DD84934B20
:1019C000DBF800501C88631C98B2A10B05F10B03D7
:1019D0008F4DCBF8003055F82110C4F30D03820B66
:1019E000C95C8A4B55F822501880C0F30D02AB5CDD
:1019F00041EA032387490B80844BA21C1A80FFF71E
:101A000068BB824B83491B880888DBF80020013BB8
:101A100099B2431C7D480B32B1F5804F0180CBF861
:101A2000002098B20DD3B1F5B64F02D27A4A012305
:101A300013708B0B764AC1F30D0152F82320030A71
:101A40005354724B1B88013B9AB2704BB2F5804FD6
:101A50001A800CD3B2F5B64F02D26F4901230B7036
:101A6000930B6B49C2F30D0251F823309854694A25
:101A700028231380FFF72DBB664B654D1C88DBF8D0
:101A800000109AF80700631C9BB29A0B073155F8B7
:101A90002220604DCBF800102B80C3F30D03D35CE4
:101AA0005E4A58408AF807009379002844F0E085A0
:101AB00043F0400393719AF8063003F07F038AF8ED
:101AC0000630574B9AF806101A5C544801F0EC03A4
:101AD0008AF80630002A05F03A8443F00403837143
:101AE0004C4AA31C1380FFF7F4BA4A4B48481F889E
:101AF0007B1C9BB29A0BC3F30D0150F82220454882
:101B00000380525CA2F140037B2B07F20D86DFE8D5
:101B100013F0DF3DAC3D4D3DE83C9D3C7B3C6E3CD5
:101B2000513C253CF73B993B5F3B9D3C3D3B303B6B
:101B3000263B373A233A913AD0399D3C7B3C0B3BCC
:101B4000683A9F398B392939E2389D3C7B3CD5383E
:101B5000CB388A3876383038DD379D3C7B3C7B4249
:101B600031420342EF415B411B419D3C7B3CF440D1
:101B70009F4058404540EA3F9B3F9D3C7B3C703F27
:101B80000B3E433F213FC73EF5469D3C7B3CE8462C
:101B90000B3E0B3E0B3E0B3E0B3E0B3E0B3E0B3EFD
:101BA0000B3E0B3E0B3E0B3E0B3E0B3E0B3E0B3EED
:101BB0000B3E0B3E0B3E0B3E0B3E0B3E0B3E0B3EDD
:101BC0000B3E0B3E0B3E0B3E0B3E0B3E0B3E0B3ECD
:101BD0000B3E7844194496465C460B3E0B3E0B3E4A
:101BE0000B3E1043B142D1458F450B3E0B3E0B3EA1
:101BF0000B3EB1436E43F944D6440B3E0B3E0B3EC5
:101C00000B3E673E243EB847954700BF74BD012098
:101C100020B10120F4BC01209100002068BD01200A
:101C2000E06A0108BD4BBE4E1C889AF806501F465C
:101C3000631C9BB29A0BC3F30D0056F822103B8035
:101C4000A31C11F800E09AB268073A8045F18B8333
:101C5000B449930B098856F82350DBF80060C2F3AF
:101C60000D004B1EE21C99B294B2AE4A285C118062
:101C700006F11103B1F5804FCBF800300DD3B1F56B
:101C8000B64F02D2A84A012313708B0BA44AC1F3AA
:101C90000D0152F82320230A5354A24B1B88013B09
:101CA0009AB2A04BB2F5804F1A800CD3B2F5B64F62
:101CB00002D29D4901230B70930B9949C2F30D0287
:101CC00051F823309C54954A0EEB00231380FFF704
:101CD00000BA924BDBF800101A889AF803309AF891
:101CE00005008AF805300B1DCBF800308B4B9AF8B5
:101CF00004108AF8030001321A809AF802308AF838
:101D000004308AF80210FFF7E4B99AF806305D074C
:101D100045F15083834BDBF800501C88631C98B25C
:101D2000A10B05F10B037E4DCBF8003055F82110C7
:101D3000C4F30D03820BC95C7A4B55F8225018800E
:101D4000C0F30D02AB5C41EA032374490B80754B71
:101D5000A21C1A80FFF7BDB9724B70491B88088816
:101D6000DBF80020013B99B2431C6E480B32B1F501
:101D7000804F0180CBF8002098B20DD3B1F5B64F5B
:101D800002D2694A012313708B0B654AC1F30D011E
:101D900052F82320030A5354624B1B88013B9AB22A
:101DA000604BB2F5804F1A800CD3B2F5B64F02D219
:101DB0005D4901230B70930B5949C2F30D0251F891
:101DC00023309854554A20231380FFF782B9534B90
:101DD000534C1D88DBF800109AF807006B1C9BB26F
:101DE0009A0B073154F822204C4CCBF8001023807A
:101DF000C3F30D03D35C4D4A18408AF8070093796A
:101E0000002844F0408443F0400393719AF8063070
:101E100003F07F038AF806309AF80610444B434CCF
:101E2000185C01F0FC0242F010038AF8063000282A
:101E300005F0928242F01403A371384AAB1C138060
:101E4000FFF747B93B4B1B78002B05F0A182DBF86D
:101E500000309AF808109AF809200F33CBF80030B8
:101E600042EA01202F4B1B88013B9AB22D4BB2F561
:101E7000804F1A800DD3B2F5B64F02D22A49012302
:101E80000B70930BC2F30D01254A52F82320030A6D
:101E90005354244B1B88013B9AB2224BB2F5804F1E
:101EA0001A800CD3B2F5B64F02D21F4901230B7032
:101EB000930B1B49C2F30D0251F823309854174B72
:101EC000164A1B8801331380FFF703B9134BDBF865
:101ED00000101D88DFF848E09AF806601F466B1C6A
:101EE0009BB29A0B01F10A005EF822403B80C3F3DB
:101EF0000D01CBF80000AB1C615C9AB274073A800C
:101F000045F1FE80930BC2F30D025EF823309B5C1B
:101F100001EB03233B80FFF7DCB800BFF4BC0120DA
:101F200020B1012074BD01209100002068BD012076
:101F3000E06A0108B9BD0120994B1B78002B05F020
:101F40004B81DBF800309AF808109AF80920083322
:101F5000CBF8003042EA0123924A1380FFF7B9B868
:101F6000904B914E1C889AF806501F46631C9BB2FA
:101F70009A0B3B80C3F30D0056F82210A31C9AB2B3
:101F80006B0711F800E03A8005F1B1808749930BA7
:101F9000098856F82350DBF80060C2F30D004B1E91
:101FA000E21C99B294B2814A285C118006F11103B7
:101FB000B1F5804FCBF800300DD3B1F5B64F02D25A
:101FC0007B4A012313708B0B774AC1F30D0152F842
:101FD0002320230A5354754B1B88013B9AB2734B41
:101FE000B2F5804F1A800CD3B2F5B64F02D27049C9
:101FF00001230B70930B6C49C2F30D0251F823308F
:102000009C54684A0EEB00231380FFF762B8654BBF
:10201000654E1C889AF806501F46631C9BB29A0BAB
:10202000C3F30D0056F822103B80A31C11F800E00A
:102030009AB2E9073A8005F167805C49930B0988F9
:1020400056F82350DBF80060C2F30D004B1EE21C73
:1020500099B294B2554A285C118006F11103B1F58A
:10206000804FCBF800300DD3B1F5B64F02D2504AB5
:10207000012313708B0B4C4AC1F30D0152F823203E
:10208000230A5354494B1B88013B9AB2474BB2F584
:10209000804F1A800CD3B2F5B64F02D244490123C7
:1020A0000B70930B4049C2F30D0251F823309C543E
:1020B0003C4A0EEB00231380FFF70BB8394B3A4C28
:1020C0001B88DBF800009AF8072001339BB2990BBC
:1020D0000B3054F82110334CCBF800002380C3F3AD
:1020E0000D039AF80000C95C0DF0D8FA238801337B
:1020F0002380FEF7EEBF2B4BDBF800101D88DFF8C6
:10210000A8E09AF806601F466B1C9BB29A0B01F17F
:102110000A003B805EF82240CBF80000C3F30D01BB
:10212000AB1C9AB2F007615C3A8004F1F687930B1E
:10213000C2F30D025EF823309B5C01EB03233B806E
:10214000FEF7C7BF194BDBF800401D88154B1F88F1
:102150006B1C98B2A90B04F10A03134CCBF80030A6
:10216000820B54F821401049C5F30D0351F8226049
:10217000E25C0E4BC0F30D011880735C42EA03234E
:102180001BB2C3F307208AF80330084B8AF8020019
:10219000A91C1980034B7A1C1A80FEF79ABF00BF56
:1021A000B9BD0120F4BC012020B1012074BD012083
:1021B00091000020974B984E1C889AF806501F46B5
:1021C000631C9BB29A0BC3F30D0056F822103B80A0
:1021D000A31C11F800E09AB2E9073A8044F1C787DE
:1021E0008E49930B098856F82350DBF80060C2F340
:1021F0000D004B1EE21C99B294B2884A285C1180F3
:1022000006F11103B1F5804FCBF800300DD3B1F5D5
:10221000B64F02D2824A012313708B0B7E4AC1F360
:102220000D0152F82320230A53547C4B1B88013B99
:102230009AB27A4BB2F5804F1A800CD3B2F5B64FF2
:1022400002D2774901230B70930B7349C2F30D023D
:1022500051F823309C546F4A0EEB00231380FEF795
:1022600038BF6C4B6C4C1B88DBF800109AF80700E9
:1022700001339BB29A0B0B3154F82220654CCBF8FA
:1022800000102380C3F30D03D15C0DF043F92388C4
:102290008AF8070001332380FEF71BBF5D4BDBF894
:1022A00000101D88DFF870E19AF806601F466B1C6D
:1022B0009BB29A0B01F10A003B805EF82240CBF8FA
:1022C0000000C3F30D01AB1C9AB2F007615C3A80C9
:1022D00044F15687930BC2F30D025EF823309B5CEA
:1022E00001EB03233B80FEF7F4BE4A4BDBF8001002
:1022F0001A884C4B9AF800001B788AF800300B1DA6
:102300004449CBF8003001320A80464A9AF801303D
:102310001070444851789AF80220437083788AF804
:10232000011082709AF80310C2788AF802309AF885
:102330000430C1708AF8032001799AF805200371EE
:1023400043798AF8041042718AF80530FEF7C1BE5D
:102350009AF80630DC0744F11787304BDBF8005061
:102360001C88631C98B2A10B05F10B032A4DCBF816
:10237000003055F82110C4F30D03820BC95C274BC4
:1023800055F822501880C0F30D02AB5C41EA0323DC
:1023900020490B80214BA21C1A80FEF79ABE1F4BCE
:1023A0001C491B880888DBF80020013B99B2431CBC
:1023B0001A480B32B1F5804F0180CBF8002098B25B
:1023C0000DD3B1F5B64F02D2154A012313708B0B12
:1023D000114AC1F30D0152F82320030A53540F4B45
:1023E0001B88013B9AB20D4BB2F5804F1A800CD37B
:1023F000B2F5B64F02D20A4901230B70930B06497E
:10240000C2F30D0251F823309854024A102313806E
:10241000FEF75FBEF4BC012020B1012074BD012095
:1024200091000020BCBD0120B94BBA4F1E88DBF8DB
:1024300000509AF80740B848731C9BB29A0BC3F33C
:102440000D0157F82220B24F3B80EB1DCBF8003036
:10245000515C04F00F0201F00F03D31A13F0100FB8
:10246000837914BF43F0100323F01003837181EAD2
:102470000403621A1B0695B244F1928684EA0203B1
:10248000180644F18D869AF8063043F004038AF862
:1024900006308AF80720A04A9379E9054CBF43F03B
:1024A000010323F0010393719AF80630984915F05F
:1024B000FF0F14BF23F0400343F040038AF80630B7
:1024C0009AF806302D064CBF63F07F0303F07F03BC
:1024D0008AF806309AF80630B21C43F002030A80EC
:1024E0008AF80630FEF7F5BD8C4B9AF803001B887E
:1024F0009AF80240DBF80020013B99B240EA04233D
:1025000086480B32B1F5804F0180CBF8002018B21D
:102510000ED3B1F5B64F02D2814A012313708B0B53
:102520007C4AC1F30D0152F82320C0F30723535412
:102530007A4B1B88013B9AB2784BB2F5804F1A80D8
:102540000CD3B2F5B64F02D2754901230B70930B31
:102550007049C2F30D0251F8233098546C4B6C4A09
:102560001B8801331380FEF7B4BD9AF806305C0770
:1025700004F11E86694BDBF800501C88631C98B27E
:10258000A10B05F10B03634DCBF8003055F821107A
:10259000C4F30D03820BC95C604B55F822501880C0
:1025A000C0F30D02AB5C41EA032359490B805B4B3E
:1025B000A21C1A80FEF78DBD584B55491B88088810
:1025C000DBF80020013B99B2431C54480B32B1F5B3
:1025D000804F0180CBF8002098B20DD3B1F5B64FF3
:1025E00002D24F4A012313708B0B4A4AC1F30D01EB
:1025F00052F82320030A5354484B1B88013B9AB2DC
:10260000464BB2F5804F1A800CD3B2F5B64F02D2CA
:10261000434901230B70930B3E49C2F30D0251F85D
:10262000233098543A4A18231380FEF752BD384B92
:10263000384EB3F800E0DBF800009AF807509AF83B
:102640000640354F0EF101039BB29A0BC3F30D0107
:1026500056F822202E4E3380C31DCBF80030505C3C
:1026600005F00F0200F00F03D11A04F001032A1A3B
:10267000C91AD31A9EB2CB064CBF44F0100324F003
:102680001003BB7180EA05031C0644F19D8585EAB1
:102690000603180644F198859AF8063043F00403BF
:1026A0008AF806301C4A8AF807609379F1054CBF16
:1026B00043F0010323F0010393719AF806301449A3
:1026C00016F0FF0F14BF23F0400343F040038AF8D5
:1026D00006309AF8063035064CBF63F07F0303F0EE
:1026E0007F038AF806309AF806300EF1020243F0B2
:1026F00002030A808AF80630FEF7EBBC044B04495B
:102700001B885A1C0A80074A01231370FEF7E7BC96
:10271000F4BC012020B1012068BD012074BD01205E
:1027200091000020B9BD0120AA4BDBF800101D88E4
:10273000DFF8ACE29AF806601F466B1C9BB29A0B5E
:1027400001F10A003B805EF82240CBF80000C3F3A1
:102750000D01AB1C9AB27007615C3A8004F1A88449
:10276000930BC2F30D025EF823309B5C01EB032355
:102770003B80FEF7AEBC984B1B78002B04F04685DF
:10278000964BDBF800501C88631C98B2A10B05F136
:102790000E03934DCBF80030820B55F82150904931
:1027A000C4F30D0351F82260EA5C8C4BC0F30D01B9
:1027B0001880735C42EA03231BB2C3F307218AF833
:1027C0000930864B8AF80810A21C1A80814B814A76
:1027D0001B8801331380FEF77CBC7F4B93F800808D
:1027E000B8F1000F04F05684DBF800309AF8095075
:1027F0009AF808E01733CBF80030784B78481A88FD
:10280000531C9F13C3F30D0C754B910B53F82730DA
:1028100050F8210013F80C60C2F30D03B2F5804F9D
:102820000393C45C07D3B2F5B64F02D26D490123BE
:102830000B70039BC55443F6FE739A420BDD45F6BD
:10284000FE239A4202DC674A01231370644B53F85B
:10285000273003F80CE0B8F1000F04F07F878AF806
:1028600009408AF808605B4B5A4A1B880133138081
:10287000FEF72FBC574B5A4E1C889AF806501F463D
:10288000631C9BB29A0BC3F30D0056F822103B80D9
:10289000A31C11F800E09AB269063A8044F1EA817B
:1028A0004E49930B098856F82350DBF80060C2F3B9
:1028B0000D004B1EE21C99B294B2484A285C11806C
:1028C00006F11103B1F5804FCBF800300DD3B1F50F
:1028D000B64F02D2434A012313708B0B404AC1F317
:1028E0000D0152F82320230A53543C4B1B88013B13
:1028F0009AB23A4BB2F5804F1A800CD3B2F5B64F6C
:1029000002D2384901230B70930B3549C2F30D02F3
:1029100051F823309C542F4A0EEB00231380FEF70E
:10292000D8BB2D4B1D78002D43F0C9862E4B1B784C
:10293000002B43F0C486274B29481B8801339BB2E8
:102940009A0BC3F30D0150F8222022480380535CF8
:1029500003F0F80203F00704382A05F2B585DFE832
:1029600012F0422EB32DB32DB32DB32DB32DB32DB5
:10297000B32DF82DB32DB32DB32DB32DB32DB32D12
:10298000B32D432FB32DB32DB32DB32DB32DB32DB5
:10299000B32DF72EB32DB32DB32DB32DB32DB32DF2
:1029A000B32DCA2FB32DB32DB32DB32DB32DB32D0E
:1029B000B32D8B2EB32DB32DB32DB32DB32DB32D3E
:1029C000B32D4041B32DB32DB32DB32DB32DB32D66
:1029D000B32D3D41F4BC0120B9BD012074BD0120DF
:1029E00020B1012091000020ECBD0120B24BDBF8AA
:1029F00000101D88DFF8C8E29AF806601F466B1CBD
:102A00009BB29A0B3B8001F10A005EF82240CBF8A2
:102A10000000C3F30D01AB1C9AB27306615C3A80EF
:102A200044F15583930BC2F30D025EF823309B5C97
:102A300001EB03233B80FEF74CBBA04BDBF80050BF
:102A40001C88631C98B2A10B05F10A039C4DCBF8BE
:102A5000003055F82110C4F30D03820BC95C974B6D
:102A600055F822501880C0F30D02AB5C41EA0323F5
:102A700091490B80914BA21C1A80FEF72ABB9AF851
:102A80000630DC0704F127838C4BDBF800501C88F0
:102A9000631C98B2A10B05F10B03894DCBF80030F4
:102AA00055F82110C4F30D03820BC95C834B55F814
:102AB00022501880C0F30D02AB5C41EA03237E492B
:102AC0000B807E4BA21C1A80FEF703BB7B4B7A491E
:102AD0001B880888DBF80020013B99B2431C77482B
:102AE0000B32B1F5804F0180CBF8002098B20DD3A6
:102AF000B1F5B64F02D2734A012313708B0B704AA3
:102B0000C1F30D0152F82320030A53546B4B1B8869
:102B1000013B9AB2694BB2F5804F1A800CD3B2F5E3
:102B2000B64F02D2674901230B70930B6449C2F37D
:102B30000D0251F8233098545F4A08231380FEF7A2
:102B4000C8BA5D4B5E481F88DBF8003003937B1CDE
:102B50009BB29A0BC3F30D0150F8222056489AF805
:102B600006400380039B9AF80750574E0733CBF873
:102B70000030505C05F00F0304F001010B4400F03D
:102B80000F021A44D20600EB050319444CBF44F06F
:102B9000100324F01003B37180EA0503DB0944F04D
:102BA000B68185EA01031B0644F1B1819AF806302B
:102BB00043F004038AF80630434A8AF807109379F1
:102BC000CE054CBF43F0010323F0010393719AF843
:102BD000063011F0FF0F14BF23F0400343F0400311
:102BE0008AF806309AF806300D064CBF63F07F0372
:102BF00003F07F038AF806309AF806302E49BA1C93
:102C000023F002030A808AF80630FEF762BA2A4BE4
:102C1000DBF800501C88294B1E88631C9AB2A31C49
:102C200098B2910B264B53F82110234B1A8005F1D3
:102C30001103C2F30D02CBF800308D5C204A830BE8
:102C400052F823101C4B1880C0F30D03721ECB5C8E
:102C500005EB0323E11C92B29CB2184BB2F5804FF6
:102C600088B21A800DD3B2F5B64F02D215490123AE
:102C70000B70930BC2F30D01114A52F82320030A83
:102C800053540E4B1B88013B9AB20C4BB2F5804F4C
:102C90001A800CD3B2F5B64F02D20A4901230B7049
:102CA000930B0749C2F30D0251F823309854024B9D
:102CB0001C80FEF70EBA00BFF4BC012074BD0120D9
:102CC00020B101209100002068BD01209AF8063053
:102CD0005A0644F12481BC4BDBF800501C88631C6D
:102CE00098B2A10B05F10B03B84DCBF8003055F8A5
:102CF0002110C4F30D03820BC95CB34B55F822506D
:102D00001880C0F30D02AB5C41EA0323B0490B808D
:102D1000AD4BA21C1A80FEF7DCB9AB4BAC491B884B
:102D20000888DBF80020013B99B2431CA6480B320F
:102D3000B1F5804F0180CBF8002098B20DD3B1F5EA
:102D4000B64F02D2A34A012313708B0B9F4AC1F3E3
:102D50000D0152F82320030A53549B4B1B88013B5F
:102D60009AB2994BB2F5804F1A800CD3B2F5B64F98
:102D700002D2984901230B70930B9449C2F30D02C0
:102D800051F823309854924A00231380FEF7A1B9DA
:102D90008F4B8E4F1E88DBF800509AF807408E4804
:102DA000731C9BB29A0BC3F30D0157F82220884F76
:102DB0003B80EB1DCBF80030515C04F00F0201F0BA
:102DC0000F03134413F0100F837914BF43F0100363
:102DD00023F01003837181EA04036218DB0995B2C2
:102DE00044F0B28084EA02031C0644F1AD809AF8F4
:102DF000063043F004038AF806308AF80720764A42
:102E00009379E8054CBF43F0010323F0010393716C
:102E10009AF8063015F0FF0F14BF23F0400343F07B
:102E200040038AF806309AF8063029064CBF63F052
:102E30007F0303F07F038AF806309AF8063064496E
:102E4000B21C23F002030A808AF80630FEF741B96B
:102E50005D4B9AF801001B889AF80040DBF80020CF
:102E6000013B99B240EA042357480B32B1F5804F39
:102E70000180CBF8002018B20ED3B1F5B64F02D2C4
:102E8000544A012313708B0B504AC1F30D0152F8C1
:102E90002320C0F3072353544B4B1B88013B9AB2AA
:102EA000494BB2F5804F1A800CD3B2F5B64F02D21F
:102EB000484901230B70930B4449C2F30D0251F8AA
:102EC00023309854424B424A1B8801331380FEF74B
:102ED00000B93F4B3D4E1C889AF806501F46631CB4
:102EE0009BB29A0B3B80C3F30D0056F82210A31C33
:102EF0009AB26D0611F800E03A8004F11C80324964
:102F0000930B098856F82350DBF80060C2F30D00DC
:102F10004B1EE21C99B294B22B4A285C118006F138
:102F20001103B1F5804FCBF800300DD3B1F5B64F9A
:102F300002D2284A012313708B0B244AC1F30D01DE
:102F400052F82320230A53541F4B1B88013B9AB28B
:102F50001D4BB2F5804F1A800CD3B2F5B64F02D29A
:102F60001C4901230B70930B1849C2F30D0251F851
:102F700023309C54164A0EEB00231380FEF7A9B8A9
:102F8000134B124C1988DBF800504B1C9AB28B1C67
:102F900099B2930B880B54F823400D4B1A8005F11E
:102FA0000A03CBF80030094BC2F30D0253F820009E
:102FB000074BA25C1980C1F30D03C35C02EB032332
:102FC000034A1380FEF785B874BD012020B10120AB
:102FD000F4BC01209100002068BD0120BA4BDBF851
:102FE00000101D88DFF8E8E29AF806601F466B1CA7
:102FF0009BB29A0B3B8001F10A005EF82240CBF8AD
:103000000000C3F30D01AB1C9AB27606615C3A80F6
:1030100003F1A287930BC2F30D025EF823309B5C91
:1030200001EB03233B80FEF754B8A84BDBF80040CC
:103030001D88A54B1F886B1C98B2A90B04F10A03CD
:10304000A34CCBF80030820B54F82140A049C5F3C3
:103050000D0351F82260E25C9C4BC0F30D01188017
:10306000735C42EA03231BB2C3F307208AF80130E2
:10307000964B8AF80000A91C1980934B7A1C1A8081
:10308000FEF727B89AF806305B0603F169878F4B85
:10309000DBF800501C88631C98B2A10B05F10B03F0
:1030A0008B4DCBF8003055F82110C4F30D03820B83
:1030B000C95C864B55F822501880C0F30D02AB5CFA
:1030C00041EA032380490B80804BA21C1A80FEF743
:1030D00000B8804B1B78002B03F046847A4B7C4869
:1030E0001B88DBF800109AF8084001339BB29A0B5A
:1030F000133150F82200744ACBF800101380C3F348
:103100000D029AF80930825643EA042313449BB215
:103110009A0BC3F30D016E4B9AF8074053F8223017
:10312000585C6D4900F00F0204F00F039B1A13F076
:10313000100F8B7914BF43F0100323F010038B7131
:1031400080EA0403221A1E0695B243F1F78384EA4B
:103150000203180643F1F2839AF8063043F00403A1
:103160008AF806309AF80630E9054CBF43F00103AF
:1031700023F001038AF806309AF8063015F0FF0FA5
:1031800014BF23F0400343F040038AF806309AF856
:1031900006302A064CBF63F07F0303F07F038AF8F2
:1031A00006309AF80620484B42F002021B888AF843
:1031B0000620454A01331380FDF78BBF454B1B7832
:1031C000002B03F04C85DBF800300833CBF80030DF
:1031D00008201AF80020404902F00F03013313F0D1
:1031E000100F8B7914BF43F0100323F010038B7181
:1031F0001AF80030D90902F10104374A43F0278553
:103200006340190643F12385937943F004039371D6
:103210000AF800409AF806202F4902F0FD0314F046
:10322000FF0F8AF8063014BF22F0420343F0400338
:103230008B719AF8063022064CBF63F07F0303F0CF
:103240007F038AF80630204B1F4A1B880133138006
:10325000FDF73FBF1F4B1B78002B03F068849AF8E3
:1032600008209AF80930DBF8001043EA0223013302
:103270009AB20A31130A8AF809208AF80830CBF882
:103280000010114B104A1B8801331380FDF721BF3A
:10329000104B1B7804F00701002B04F00E82DBF8C2
:1032A000003003F108020B1F012BCBF8002047F27E
:1032B0004B84054B1A881AF801308AF80230531CE7
:1032C000014A1380FDF705BFF4BC012074BD012045
:1032D00020B10120B9BD012068BD0120A24B1B789F
:1032E000002B43F09082A14B1B78002B43F08B8284
:1032F000DBF800300433CBF800309AF800109C4A19
:1033000001F00F03013313F0100F937914BF43F052
:10331000100323F010039371CB0901F1010043F076
:103320008E8481EA00031B0643F189849AF80630F3
:1033300043F004038AF806309AF806108C4A8AF89B
:10334000000001F0FD0310F0FF0F8AF8063014BFF3
:1033500021F0420343F0400393719AF80630854A06
:1033600006064CBF63F07F0303F07F038AF8063044
:10337000804B1B8801331380FDF7ABBE9AF8002009
:103380009AF80130DBF8001043EA02230133794A4E
:103390009BB212888AF801301B0A8AF80030754BFC
:1033A00006310132CBF800101A80FDF792BE6E4B49
:1033B0001B7804F00704002B04F03982DBF800309E
:1033C00003F10802231F012BCBF8002047F2B6833C
:1033D0001AF804109AF80750654805F00F0201F03A
:1033E0000F03D31A13F0100F8379614A14BF43F00F
:1033F000100323F0100383711AF804306B40691A2C
:103400001C068EB244F13A8185EA0103180644F1A4
:103410003581937943F004039371554A8AF8071074
:103420009379F1054CBF43F0010323F0010393713D
:103430009AF8063016F0FF0F14BF23F0400343F054
:1034400040038AF806309AF8063032064CBF63F023
:103450007F0303F07F038AF806309AF80620454B75
:1034600042F002021B888AF80620424A0133138088
:10347000FDF72FBE3C4B1B78002B04F0FB813D4B2E
:103480003D481B88DBF800109AF8084001339BB2D6
:103490009A0B133150F82200364ACBF800101380F3
:1034A000C3F30D029AF80930825643EA0423134409
:1034B0009BB29A0BC3F30D012F4B9AF8060053F8F9
:1034C00022309AF807505C5C294E00F0010105F0AB
:1034D0000F030B4404F00F021A44D20604EB050359
:1034E00019444CBF40F0100320F01003B37184EA7C
:1034F0000503DB0944F0AD8185EA01031B0644F1B5
:10350000A8819AF8063043F004038AF80630184A76
:103510008AF807109379CE054CBF43F0010323F0DE
:10352000010393719AF8063011F0FF0F14BF23F0D6
:10353000400343F040038AF806309AF806300D063F
:103540004CBF63F07F0303F07F038AF806309AF8DC
:103550000620084B22F002021B888AF80620054A42
:1035600001331380FDF7B5BDB9BD0120ECBD0120CD
:1035700068BD0120F4BC012020B10120C84B1B789C
:1035800004F00705002B04F00082DBF8003003F1A3
:1035900008022B1F012BCBF8002047F2CC829AF8AF
:1035A00006009AF807601AF80540BE4F06F00F03B0
:1035B00000F00101CA1804F00F031A44331919442A
:1035C000D3064CBF40F0100320F01003BB711AF873
:1035D0000530B44A7340DB0944F0588086EA0103A1
:1035E0001C0644F15380937943F004039371AD4A70
:1035F0008AF807109379C8054CBF43F0010323F004
:10360000010393719AF8063011F0FF0F14BF23F0F5
:10361000400343F040038AF806309AF80630090662
:103620004CBF63F07F0303F07F038AF806309AF8FB
:1036300006209D4B22F002021B888AF806209A4A37
:1036400001331380FDF745BD954B1B78002B04F02B
:103650004C81954B95481B88DBF800109AF8084080
:1036600001339BB29A0B133150F822008E4ACBF8EB
:1036700000101380C3F30D029AF80930825643EA12
:10368000042313449BB29A0BC3F30D01874B9AF8A2
:10369000074053F82230585C824900F00F0204F0D2
:1036A0000F03134413F0100F8B7914BF43F0100372
:1036B00023F010038B7180EA04032218DB0995B212
:1036C00044F00B8184EA0203180644F106819AF85B
:1036D000063043F004038AF806308AF80720714A5E
:1036E0009379E9054CBF43F0010323F00103937183
:1036F0009AF8063015F0FF0F14BF23F0400343F093
:1037000040038AF806309AF806302A064CBF63F068
:103710007F0303F07F038AF806309AF80620624B95
:1037200022F002021B888AF806205F4A01331380C8
:10373000FDF7CFBC5A4B1B7804F00704002B04F0B4
:103740000681DBF8003003F10802231F012BCBF8C0
:10375000002047F2CF859AF807501AF80410514814
:1037600005F00F0201F00F03134413F0100F8379DB
:103770004C4A14BF43F0100323F0100383711AF86E
:1037800004306B402944DB098EB244F01E8185EA87
:1037900001031B0644F11981937943F004039371EB
:1037A000404A8AF807109379F5054CBF43F00103AE
:1037B00023F0010393719AF8063016F0FF0F14BF3F
:1037C00023F0400343F040038AF806309AF80630AD
:1037D00034064CBF63F07F0303F07F038AF80630A2
:1037E0009AF80620304B22F002021B888AF8062045
:1037F0002D4A01331380FDF76CBC294B1B78002B3D
:1038000004F0EB80284B29481B88DBF800109AF85D
:10381000084001339BB29A0B133150F82200224A20
:10382000CBF800101380C3F30D029AF809308256CA
:1038300043EA042313449BB29A0BC3F30D011B4BC1
:1038400053F82230184A5B5C12888AF80730531C00
:10385000154A1380FDF73DBC114B1B7804F007019E
:10386000002B04F06280DBF8003003F108020B1F2C
:10387000012BCBF8002047F240850B4B1A881AF831
:1038800001308AF80730531C074A1380FDF721BC2A
:10389000DBF800300433CBF80030FDF71ABC00BF72
:1038A000B9BD012068BD0120F4BC012020B1012078
:1038B0009D4B1B78002B03F0B6829C4B9C481B88C9
:1038C000DBF800109AF8085001339BB29A0B1331C1
:1038D00050F82200954ACBF800101380C3F30D0274
:1038E0009AF80930825643EA0523134498B2B0F59A
:1038F000804F10D3B0F5B64F02D28E4A0123137019
:10390000820B04F007038A4951F822101AF80320A9
:10391000C0F30D03CA54854B844A1B8801331380BE
:10392000FDF7D7BB804B1B78002B03F09C827F4BAD
:103930007F481B88DBF800109AF8084001339BB2DF
:103940009A0B133150F82200784ACBF800101380FC
:10395000C3F30D029AF80930825643EA0423134454
:103960009BB29A0BC3F30D01714B53F822306F4A8F
:103970005B5C12888AF80530531C6C4A1380FDF793
:10398000A8BB694B1B7804F00700002B03F09A8258
:10399000DBF8003003F10802031F012BCBF80020F5
:1039A00047F2EC810922614B19881AF800300AF8B5
:1039B00002305E4A4B1C1380FDF78BBB5A4B1B78C1
:1039C000002B03F00880594B59481B88DBF8001086
:1039D0009AF8084001339BB29A0B133150F8220039
:1039E000524ACBF800101380C3F30D029AF8093045
:1039F000825643EA042313449BB29A0BC3F30D018E
:103A00004B4B53F82230494A5B5C12888AF80430E9
:103A1000531C464A1380FDF75CBB434B1B7804F0F4
:103A20000700002B04F00481DBF8003003F10802EA
:103A3000031F012BCBF8002044F2318208223B4BBC
:103A400019881AF800300AF80230384A4B1C1380E3
:103A5000FDF73FBB344B1B78002B42F0E586364B1D
:103A60001B78002B42F0E086DBF800300433CBF803
:103A700000309AF80210314A01F00F03013313F0BD
:103A8000100F937914BF43F0100323F010039371C8
:103A9000CB0901F1010042F0CE8681EA00031C0649
:103AA00042F1C9869AF8063043F004038AF80630DA
:103AB0009AF80610214A8AF8020001F0FD0310F07E
:103AC000FF0F8AF8063014BF21F0420343F0400391
:103AD00093719AF80630154A01064CBF63F07F03D4
:103AE00003F07F038AF80630104B1B8801331380E4
:103AF000FDF7EFBA9AF802209AF80330DBF80010CD
:103B000043EA02230133094A9BB212888AF8033040
:103B10001B0A8AF80230054B06310132CBF800103F
:103B20001A80FDF7D6BA00BFB9BD0120F4BC012050
:103B300020B1012091000020ECBD012068BD0120D2
:103B4000BF4B1B78002B04F04C80BE4BBE481B883B
:103B5000DBF800109AF8084001339BB29A0B17313A
:103B600050F82200B74ACBF800101380C3F30D02BF
:103B70009AF80930825643EA0423134499B28B0B16
:103B8000B14AC1F30D0552F82340625D02F00F0304
:103B9000013313F0100F9AF8063014BF43F01003EE
:103BA00023F010038AF80630D30902F1010043F034
:103BB000E08582EA00031E0643F1DB859AF80630B1
:103BC00043F004038AF80630B1F5804F06D3B1F50F
:103BD000B64F02D29D4A0123137060559AF8062011
:103BE0009B4902F0FD0310F0FF0F8AF8063014BF66
:103BF00022F0420343F040038B719AF80630914A59
:103C000001064CBF63F07F0303F07F038AF80630A0
:103C10008C4B1B8801331380FDF75BBADBF8001077
:103C20008C4B06311A88874BCBF8001089491B88CA
:103C300001320A80834A01331380FDF74ABA814B6F
:103C4000814C1988DBF800504B1C9AB28B1C99B23E
:103C5000930B880B54F823407A4B1A8005F10D031F
:103C6000CBF80030784BC2F30D0253F82000754BAF
:103C7000A25C1980C1F30D03C35C02EB03239AB26B
:103C8000B2F5804F0ED3B2F5B64F02D26F49012381
:103C90000B70930BC2F30D016B4A52F823209AF874
:103CA00007305354674B674A1B8801331380FDF775
:103CB00010BA644B64481C88DBF80050631C9BB24C
:103CC0009A0BA11C50F822005E4A1380C3F30D0228
:103CD00005F10A0389B2CBF80030855C5A4A8B0B98
:103CE00052F82300574B1980C1F30D035549C35CAB
:103CF000E21C0A80574A05EB03231380FDF7E9B95C
:103D0000504B9AF8062018881C46431C9BB2D207D9
:103D1000238002F198859A0BC3F30D014A4BDBF81F
:103D2000005053F822305A5C831C43FA82F205F1AA
:103D30000C032280CBF80030FDF7CBB99AF80620AF
:103D4000404BDBF800009AF807101B8842F0120283
:103D50008AF806203B4A0430C9430133CBF80000FF
:103D60008AF807101380FDF7B4B9354B1B78002B88
:103D700002F07285DBF800300B33CBF800300924F9
:103D8000304B31491D886B1C9BB29A0BC3F30D005D
:103D900051F822102B4A13800B5C0AF80430294B8F
:103DA000AA1C1A80FDF795B9254B1B78002B03F050
:103DB000AE84DBF800300833CBF8003009241AF861
:103DC0000420234802F00F03591E531E9DB283792D
:103DD0001F4ACE064CBF43F0100323F0100383713B
:103DE0001AF80430D90903F08A846B40180643F1AD
:103DF0008684937943F0040393710AF80450144ABB
:103E0000937915F0FF0F14BF23F0400343F04003F4
:103E100093719AF8063029064CBF63F07F0303F0D4
:103E20007F038AF806309AF80620064B42F0020219
:103E30001B888AF80620034A01331380FDF749B92D
:103E4000B9BD0120F4BC012020B101209100002067
:103E500068BD012074BD0120DBF80020C64B043290
:103E60001B88CBF80020C44A01331380FDF731B919
:103E7000C24B1B7804F00701002B03F0B780DBF87E
:103E8000003003F108020B1F012BCBF8002046F293
:103E90007E871AF801209AF80730B9491A438AF840
:103EA00007208B79002A42F0838443F040038B7112
:103EB0009AF8063003F07F038AF80630B14B9AF87F
:103EC00006109A5CAE4801F0EC038AF80630002A2E
:103ED00003F0AE8043F004038371A74BA64A1B880E
:103EE00001331380FDF7F5B8A44B1B78002B03F0CA
:103EF0006D82A14BA4481B88DBF800109AF808409B
:103F000001339BB29A0B133150F822009A4ACBF836
:103F100000101380C3F30D029AF80930825643EA69
:103F2000042313449BB29A0BC3F30D01964B53F831
:103F300022309AF807205B5C91495A408AF80720A2
:103F40008B79002A42F0358343F040038B719AF855
:103F5000063003F07F038AF806308A4B9AF8061081
:103F60009A5C874801F0EC038AF80630002A03F0D7
:103F7000808243F0040383717F4B7F4A1B880133A7
:103F80001380FDF7A6B87D4B1B7804F00701002BCA
:103F900003F04D82DBF8003003F108020B1F012B08
:103FA000CBF8002046F2CD851AF801209AF80730A8
:103FB00073495A408AF807208B79002A42F004831B
:103FC00043F040038B719AF8063003F07F038AF8C0
:103FD00006306C4B9AF806109A5C694801F0EC03C5
:103FE0008AF80630002A03F0108243F0040383713C
:103FF000614B614A1B8801331380FDF76AB85F4B40
:104000001B78002B03F0BD835B4B5F481B88DBF8FC
:1040100000109AF8084001339BB29A0B133150F804
:104020002200554ACBF800101380C3F30D029AF812
:104030000930825643EA042313449BB29A0BC3F31C
:104040000D01514B53F822309AF807205B5C4C4924
:104050001A408AF807208B79002A42F0F28243F056
:1040600040038B719AF8063003F07F038AF806301C
:104070009AF80610434B424C985C01F0FC0242F067
:1040800010038AF80630002802F0CB8742F01403B0
:10409000A371394B384A1B8801331380FDF719B8D7
:1040A000364B1B78002B42F0A783384B1B78002B34
:1040B00042F0A283DBF800300433CBF800309AF8EA
:1040C00003102F4A01F00F03013313F0100F9379FF
:1040D00014BF43F0100323F010039371CB0901F1D7
:1040E000010042F0A48581EA00031B0642F19F858E
:1040F0009AF8063043F004038AF806309AF806105E
:104100001F4A8AF8030001F0FD0310F0FF0F8AF840
:10411000063014BF21F0420343F0400393719AF834
:104120000630154A06064CBF63F07F0303F07F0399
:104130008AF80630104B1B8801331380FCF7C9BF87
:104140009AF802209AF803300B49DBF800400888FF
:1041500043EA02239A0BC3F30D010B4B53F82220C1
:10416000E31DCBF80030535C034A8AF80730431C48
:104170001380FCF7AEBF00BFF4BC0120B9BD012025
:1041800068BD0120E06A010820B10120ECBD0120DA
:10419000AB4B9AF802009AF803101B78A94A41EA3F
:1041A0000024002B03F0BC81117A537ADBF8005015
:1041B00043EA0123C3F30B0005F10F011D19C4F3FA
:1041C0000B03034413F4805F9379CBF8001014BF02
:1041D00043F0100323F0100393712B0A8AF809505F
:1041E0008AF808309AF80620964902F0FD03E803A1
:1041F0008AF8063054BF22F0030343F001038B71A9
:10420000914B914A1B8801331380FCF762BF8C4BA2
:104210001B78002B42F0F4818C4B1B78002B42F072
:10422000EF81DBF800300433CBF800309AF8071048
:10423000844A01F00F03013313F0100F937914BF78
:1042400043F0100323F010039371CB0901F1010037
:1042500043F02B8281EA0003190643F126829AF883
:10426000063043F004038AF806309AF80610754ABF
:104270008AF8070001F0FD0310F0FF0F8AF80630FE
:1042800014BF21F0420343F0400393719AF80630C3
:1042900002064CBF63F07F0303F07F038AF8063009
:1042A000694B694A1B8801331380FCF712BF9AF8E7
:1042B00000109AF80120DBF8003042EA01220733AF
:1042C000B2F5804FCBF800300ED3B2F5B64F02D224
:1042D0005F4901230B70930BC2F30D015D4A52F845
:1042E00023209AF807305354574B574A1B88013301
:1042F0001380FCF7EEBE544B56481C88DBF8005088
:10430000631C9BB29A0BA11C50F822004E4A1380EA
:10431000C3F30D0205F10A0389B2CBF80030855CC6
:104320004C4A8B0B52F82300474B1980C1F30D0305
:104330004549C35C05EB0323E21C9BB20A801A0AC1
:104340008AF801308AF80020FCF7C3BE3C4B1B788A
:1043500004F00701002B02F0CD87DBF8003003F1F9
:1043600008020B1F012BCBF8002046F2DE83364BF0
:104370001A881AF801308AF80330531C324A138025
:10438000FCF7A7BE2E4B1B78002B02F045832E4B6B
:1043900030481B88DBF800109AF8084001339BB2C4
:1043A0009A0B133150F82200274ACBF800101380E3
:1043B000C3F30D029AF80930825643EA04231344EA
:1043C0009BB29A0BC3F30D01224B53F822301E4AC5
:1043D0005B5C12888AF80230531C1B4A1380FCF77E
:1043E00078BE174B1B78002B03F0C384164B19487B
:1043F0001B88DBF800109AF8084001339BB29A0B37
:10440000133150F82200104ACBF800101380C3F388
:104410000D029AF80930825643EA042313449BB2F2
:104420009A0BC3F30D010B4B53F82230064A5B5C29
:1044300012888AF80330531C034A1380FCF749BEE4
:10444000B9BD012068BD0120F4BC0120ECBD0120F4
:104450009100002020B10120BD4B1B78002B42F0C1
:104460008F81BC4B1B78002B42F08A81DBF8003037
:104470000433CBF800309AF80110B74A01F00F036B
:10448000013313F0100F937914BF43F0100323F09E
:1044900010039371CB0901F1010042F03F8481EADE
:1044A00000031C0642F13A849AF8063043F00403F4
:1044B0008AF806309AF80610A74A8AF8010001F037
:1044C000FD0310F0FF0F8AF8063014BF21F04203FD
:1044D00043F0400393719AF80630A04A01064CBF9E
:1044E00063F07F0303F07F038AF806309B4B1B8841
:1044F00001331380FCF7EDBD954B1B78002B02F0C8
:10450000EE86DBF800300833CBF8003009201AF8CB
:104510000020914902F00F03013313F0100F8B7943
:1045200014BF43F0100323F010038B711AF800300E
:10453000D90902F10104884A42F0C986634019068C
:1045400042F1C586937943F0040393710AF8004061
:104550009AF80620804902F0FD0314F0FF0F8AF854
:10456000063014BF22F0420343F040038B719AF8E7
:10457000063022064CBF63F07F0303F07F038AF806
:104580000630764B754A1B8801331380FCF7A1BDBA
:104590006F4B1B78002B02F092829AF808209AF851
:1045A0000930DBF8001043EA0223013B9AB20A31DA
:1045B000130A8AF809208AF80830CBF80010674BF4
:1045C000664A1B8801331380FCF783BD634B9AF85E
:1045D000062018881C46431C9BB25506238002F116
:1045E000A4819A0BC3F30D015D4BDBF8005053F827
:1045F00022305A5C831C43FA82F205F10C032280BC
:10460000CBF80030FCF765BD514B1B7804F0070474
:10461000002B03F03683DBF8003003F10802231F80
:10462000012BCBF8002043F237841AF804109AF8D3
:104630000750494805F00F0201F00F03D31A13F099
:10464000100F8379444A14BF43F0100323F0100382
:1046500083711AF804306B40691A1C068EB243F15C
:104660001F8285EA0103180643F11A82937943F009
:10467000040393719AF80630F1054CBF43F001032F
:1046800023F001038AF806309AF8063016F0FF0F7F
:1046900014BF23F0400343F040038AF806309AF831
:1046A000063032064CBF63F07F0303F07F038AF8C5
:1046B00006309AF80620294B42F002021B888AF83D
:1046C0000620264A01331380FCF703BD234B9AF8DA
:1046D00000101C881D46631C9BB29A0B481E204983
:1046E0002B8051F82210C3F30D02C3B28A5C8AF802
:1046F0000030002B02F08C84DBF80010A31C43FA7E
:1047000082F201F10D032A80CBF80030FCF7E1BC06
:104710000F4B1B783BB90F4B1B7823B9DBF80030EC
:104720000733CBF800300D4B0D491C88631C9BB23E
:104730009A0BC3F30D0051F82210084A13800B5C4A
:104740008AF80130054BA21C1A80FCF7C2BC00BFDE
:10475000B9BD0120ECBD012068BD0120F4BC0120E1
:1047600020B10120C54B1B78002B42F05380C44B75
:104770001B78002B42F04E80DBF800300433CBF87E
:1047800000309AF80100BF4900F00F035A1E431E83
:104790009CB28B79D2064CBF43F0100323F0100378
:1047A0008B71C30902F0A88080EA04031B0642F162
:1047B000A3809AF8063043F004038AF80630B14A21
:1047C0008AF80140937914F0FF0F14BF23F04003DF
:1047D00043F0400393719AF8063026064CBF63F00D
:1047E0007F0303F07F038AF806309AF80620A64B71
:1047F00042F002021B888AF80620A34A0133138084
:10480000FCF767BC9D4B1B7804F00701002B02F0FE
:10481000DB83DBF8003003F108020B1F012BCBF820
:10482000002046F28581984B1A881AF801308AF8E0
:104830000030531C944A1380FCF74BBC9AF80620B6
:10484000DBF800308F490433D007CBF800304CBF81
:1048500022F0010342F001038B719AF806208A4B83
:1048600022F002021B888AF80620874A013313804F
:10487000FCF72FBC844B854C1888DBF80010431CD8
:104880009BB29A0B0C3154F822207F4CCBF80010CD
:104890002380C3F30D03D256831C13442380FCF7FB
:1048A00018BCDBF800309AF806109AF80720043399
:1048B000CD07CBF800304FEA420348BF43F0010375
:1048C000DC05704A8AF807304CBF41F0010321F043
:1048D000010393719AF806206B4B22F012021B8899
:1048E0008AF80620684A01331380FCF7F2BB634B59
:1048F0001B783BB9624B1B7823B9DBF800300733D8
:10490000CBF80030604B61491C88631C9BB29A0B4A
:10491000C3F30D0051F822105B4A13800B5C8AF838
:104920000230594BA21C1A80FCF7D3BB534B1B78A7
:10493000002B41F09186524B1B78002B41F08C8666
:10494000DBF800300433CBF800309AF802004D4910
:1049500000F00F035A1E431E9CB28B79D2064CBF47
:1049600043F0100323F010038B71C30902F0428758
:1049700080EA04031B0642F13D879AF8063043F0B3
:1049800004038AF806303F4A8AF80240937914F00B
:10499000FF0F14BF23F0400343F0400393719AF8D4
:1049A000063026064CBF63F07F0303F07F038AF8CE
:1049B00006309AF80620344B42F002021B888AF82F
:1049C0000620314A01331380FCF783BB9AF802209A
:1049D0009AF80330DBF8001043EA0223013B2A4A2D
:1049E0009BB212888AF803301B0A8AF80230264BE1
:1049F00006310132CBF800101A80FCF76ABB1F4B5E
:104A00001B7804F00701002B02F02586DBF800304C
:104A100003F108020B1F012BCBF8002043F239826F
:104A20001AF801209AF8073016491A408AF8072028
:104A30008B79002A41F0D38543F040038B719AF8BB
:104A4000063003F07F038AF806309AF80610104B00
:104A50000C4C985C01F0FC0242F010038AF806301E
:104A6000002802F01B8642F01403A371064B064A8D
:104A70001B8801331380FCF72CBB00BFB9BD01209C
:104A8000ECBD012068BD0120F4BC012020B1012053
:104A9000E06A0108AB4B1B78002B03F03681AA4B70
:104AA000AA481B88DBF800109AF8084001339BB233
:104AB0009A0B133150F82200A34ACBF80010138050
:104AC000C3F30D029AF80930825643EA04231344D3
:104AD0009BB29A0BC3F30D019C4B9AF8074053F815
:104AE00022309AF806005D5C994E05F00F0204F042
:104AF0000F03991A00F00103621BC91AD31A9FB25F
:104B0000CB064CBF40F0100320F01003B37185EAD0
:104B100004031D0643F1F18084EA0703180643F1FC
:104B2000EC809AF8063043F004038AF80630884A8D
:104B30008AF807709379F9054CBF43F0010323F01D
:104B4000010393719AF8063017F0FF0F14BF23F09A
:104B5000400343F040038AF806309AF806303A06DC
:104B60004CBF63F07F0303F07F038AF806309AF8A6
:104B70000620754B42F002021B888AF80620724A12
:104B800001331380FCF7A5BA6E4B1B7804F00704C1
:104B9000002B02F0A385DBF8003003F10802231F8D
:104BA000012BCBF8002045F2D2879AF807501AF86B
:104BB00004109AF80600664E01F00F0305F00F028C
:104BC000D21A691A00F00103D21ACB1A99B2D3068D
:104BD0004CBF40F0100320F01003B3711AF80430FA
:104BE0005B4A6B401E0641F1988685EA01031C066C
:104BF00041F19386937943F004039371544A8AF800
:104C000007109379C8054CBF43F0010323F001035B
:104C100093719AF8063011F0FF0F14BF23F0400390
:104C200043F040038AF806309AF806300A064CBF73
:104C300063F07F0303F07F038AF806309AF80620BA
:104C4000414B42F002021B888AF806203E4A01339B
:104C50001380FCF73EBA3B4B1B78002B02F094818B
:104C6000394B3A481B88DBF800109AF808400133AA
:104C70009BB29A0B133150F82200334ACBF8001044
:104C80001380C3F30D029AF80930825643EA0423D5
:104C900013449BB29A0BC3F30D012C4B9AF80740B7
:104CA00053F82230585C2A4900F00F0204F00F0339
:104CB0009B1A13F0100F8B7914BF43F0100323F0ED
:104CC00010038B7180EA0403221A1E0695B242F18A
:104CD000538184EA0203180642F14E819AF80630A5
:104CE00043F004038AF806308AF80720184A9379BB
:104CF000E9054CBF43F0010323F0010393719AF8D7
:104D0000063015F0FF0F14BF23F0400343F04003BB
:104D10008AF806309AF806302A064CBF63F07F0303
:104D200003F07F038AF806309AF80620064B42F01B
:104D300002021B888AF80620034A01331380FCF71D
:104D4000C8B900BFB9BD0120F4BC012020B10120C9
:104D500068BD0120AC4B1B78002B02F09683AB4B57
:104D6000AB481B88DBF800109AF8084001339BB26F
:104D70009A0B133150F82200A44ACBF8001013808C
:104D8000C3F30D029AF80930825643EA0423134410
:104D90009BB29A0BC3F30D019D4B53F822309AF846
:104DA00007205B5C9B491A438AF807208B79002A0D
:104DB00041F02D8443F040038B719AF8063003F0E4
:104DC0007F038AF80630944B9AF806109A5C914853
:104DD00001F0EC038AF80630002A02F0FD8643F069
:104DE00004038371894B894A1B8801331380FCF7C4
:104DF00070B9864BDBF800101A88884B9AF80700C8
:104E0000DB798AF807300B1DCBF800307F4B9AF81E
:104E1000061001321A80814B804A9B79D0719171C2
:104E20008AF80630FCF755B9774B1B783BB97C4BB9
:104E30001B7823B9DBF800300733CBF80030734B15
:104E400073491C88631C9BB29A0BC3F30D0051F885
:104E500022106E4A13800B5C8AF800306B4BA21C48
:104E60001A80FCF736B9684B1B78002B41F0998407
:104E70006B4B1B78002B41F09484DBF8003004333B
:104E8000CBF800309AF80000624900F00F035A1E78
:104E9000431E9CB28B79D5064CBF43F0100323F020
:104EA00010038B71C30901F0FF8780EA0403190620
:104EB00041F1FA879AF8063043F004038AF8063085
:104EC000544A8AF80040937914F0FF0F14BF23F07E
:104ED000400343F0400393719AF8063022064CBF1A
:104EE00063F07F0303F07F038AF806309AF8062008
:104EF000464B42F002021B888AF80620434A0133DF
:104F00001380FCF7E6B8414B9AF8062018881C4637
:104F1000431C9BB25106238041F1F6849A0BC3F3E4
:104F20000D013B4BDBF8005053F822305A5C831CD8
:104F300043FA82F205F10C032280CBF80030FCF733
:104F4000C8B8DBF800309AF80610324A0433CBF8C0
:104F50000030CB0601F16584D37903F00F03092BF0
:104F60008CBF06240024CE0703D49AF80730992B6F
:104F700006D904F1600241F00103D4B28AF8063088
:104F80009AF80610234A01F01203022B01F0548311
:104F9000122BD37903F00F0301F04B83092B41F25D
:104FA0004B8341F0100393719AF806009AF807308A
:104FB000184A850746BF1B1B99B21919CCB28AF84B
:104FC0000740002C02F09D8220F0400393719AF874
:104FD000063008064CBF63F07F0303F07F038AF8B6
:104FE00006300D4B1B5D002B02F083829AF80630D1
:104FF00043F004038AF80630044B044A1B8801334B
:105000001380FCF766B800BFB9BD0120F4BC0120D5
:1050100020B1012068BD0120E06A0108BCBD01206B
:10502000ECBD0120B84BB94C1988B94B1D784B1C0D
:105030009AB28B1C99B2930B880B54F82340B24B55
:105040001A80C2F30D03B14A52F82000E25CAE4B65
:105050001980C1F30D03C35C02EB032398B2002D4A
:1050600001F07484DBF800309AF809409AF808508F
:105070001433CBF80030B0F5804FC1F08883B0F521
:10508000B64F02D2A34A01231370830B9F4AC0F389
:105090000D0152F8232045F6FE239842545441F363
:1050A0007B83431C9913C3F30D02984B53F82130B3
:1050B0009D54954B944A1B8801331380FCF709B823
:1050C000934B1B78002B02F0C2848F4B8F481A88B9
:1050D000DBF80050531C9BB2911C9A0B89B250F81C
:1050E0002240894AC3F30D00138005F10E03CBF86B
:1050F0000030235C85488AF809308A0BC1F30D0320
:1051000050F8222080480180D35C8AF808307E4B1A
:105110007D4A1B8801331380FBF7DBBF7A4B9AF87B
:10512000062018881C46431C9BB2D507238042F1F9
:105130008F859A0BC3F30D01744BDBF8005053F8C5
:1051400022305A5C831C43FA82F205F10C03228060
:10515000CBF80030FBF7BDBF9AF802109AF8032095
:10516000DBF8003042EA01220733B2F5804FCBF87A
:1051700000300ED3B2F5B64F02D2664901230B7050
:10518000930BC2F30D01614A52F823209AF80730BD
:1051900053545D4B5C4A1B8801331380FBF799BF66
:1051A000594B5A4819885A4B584D1E784B1C9AB285
:1051B0008B1C99B2930B8C0B50F82300524B1A8026
:1051C000C2F30D03514AC05C4F4B52F824201980A2
:1051D000C1F30D03D35C00EB032398B2002E01F062
:1051E000A585411C8B13DBF8007055F82360820BFA
:1051F00007F11403CBF80030C1F30D04C0F30D0325
:1052000055F82210325DCB5C03EB02239BB21A0AE5
:105210008AF809308AF808203B4B3B4A1B88013347
:105220001380FBF756BF3A4B1B78002B02F09C8192
:105230009AF80930DBF800409AF80820364943EA2A
:10524000022204F10F03CBF800308B7950001205D5
:105250004CBF43F0100323F010038B71030A044684
:105260008AF809008AF808309AF806202A4902F0DC
:10527000FD03E0038AF8063054BF22F0030343F035
:1052800001038B71204B204A1B8801331380FBF7ED
:1052900020BF1F4B1B783BB9204B1B7823B9DBF891
:1052A00000300733CBF80030174B18491C88631CBB
:1052B0009BB29A0BC3F30D0051F82210124A1380CF
:1052C0000B5C8AF80330104BA21C1A80FBF701BF5D
:1052D0000F4B1B7804F00701002B01F0BE83DBF8B5
:1052E000003003F108020B1F012BCBF8002045F220
:1052F0003184054B1A881AF801308AF80130531CA2
:10530000014A1380FBF7E5BEF4BC012020B1012067
:10531000B9BD01209100002068BD0120ECBD012035
:10532000B94B1B78002B01F02184B84BB8481B887F
:10533000DBF800109AF8084001339BB29A0B133146
:1053400050F82200B14ACBF800101380C3F30D02CD
:105350009AF80930825643EA042313449BB29A0B0D
:10536000C3F30D01AA4B53F82230A84A5B5C1288A4
:105370008AF80030531CA54A1380FBF7AABEA24B43
:105380001B78002B01F0F384A04BA1481B88DBF8AD
:1053900000109AF8084001339BB29A0B133150F871
:1053A00022009A4ACBF800101380C3F30D029AF83A
:1053B0000930825643EA042313449BB29A0BC3F389
:1053C0000D01934B53F82230904A5B5C12888AF8A7
:1053D0000130531C8D4A1380FBF77BBE8A4B1B7830
:1053E0003BB98C4B1B7823B9DBF800300733CBF883
:1053F0000030864B86491C88631C9BB29A0BC3F312
:105400000D0051F82210814A13800B5C8AF8073096
:105410007E4BA21C1A80FBF75CBE7B4B1B78002BDB
:1054200041F0A7817B4B1B78002B41F0A281DBF878
:1054300000300433CBF800309AF80700764900F0CA
:105440000F035A1E431E9CB28B79D6064CBF43F005
:10545000100323F010038B71C30901F0118280EA5D
:1054600004031D0641F10C829AF8063043F0040350
:105470008AF80630684A8AF80740937914F0FF0FDB
:1054800014BF23F0400343F0400393719AF80630B1
:1054900024064CBF63F07F0303F07F038AF80630D5
:1054A0009AF80620594B42F002021B888AF806201F
:1054B000564A01331380FBF70CBE544B544C1888EA
:1054C000DBF80050431C9BB29A0B811C54F822401D
:1054D0004E4A1380C3F30D0205F10D0389B2CBF8D8
:1054E0000030A45C4A4A8B0B033052F82320474B10
:1054F0001980C1F30D03D35C04EB03239BB2990B1A
:10550000C3F30D02424B53F821309B5C8AF80730FD
:105510003E4B1880FBF7DDBD3B4B1B78002B02F0A8
:105520005E843E499AF808209AF809300988DBF829
:105530000050394843EA02235C18C3F30B02C1F35D
:105540000B031A4405F10F03CBF8003083798AF876
:105550000940D1044CBF43F0100323F010038371C2
:10556000230A25468AF808309AF806202A4902F0CC
:10557000FD03E8038AF8063054BF22F0030343F02A
:1055800001038B71214B214A1B8801331380FBF7E8
:10559000A0BD9AF800209AF801301C49DBF80040C1
:1055A000088843EA02239A0BC3F30D01184B53F802
:1055B0002220E31DCBF80030535C144A8AF80730F0
:1055C000431C1380FBF785BD0F4B1B78002B01F0AC
:1055D000EE83DBF800300B33CBF8003008240B4BA4
:1055E0000B491D886B1C9BB29A0BC3F30D0051F83D
:1055F0002210064A13800B5C0AF80430034BAA1CE5
:105600001A80FBF766BD00BFB9BD0120F4BC0120C4
:1056100020B10120ECBD012068BD012074BD012036
:10562000C24B1B78002B02F00980DBF800300833F6
:10563000CBF8003008241AF80420BD4802F00F030C
:10564000591E531E9DB28379B94ACE064CBF43F012
:10565000100323F0100383711AF80430D90901F004
:10566000E5876B40190641F1E187937943F0040324
:1056700093710AF80450AE4A937915F0FF0F14BFE6
:1056800023F0400343F0400393719AF806302A0652
:105690004CBF63F07F0303F07F038AF806309AF86B
:1056A0000620A44B42F002021B888AF80620A14A79
:1056B00001331380FBF70DBDDBF800309C4A9AF8EC
:1056C00006100433CBF80030D379CA0746BF5B0815
:1056D00043F0800058089AF80730954A8AF8070086
:1056E000DE074CBF41F0010321F0010393719AF8EA
:1056F0000620904B22F012021B888AF806208D4A61
:1057000001331380FBF7E5BC884B1B78002B01F0BD
:10571000B781884B88481B88DBF800109AF808404E
:1057200001339BB29A0B133150F82200814ACBF817
:1057300000101380C3F30D029AF80930825643EA31
:105740000423134498B27B4B7A4A1B8801339BB2E3
:10575000B0F5804F138013D3990BC3F30D02764B32
:1057600053F82130B0F5B64F995C02D2734A012349
:105770001370830BC0F30D026F4850F82330995417
:105780006C4B6C4A1B8801331380FBF7A2BC674B40
:105790001B78002B01F07C80664B67481B88DBF888
:1057A00000109AF8084001339BB29A0B173150F859
:1057B0002200604ACBF800101380C3F30D029AF860
:1057C0000930825643EA0423134498B2830B5A4AA1
:1057D000C0F30D0652F82350A95D01F00F035A1EC5
:1057E0004B1E9CB29AF80630D2064CBF43F0100311
:1057F00023F010038AF80630CB0901F0398081EAE2
:1058000004031B0641F134809AF8063043F0040388
:105810008AF80630B0F5804F06D3B0F5B64F02D205
:10582000464A01231370AC559AF8063014F0FF0F66
:1058300014BF23F0400343F040038AF806309AF87F
:10584000063026064CBF63F07F0303F07F038AF81F
:1058500006309AF80620374B42F002021B888AF87D
:105860000620344A01331380FBF733BCDBF80020F9
:1058700030499AF806300888043223F01203CBF836
:1058800000202C4A43F00101431C8AF806101380C3
:10589000FBF71FBCDBF800309AF8072024490433DB
:1058A000D507CBF8003042F1DC818879530863F0EA
:1058B0007F0240F00103CA718B719AF806201D4BDC
:1058C00022F012021B888AF806201A4A013313803C
:1058D000FBF7FFBB174B18481C88DBF80050631C14
:1058E0009BB29A0BA11C50F82200124A1380C3F3FA
:1058F0000D0205F10A0389B2CBF80030855C0E4A2F
:105900008B0B52F823000B4B1980C1F30D0309498F
:10591000C35C05EB0323E21C9BB20A801A0A8AF8D7
:1059200003308AF80220FBF7D4BB00BFB9BD0120C9
:1059300068BD0120F4BC012020B1012091000020AD
:10594000DBF80010784B06311A88784BCBF8001042
:1059500075491B88013A0A80744A01331380FBF7AA
:10596000B8BB734B1B78002B40F05C86714B1B78E7
:10597000002B40F05786DBF800300433CBF80030C2
:105980009AF803006C4900F00F035A1E431E9CB2A4
:105990008B79D5064CBF43F0100323F010038B71B5
:1059A000C30901F0918580EA0403180641F18C8552
:1059B0009AF8063043F004038AF806305E4A8AF803
:1059C0000340937914F0FF0F14BF23F0400343F01A
:1059D000400393719AF8063021064CBF63F07F03B1
:1059E00003F07F038AF806309AF806204F4B42F006
:1059F00002021B888AF806204C4A01331380FBF709
:105A000068BBDBF800309AF807204B4904331606D0
:105A1000CBF8003002F1CC818B79520023F00103E6
:105A2000CA718B719AF80620404B22F012021B8833
:105A30008AF806203D4A01331380FBF74ABB9AF8E7
:105A400000209AF80130DBF8001043EA0223013B02
:105A5000364A9BB212888AF801301B0A8AF8003055
:105A6000324B06310132CBF800101A80FBF731BB04
:105A70002F4B9AF800009AF801101B782E4A41EA41
:105A80000024002B01F0FF80117A537ADBF80050DC
:105A900043EA0123C3F30B0005F10F011D19C4F301
:105AA0000B03034413F4805F9379CBF8001014BF09
:105AB00043F0100323F0100393712B0A8AF8095066
:105AC0008AF808309AF806201B4902F0FD03ED031E
:105AD0008AF8063054BF22F0030343F001038B71B0
